:020000040800F2
:1000000000060020E1010008790E0008F90D000843
:10001000510E0008F90D0008250E0008E301000844
:10002000E3010008E3010008E301000835210008AE
:10003000E3010008E3010008E3010008E301000810
:10004000E3010008E3010008E3010008E301000800
:10005000E3010008E3010008C9310008F531000898
:10006000213200084D32000879320008E30100080F
:10007000E3010008E3010008E3010008E3010008D0
:10008000E3010008E3010008E3010008E3010008C0
:10009000E3010008E3010008E3010008A5320008BD
:1000A000E3010008E3010008E3010008E3010008A0
:1000B0003D300008E3010008E3010008E301000807
:1000C000E3010008E3010008E3010008E301000880
:1000D000E3010008E3010008E3010008E301000870
:1000E0000D330008E3010008E3010008E301000804
:1000F000E3010008E3010008E3010008E301000850
:10010000E3010008E3010008E3010008E30100083F
:10011000E3010008E3010008E3010008E30100082F
:10012000E3010008E3010008E3010008E30100081F
:10013000E3010008E3010008E3010008E30100080F
:10014000E3010008E3010008E3010008612800085A
:10015000E3010008E3010008E3010008E3010008EF
:10016000E3010008E3010008E3010008E3010008DF
:10017000E3010008E3010008E3010008E3010008CF
:10018000E3010008E3010008E3010008E3010008BF
:10019000E3010008E3010008E3010008E3010008AF
:1001A000E3010008E3010008E3010008E30100089F
:1001B000E3010008E3010008E3010008E30100088F
:1001C000E3010008E3010008E3010008E30100087F
:1001D000E3010008E3010008E3010008E30100086F
:1001E00002E000F000F8FEE772B63A4880F30888B3
:1001F000394880F3098839484EF60851CEF200019B
:10020000086040F20000CCF200004EF63471CEF2ED
:1002100000010860BFF34F8FBFF36F8F40F2000003
:10022000C0F2F0004EF68851CEF200010860BFF334
:100230004F8FBFF36F8F4FF00000E1EE100A4EF6C4
:100240003C71CEF200010860062080F31488BFF3F1
:100250006F8F01F0EFFF01F0CBFF02F053FE4FF084
:1002600055301F491B4A91423CBF41F8040BFAE745
:100270001C49194A91423CBF41F8040BFAE71A495C
:100280001A4A1B4B9A423EBF51F8040B42F8040B2A
:10029000F8E700201749184A91423CBF41F8040B87
:1002A000FAE701F0A9FF02F081FE144C144DAC42B4
:1002B00003DA54F8041B8847F9E700F041F8114CC1
:1002C000114DAC4203DA54F8041B8847F9E701F0FA
:1002D00091BF00000006002000220020000000085E
:1002E000000000200006002038370008002200200F
:1002F0004022002040220020A82D0020E00100081C
:10030000E0010008E0010008E00100082DE9F04FDD
:100310002DED108AC1F80CD0C3689D46BDEC108A43
:10032000BDE8F08F002383F311882846A047002002
:1003300001F016FBFEE701F091FA00DFFEE7000096
:1003400010B501F0C7FE044601F0EAFE30B100200E
:1003500001F0CAFE00F082F8002409E00B4B9C4239
:1003600010D001339C42F2D001F0BEFE41F288343D
:1003700000F016FD00F096FB204600F0C3F800F0F8
:100380006DF8F9E701F0B0FEE6E700BF010007B045
:1003900008B500F05BFBA0F120035842584108BDAE
:1003A00007B541F21203022101A8ADF8043000F0B4
:1003B00069FB03B05DF804FB38B5202383F3118893
:1003C0001748C3680BB101F051FB164A14480023CB
:1003D0004FF47A7101F00EFB002383F31188124C65
:1003E000236813B12368013B2360636813B163681A
:1003F000013B63600D4D2B7833B963687BB90220F4
:1004000000F046FC322363602B78032B07D163682E
:100410002BB9022000F03CFC4FF47A73636038BDC6
:1004200050230020B9030008442300204C2300205F
:10043000084B187003280CD8DFE800F00805020804
:10044000022000F015BC022000F002BC024B00228A
:100450005A6070474C23002044230020244B254A37
:1004600010B51C461968013140D004339342F9D1CC
:100470006268214B9A4239D9204B9B6803F1006393
:1004800003F580339A4231D2002000F025FB022090
:10049000FFF7CEFF1A4B1A6C00221A64196E1A6607
:1004A000196E596C5A64596E5A665A6E5A6942F0FE
:1004B00080025A615A6922F080025A615A691A69A7
:1004C00042F000521A611A6922F000521A611B6947
:1004D00072B64FF0E0232021C3F8084DD4E9003272
:1004E00081F311889D4683F30888104710BD00BF33
:1004F0000000010820000108FFFF00080022002082
:10050000003802402DE9F04F95B0DFF8BCB2019001
:100510002022FF210CA8DBF8086000F0EBFBA54AC5
:100520001378A3B9A4480121C3601170202383F379
:100530001188C3680BB101F099FAA04A9E480023C4
:100540004FF47A7101F056FA002383F31188019B6E
:1005500013B19B4B019A1A609A4A019D1378032BA1
:100560001EBF00231370964A4FF0000918BF536056
:10057000CA464C46C846012000F07AFB25B1904B94
:100580001B68002B00F00982002000F05FFA059044
:10059000059B002BF2DB012000F05AFB059B213B61
:1005A000162BE8D801A252F823F000BF0906000874
:1005B00031060008BB06000877050008770500082B
:1005C00077050008490700080B09000825080008FE
:1005D00087080008AF080008D5080008770500085C
:1005E000E70800087705000859090008A706000871
:1005F00077050008A109000815060008A7060008ED
:1006000077050008870800080220FFF7C1FE0028D0
:1006100040F00581019BB9F1000F08BF1D4641F272
:100620001233022107A8ADF81C3000F02BFA3FE08E
:100630004FF47A7000F00AFA071EEBDB0220FFF796
:10064000A7FE0028E6D0013F052F00F2D181DFE8A8
:1006500007F0030A0D10133105230793042107A89F
:1006600000F010FA17E058480421F9E75748042130
:10067000F6E757480421F3E74FF01C08404600F026
:100680002DFA08F104080790042107A800F0FAF9F0
:10069000B8F12C0FF2D10123BB404AEA03035FFA01
:1006A00083FA4FF0000800F071FB9CBBFFF778FE67
:1006B00023469BE147480421D2E7002CAAD00AF048
:1006C0000B030B2B62D10220FFF762FE04460028C9
:1006D0005CD0012000F000FA0220FFF7A9FE0027FD
:1006E0005FFA87F9484600F007FA0546D0B9354B5E
:1006F000012202201A7000F0ABFA2E46DBF8083017
:10070000B3421AD82F4B00261E702D4B5E6000F0AE
:100710003DFBA1460AF00B030B2B4FF0010408BF71
:100720000025C3E7484600F0F7F9013705460028E1
:10073000D6D1A14641F2121373E7304600F0CEF94C
:100740000130F6D10436D9E7002C3FF463AF0AF04C
:100750000B030B2B1AD10220FFF76AFE322000F0A8
:1007600075F9071E12DB17F003030FD1DBF8081031
:10077000BA198A420AD8B7F5807F07DC164A9F4229
:1007800006DCC820FFF704FE044638BB012441E71D
:100790004FF47A70CDE9023200F058F905900599CE
:1007A0000029FFF637AF039A029B059902F8011B57
:1007B0000133E4E74023002050230020B903000860
:1007C000442300204C23002000220020042200208B
:1007D000082200200C220020402200201F2E11D8C9
:1007E000C6F12002BA420CAB26F0030028BF3A46FD
:1007F00081490292184400F05DFA029A7E48FF2176
:1008000000F078FABB107C490293C7F387023046A8
:1008100000F078FA00288DD0029B06EB830600F0EA
:10082000B5FA77E70220FFF7B3FD00283FF4F2AEF8
:1008300000F09CF900283FF4EDAE00273B4612E0A3
:100840001F2F1AD80C9A013217D027F0030250320A
:100850006A4452F8200C07900422184607A900F0B9
:100860000DFB04370346DBF80820BA42E8D80793AB
:10087000042107A800F006F915E73846029300F0B6
:100880002DF9029BE7E70023642106A8069300F0F8
:10089000F1F800287FF4BEAE0220FFF779FD0028B2
:1008A0003FF4B8AE069800F049F90790E0E700235E
:1008B000642106A8069300F0DDF800287FF4AAAEB4
:1008C0000220FFF765FD00283FF4A4AE069800F073
:1008D00045F9EAE70220FFF75BFD00283FF49AAEF6
:1008E00000F054F9E1E70220FFF752FD00283FF441
:1008F00091AE07A9142000F04FF904210746069095
:1009000006A800F0BFF83946B3E7322000F09EF8A1
:10091000071EFFF67FAEBB077FF47CAEDBF8082036
:1009200007EB080393423FF675AE0220FFF730FD58
:1009300000283FF46FAE27F003074744B8453FF463
:10094000B2AE404600F0CAF80421079007A800F0B4
:1009500099F808F10408F1E74FF47A70FFF718FDF1
:1009600000283FF457AE00F001F900283FF4E2AE52
:100970000C9B01330CD008220CA9002000F0C2F916
:1009800000283FF4D7AE2022FF210CA800F0B2F9D6
:10099000FFF706FD194800F0E9FF15B0BDE8F08F3C
:1009A000002C3FF437AE0AF00B030B2B7FF432AE72
:1009B0000023642107A8079300F05CF8074600288D
:1009C0007FF428AE0220FFF7E3FC029000283FF4FA
:1009D00021AEFFF7E5FC41F2883000F0C7FF079831
:1009E00000F008FA00F0D2F9029B3D461C46C2E531
:1009F0004FF000080EE600BF40220020A086010054
:100A000070B50F4B1B780133DBB2012B05460C464A
:100A100010D80C4801684FF47A730E6AA2FB0332B7
:100A200029462246B047844204D1074B00221A705F
:100A3000012070BD4FF4FA7000F098FF0020F8E735
:100A400010220020E02700209423002007B5002377
:100A5000024601210DF107008DF80730FFF7D0FFA6
:100A600020B19DF8070003B05DF804FB4FF0FF30A4
:100A7000F9E7000008B50A460421FFF7C1FF013875
:100A800008BD000030B4054604480368DC69044B27
:100A90000A46A446294630BC604700BFE027002034
:100AA000A086010070B501F00BFA094E094C3080A8
:100AB000002520683388834208D901F0FBF92368B8
:100AC00005440133B5F5803F2360F2D370BD00BF0C
:100AD0008C2300209023002001F0B0BA00F10060C8
:100AE00000F580300068704700F10060920000F56A
:100AF000803001F033BA0000054B1A68054B1B88A3
:100B00009B1A834202D9104401F0D4B900207047E7
:100B1000902300208C23002038B5074D0446286818
:100B2000204401F0CFF928B928682044BDE83840B6
:100B300001F0E0B938BD00BF90230020034610F05B
:100B4000030009D1B3F5047F07D203F10053A3F5E5
:100B50001043D3F8000870470020704700F10050A0
:100B6000A0F51040D0F8100A70470000064991F82F
:100B7000243033B10023086A81F824300822FFF7BB
:100B8000B3BF0120704700BF64230020014B1868E9
:100B9000704700BF002004E070B52A4B1B68C3F308
:100BA0000B0204461B0C62B140F21340824234D067
:100BB00040F21940824232D040F22140824230D18C
:100BC0000322214D0C2000FB0252556842F2010223
:100BD000934228D0B3F5805F27D041F201029342BF
:100BE00025D041F20302934223D041F207029342FF
:100BF0000CBF31233F23013C0C44013D0A46A24275
:100C00001DD215F9016F501CAEB92C258442157008
:100C100001D9901C5370401A70BD0122D1E7022205
:100C2000CFE70A4DD2E73323E5E74123E3E75A2331
:100C3000E1E75923DFE7024600F8016CDFE71046E1
:100C4000E9E700BF002004E0383400080C34000855
:100C5000022804D1054B4FF080429A617047012869
:100C6000FCD1024B4FF00052F7E700BF00000240FA
:100C7000022804D1054B4FF480429A617047012845
:100C8000FCD1024B4FF40052F7E700BF00000240D6
:100C9000022805D1064A536983F4804353617047A3
:100CA0000128FCD1024A536983F40053F6E700BFE0
:100CB0000000024010B50023934200D110BDCC5C6F
:100CC000C4540133F8E7000010B5013810F9013FB2
:100CD0003BB191F900409C4203D11AB10131013A74
:100CE000F4E71AB191F90020981A10BD1046FCE7FC
:100CF000FFF7FEBF02440346934200D1704703F85A
:100D0000011BF9E72DE9F8431F4D144695F82420FF
:100D10000746884622B9DFF870906CB9012009E0D7
:100D20002B6A03EB82038342F5D0FFF71FFF0028F5
:100D3000F1D10020BDE8F88395F824302BB92022AA
:100D4000FF2148462F62FFF7D5FF95F82400C0F138
:100D50000802A24228BF2246D6B24146920005EBC5
:100D60008000FFF7A7FF95F82430A41B1E44F6B2BD
:100D7000082E17449044E4B285F82460CDD1FFF7E3
:100D8000F5FE0028C9D1D4E764230020024B1A786D
:100D9000024B1A70704700BF9423002010220020DD
:100DA00038B5104D104C284600F0F8F8214628467A
:100DB00000F020F924680D48626DD2F8043843F041
:100DC0000203C2F8043800F0D1FD0949204600F0C2
:100DD00015FA626DD2F8043823F00203C2F8043821
:100DE00038BD00BFE0270020E434000840420F0077
:100DF000EC3400087047000000B59BB0EFF30981A8
:100E000068226846FFF756FFEFF30583044B9A6BA1
:100E1000DA6A9A6A9A6A9A6A9A6A9A6A9B6AFEE790
:100E200000ED00E000B59BB0EFF309816822684651
:100E3000FFF740FFEFF30583044B9A6B9A6A9A6AB7
:100E40009A6A9A6A9A6A9B6AFEE700BF00ED00E020
:100E500000B59BB0EFF3098168226846FFF72AFFCF
:100E6000EFF30583034B5A6B9A6A9A6A9A6A9A6AF5
:100E70009B6AFEE700ED00E0FEE7000030B5094D9B
:100E80000A44914200D130BD11F8013B584008237B
:100E900040F30004013B2C4013F0FF0384EA5000B0
:100EA000F6D1EEE72083B8ED026843680A4302609A
:100EB00003B118477047000013B5446BD4F894345D
:100EC0001A681178042915D1217C022912D11979C7
:100ED000128901238B4013420CD101A904F14C006B
:100EE00001F018FFD4F89444019B21790246206850
:100EF00000F0CCF902B010BD143001F0A1BE00002A
:100F00004FF0FF33143001F09BBE00004C3001F075
:100F10006DBF00004FF0FF334C3001F067BF0000A1
:100F2000143001F06FBE00004FF0FF31143001F0BB
:100F300069BE00004C3001F039BF00004FF0FF32B5
:100F40004C3001F033BF00000020704710B5D0F8DE
:100F500094341A6811780429044617D1017C0229B7
:100F600014D15979528901238B4013420ED1143088
:100F700001F002FE024648B1D4F894044FF48073A5
:100F800041790068BDE8104000F06EB910BD000066
:100F9000406BFFF7DBBF0000704700007FB5124BCE
:100FA000036000234360C0E90233012502260F4B92
:100FB000057404460290019300F1840229460096CC
:100FC0004FF48073143001F0B3FD094B0294CDE966
:100FD000006304F523724FF48073294604F14C003A
:100FE00001F074FE04B070BD68340008910F000871
:100FF000B90E00080B68202282F311880A7903EBEE
:10100000820290614A79093243F822008A7912B14A
:1010100003EB8203986102230374C0F89414002345
:1010200083F311887047000038B5037F044613B17D
:1010300090F85430ABB9201D01250221FFF734FF91
:1010400004F1140025776FF0010100F0B7FC84F87B
:10105000545004F14C006FF00101BDE8384000F03D
:10106000ADBC38BD10B5012104460430FFF71CFFAC
:101070000023237784F8543010BD000038B50446AF
:101080000025143001F06CFD04F14C00257701F0CF
:1010900035FE201D84F854500121FFF705FF20463E
:1010A000BDE83840FFF752BF90F8443003F06003CA
:1010B000202B05D190F84530212B03D81F2B0BD8BE
:1010C00000207047222BFBD100231A46C0E90E32C4
:1010D0000023036401207047014B0722F6E700BF9D
:1010E0001122002037B5D0F894341A6811780429F9
:1010F00004461AD1017C022917D1197912890123DA
:101100008B40134211D100F14C05284601F0B4FE8A
:1011100058B101A9284601F0FDFDD4F89444019B83
:1011200021790246206800F0B1F803B030BD00001C
:1011300000EB8103F7B59E6904460D46F6B1202306
:1011400083F3118804EB8507301D0821FFF7ACFEFF
:10115000FB685B691B684C3613B1304601F0E8FD53
:1011600001A9304601F0D6FD024648B1019B29464F
:10117000204600F08BF8002383F3118803B0F0BD04
:10118000FB685A691268002AF5D01B8A013B13409C
:10119000F1D104F14402EAE7093138B550F82140B1
:1011A000DCB1202383F31188D4F894241368527996
:1011B00003EB8203DB689B695D6845B1042160181D
:1011C000FFF772FE294604F1140001F0DFFC20460F
:1011D000FFF7BCFE002383F3118838BD7047000081
:1011E00001F09EB8012303700023C0E90133C361FD
:1011F00083620362C36243620363704738B5044687
:10120000202383F311880025C0E90355C0E9055563
:10121000416001F095F80223237085F3118838BDF1
:1012200070B500EB810305465069DA600E4614463E
:1012300018B110220021FFF75DFDA06918B110223E
:101240000021FFF757FD31462846BDE8704001F008
:1012500041B90000826802F0011282600022C0E9F8
:101260000422826101F0C0B9F0B400EB8104478927
:10127000E4680125A4698D403D4345812360002336
:10128000A2606360F0BC01F0DBB90000F0B400EBD9
:1012900081040789E468012564698D403D43058127
:1012A00023600023A2606360F0BC01F053BA000029
:1012B00070B50223002504460370C0E90255C0E959
:1012C0000455C564856180F8345001F09FF8636867
:1012D0001B6823B129462046BDE87040184770BD01
:1012E000037880F850300523037043681B6810B5FD
:1012F00004460BB1042198470023A36010BD0000F1
:1013000090F85020436802701B680BB10521184704
:101310007047000070B590F83430044613B10023D4
:1013200080F8343004F14402204601F07FF963680C
:101330009B68B3B994F8443013F0600535D00021B0
:10134000204601F0C1FB0021204601F0B3FB636899
:101350001B6813B1062120469847062384F83430D1
:1013600070BD204698470028E4D0B4F84A30E26BBC
:101370009A4288BFE36394F94430E56B002B4FF049
:10138000200380F20381002D00F0F280092284F80E
:10139000342083F311880021D4E90E232046FFF77F
:1013A00075FF002383F31188DAE794F8452003F0F2
:1013B0007F0343EA022340F20232934200F0C580E9
:1013C00021D8B3F5807F48D00DD8012B3FD0022B18
:1013D00000F09380002BB2D104F14C02A2630222F0
:1013E000E2632364C1E7B3F5817F00F09B80B3F52E
:1013F000407FA4D194F84630012BA0D1B4F84C30F2
:1014000043F0020332E0B3F5006F4DD017D8B3F5C7
:10141000A06F31D0A3F5C063012B90D8636894F816
:1014200046205E6894F84710B4F848302046B0472C
:10143000002884D04368A3630368E3631AE0B3F52C
:10144000106F36D040F6024293427FF478AF5C4B87
:10145000A3630223E3630023C3E794F84630012B20
:101460007FF46DAFB4F84C3023F00203C4E90E559D
:10147000A4F84C30256478E7B4F84430B3F5A06F95
:101480000ED194F8463084F84E30204601F016F81C
:1014900063681B6813B1012120469847032323701A
:1014A0000023C4E90E339CE704F14F03A363012337
:1014B000C3E72378042B10D1202383F3118820461F
:1014C000FFF7C8FE85F311880321636884F84F5045
:1014D00021701B680BB12046984794F84630002BCA
:1014E000DED084F84F300423237063681B68002B20
:1014F000D6D0022120469847D2E794F848301D06FE
:1015000003F00F0120460AD501F082F8012804D02B
:1015100002287FF414AF2B4B9AE72B4B98E701F08E
:1015200069F8F3E794F84630002B7FF408AF94F89D
:10153000483013F00F01B3D01A06204602D501F04F
:10154000D7FAADE701F0CAFAAAE794F84630002BC3
:101550007FF4F5AE94F8483013F00F01A0D01B06CD
:10156000204602D501F0B0FA9AE701F0A3FA97E716
:10157000142284F8342083F311882B462A46294606
:101580002046FFF771FE85F31188E9E65DB115226B
:1015900084F8342083F311880021D4E90E232046F7
:1015A000FFF762FEFDE60B2284F8342083F31188F6
:1015B0002B462A4629462046FFF768FEE3E700BF90
:1015C00098340008943400089034000838B590F836
:1015D00034300446002B3ED0063BDAB20F2A34D812
:1015E0000F2B32D8DFE803F03731310822323131A6
:1015F0003131313131313737C56BB0F84A309D4226
:1016000014D2C3681B8AB5FBF3F203FB12556DB904
:10161000202383F311882B462A462946FFF736FEFE
:1016200085F311880A2384F834300EE0142384F8FB
:101630003430202383F3118800231A4619462046AC
:10164000FFF712FE002383F3118838BD036C03B14A
:1016500098470023E7E70021204601F035FA0021F2
:10166000204601F027FA63681B6813B10621204663
:1016700098470623D7E7000010B590F83430142BB4
:10168000044629D017D8062B05D001D81BB110BDB0
:10169000093B022BFBD80021204601F015FA00215E
:1016A000204601F007FA63681B6813B10621204643
:1016B0009847062319E0152BE9D10B2380F8343025
:1016C000202383F3118800231A461946FFF7DEFD15
:1016D000002383F31188DAE7C3689B695B68002BFA
:1016E000D5D1036C03B19847002384F83430CEE79A
:1016F000024B0022C3E900339A6070479823002010
:10170000002303748268054B1B6899689142FBD2E1
:101710005A68036042601060586070479823002048
:1017200008B5202383F31188037C032B05D0042BF9
:101730000DD02BB983F3118808BD436900221A60CC
:101740004FF0FF334361FFF7DBFF0023F2E7D0E9FF
:10175000003213605A60F3E7002303748268054B7C
:101760001B6899689142FBD85A6803604260106018
:101770005860704798230020054B19690874186851
:1017800002681A605360186101230374FEF7BEBD3E
:101790009823002030B54B1C0B4D87B0044610D069
:1017A0002B690A4A01A800F025F92046FFF7E4FF5B
:1017B000049B13B101A800F059F92B69586907B0CF
:1017C00030BDFFF7D9FFF8E7982300202117000864
:1017D00038B50C4D41612B6981689A689142044685
:1017E00003D8BDE83840FFF78BBF1846FFF7B4FFBA
:1017F00001232C61237401462046BDE83840FEF7E2
:1018000085BD00BF98230020044B1A681B699068AF
:101810009B68984294BF00200120704798230020C5
:1018200010B5084C236820691A68226054600122B0
:1018300023611A74FFF790FF01462069BDE810404C
:10184000FEF764BD9823002008B5FFF7DDFF18B14F
:10185000BDE80840FFF7E4BF08BD0000FFF7E0BFA8
:10186000FEE7000010B50C4CFFF742FF00F0B4F8A3
:101870000A498022204600F03BF8012344F8180C66
:10188000037400F067FC002383F3118862B60448F8
:10189000BDE8104000F04CB8C02300209C34000884
:1018A000AC34000800F01CB9EFF3118020B9EFF35D
:1018B0000583202282F311887047000010B530B9EB
:1018C000EFF30584C4F3080414B180F3118810BD4C
:1018D000FFF7BAFF84F31188F9E70000034A516863
:1018E00053685B1A9842FBD8704700BF001000E0B5
:1018F00082600222028270478368A3F17C0243F86F
:101900000C2C026943F83C2C426943F8382C074AF6
:1019100043F81C2CC26843F8102C022203F8082C50
:10192000002203F8072CA3F11800704725030008D4
:1019300010B5202383F31188FFF7DEFF0021044652
:10194000FFF746FF002383F31188204610BD0000F7
:10195000024B1B6958610F20FFF70EBF9823002030
:10196000202383F31188FFF7F3BF000008B5014679
:10197000202383F311880820FFF70CFF002383F353
:10198000118808BD49B1064B42681B6918605A604E
:10199000136043600420FFF7FDBE4FF0FF30704737
:1019A0009823002003460068834205D002681A602D
:1019B00053604161FFF7A4BE7047000038B504468C
:1019C0000D462068844200D138BD036823605C6006
:1019D0004561FFF795FEF4E7054B03F11402C3E9F7
:1019E00005224FF0FF310022C3E90712704700BF04
:1019F00098230020F8B51C4FC0E9032305460E4686
:101A000001F06CFA3A4652F8143F93420DD1386215
:101A1000C5E901362B600A2E2CBF80190A30C7E9B0
:101A20000555BDE8F84001F047BA3A6A9B68841A48
:101A3000341928BF3446A34202D9101901F04AFADA
:101A40007B699A6894420CD85A68AC602B606A60D3
:101A500015609A685D60121B9A604FF0FF33FB615E
:101A6000F8BD1B68A41AECE79823002038B51B4C7E
:101A7000636998420DD0D0E9003213605A600022A9
:101A80008168C2609A680A449A604FF0FF33E3614C
:101A900038BD2246036842F8143F002193425A6041
:101AA000C16003D1BDE8384001F00EBA9A68816880
:101AB000256A0A449A6001F011FA63699B68421B27
:101AC0009342E5D91D442D1A092D206A98BF02F1D1
:101AD0000A031844BDE8384001F0FCB998230020FF
:101AE0002DE9F041184C002704F11406656901F056
:101AF000F5F9236AAA68C11A8A4215D813442362E9
:101B0000D5E9003213605A606369D5F80C80EF6044
:101B1000B34201D101F0D8F987F311882869C04791
:101B2000202383F31188E1E76169B14209D01344AE
:101B30001B1ABDE8F0410A2B2CBFC0180A3001F077
:101B4000C9B9BDE8F08100BF98230020002070478C
:101B5000FEE70000704700004FF0FF3070470000C4
:101B600002290CD0032904D00129074818BF0020FE
:101B70007047032A05D8054800EBC20070470448A7
:101B800070470020704700BF9435000818220020DD
:101B90004835000870B59AB00546084601A91446B4
:101BA00000F0BEF801A8FFF7A3F8431C5B00C5E9ED
:101BB00000340022237003236370C6B201AB0234E9
:101BC0001046D1B28E4204F1020401D81AB070BDA1
:101BD00013F8011B04F8021C04F8010C0132F0E7B1
:101BE00008B5202383F311880348FFF77BFA00230D
:101BF00083F3118808BD00BFE027002090F844302F
:101C000003F01F02012A03D190F845200B2A17D0B8
:101C100003F06003202B08D1B0F848302BB990F8BE
:101C20004520212A03D81F2A0CD8FFF73DBA222AC3
:101C3000FBD11A46C0E90E3200230364012070472D
:101C40000023F6E7014B0722F4E700BF382200200B
:101C500010B50446052916D8DFE801F0161503165D
:101C6000161D202383F311880E4A0121FFF7D8FAAD
:101C700020460D4A0221FFF7D3FA0C48FFF7FEF980
:101C8000002383F3118810BD202383F311880748B4
:101C9000FFF7CAF9F4E7202383F311880348FFF71D
:101CA000E1F9EDE720350008FC340008E0270020CA
:101CB00038B50B4D0B4C0C492A462046FFF76AFFFE
:101CC00005F1CA0204F108000849FFF763FF05F5B2
:101CD000CA7204F110000649BDE83840FFF75ABF48
:101CE0008025002020220020C4340008CE340008C3
:101CF000D934000870B5044608460D46FEF7F8FFD3
:101D0000C6B22046013403780BB9184670BD32467E
:101D10002946FEF7D9FF0028F3D10120F6E700009D
:101D20002DE9F04105460C46FEF7E2FF2A49C6B20E
:101D30002846FFF7DFFF08B10736F6B227492846E5
:101D4000FFF7D8FF08B11036F6B2632E07D8224F3E
:101D5000DFF888802E7846B92670BDE8F0812946E4
:101D60002046BDE8F04101F049BB252E30D10722C5
:101D700039462846FEF7A8FF70B9194B224603F1F1
:101D80000C0153F8040B42F8040B8B42F9D11B8869
:101D9000138007350E34DDE7082241462846FEF75A
:101DA00093FFA8B90F4B1048104EA21C19780909CF
:101DB0000232415C02F8041C13F8011B01F00F0110
:101DC000B342415C02F8031CF0D118340835C1E776
:101DD00004F8016B0135BDE7B0350008D9340008BF
:101DE000B8350008107AFF1FC73500081C7AFF1F9E
:101DF000BFF34F8F024AD368DB03FCD4704700BFA8
:101E0000003C024008B5094B1B7873B9FFF7F0FF9F
:101E1000074B1A69002ABFBF064A5A6002F188328E
:101E20005A601A6822F480621A6008BD782C00207B
:101E3000003C02402301674508B50B4B1B7893B962
:101E4000FFF7D6FF094B1A6942F000421A611A687F
:101E500042F480521A601A6822F480521A601A689A
:101E600042F480621A6008BD782C0020003C0240D9
:101E70000B28F0B515D80C4C0C49237873B90C4DD0
:101E80000E464FF00062013355F8047B46F8042BF0
:101E9000DBB20C2B3A44F6D10123237051F8200019
:101EA000F0BD0020FCE700BF792C00207C2C002036
:101EB000D8350008014B53F820007047D83500088A
:101EC0000C2070470B2810B5044601D9002010BD26
:101ED000FFF7CEFF064B53F824301844C21A0BB953
:101EE0000120F4E712680132F0D1043BF6E700BFAD
:101EF000D83500080B2838B5044628D8FFF7D4FC9D
:101F0000FFF776FFFFF77EFF124AF323D360E3006B
:101F1000DBB243F4007343F002031361136943F42B
:101F20008033136105462046FFF762FFFFF7A0FFED
:101F3000094B53F8241000F0E5F82846FFF77CFF22
:101F4000FFF7BCFC2046BDE83840FFF7BBBF0020D0
:101F500038BD00BF003C0240D83500082DE9F041F3
:101F60000E46D107054614464AD48318B3F1016FD3
:101F700046D8304B1B68DA0742D52F4FFFF794FC49
:101F8000FFF740FFF323FB60FFF732FF314640F2DB
:101F90000128032C18D824F00104274E0C446D1A94
:101FA00040F20118A142336901EB05072AD123F061
:101FB00001033361FFF740FFFFF780FC0120BDE81C
:101FC000F081043C0435E4E7AB07E4D13B6923F43A
:101FD00040733B613B6943EA08033B6151F8046B82
:101FE0002E60BFF34F8FFFF703FF2B689E42E8D0B0
:101FF0003B6923F001033B61FFF71EFFFFF75EFC27
:102000000020DCE723F440733361336943EA0803BB
:1020100033610B883B80BFF34F8FFFF7E9FE3F88AA
:1020200031F8023BBFB2BB42BCD0336923F001039D
:102030003361E1E700380240003C0240084908B53E
:102040000B7828B11BB9FFF7DDFE01230B7008BD2B
:10205000002BFCD0BDE808400870FFF7EDBE00BFC4
:10206000782C002010B50244064BD2B2904200D129
:1020700010BD441C00B253F8200041F8040BE0B23C
:10208000F4E700BF502800400F4B30B51C6F24040C
:1020900007D41C6F44F400741C671C6F44F40044A4
:1020A0001C670A4C236843F4807323600244084B86
:1020B000D2B2904200D130BD441C00B251F8045B52
:1020C00043F82050E0B2F4E70038024000700040CE
:1020D0005028004007B5012201A90020FFF7C2FFE8
:1020E000019803B05DF804FB13B50446FFF7F2FF57
:1020F000A04205D0012201A900200194FFF7C4FFEE
:1021000002B010BD70470000034B1A681AB9034AA9
:10211000D2F874281A607047AC2C002000300240BE
:1021200008B5FFF7F1FF024B1868C0F3407008BD17
:10213000AC2C0020EFF3098305494A6B22F0010221
:102140004A63683383F30988002383F31188704757
:1021500000EF00E0202080F3118862B60C4B0D4A9E
:10216000D96821F4E0610904090C0A43DA60D3F864
:10217000FC20094942F08072C3F8FC200A6842F052
:1021800001020A601022DA7783F82200704700BF4C
:1021900000ED00E00003FA05001000E010B5202378
:1021A00083F311880E4B5B6813F4006314D0F1EED7
:1021B000103AEFF30984683C4FF08073E361094BF8
:1021C000DB6B236684F30988FFF71EFB10B1064B17
:1021D000A36110BD054BFBE783F31188F9E700BF4E
:1021E00000ED00E000EF00E0370300083A030008CC
:1021F00070470000FEE700000A4B0B480B4A904274
:102200000BD30B4BDA1C121AC11E22F003028B42B5
:1022100038BF00220021FEF76DBD53F8041B40F8C3
:10222000041BECE778370008A82D0020A82D00201B
:10223000A82D00207047000070B5D0E915439E68B6
:1022400000224FF0FF3504EB42135101D3F800098F
:102250000028BEBFD3F8000940F08040C3F8000951
:10226000D3F8000B0028BEBFD3F8000B40F080402D
:10227000C3F8000B01326318B242C3F80859C3F81F
:10228000085BE0D94FF00113C4F81C3870BD0000A2
:102290001D4B03EB80022DE9F043D2F80CC05D6DBD
:1022A000DCF81420461CD2F800E005EB063605EBFE
:1022B00040185168714509D3D5F83438012282405D
:1022C00023EA0203C5F83438BDE8F083BCF81040B7
:1022D000AEEB0103A34228BF2346D8F81849A4B2A5
:1022E000B3EB840FF0D89468A4F1040959F8047F83
:1022F0003760A4EB09071F44042FF7D81C44194486
:1023000094605160D5E700BFC82C0020890141F0DE
:102310002001016103699B06FCD41220FFF7DEBA9D
:1023200010B5054C2046FEF75DFF4FF0A0436365F6
:10233000024BA36510BD00BFC82C00200836000862
:1023400070B50378012B054650D12A4B446D984255
:102350001BD1294B5A6B42F080025A635A6D42F0EE
:1023600080025A655A6D5A6942F080025A615A6970
:1023700022F080025A610E2143205B6900F0C2FB0B
:102380001E4BE3601E4BC4F800380023C4F8003E27
:10239000C02323606E6D4FF40413A3633369002BD5
:1023A000FCDA012333610C20FFF798FA3369DB076D
:1023B000FCD41220FFF792FA3369002BFCDA0026D6
:1023C000A6602846FFF738FF6B68C4F81068DB6822
:1023D000C4F81468C4F81C684BB90A4BA3614FF0E9
:1023E000FF336361A36843F00103A36070BD064B34
:1023F000F4E700BFC82C0020003802404014004021
:1024000003002002003C30C0083C30C0F8B5446DE9
:10241000054600212046FFF779FFA96D00234FF004
:1024200001128F68C4F834384FF00066C4F81C28D5
:102430004FF0FF3004EB43120133BB42C2F8006996
:10244000C2F8006BC2F80809C2F8080BF2D90B6891
:102450006A6DEB65636210231361166916F010064E
:10246000FBD11220FFF73AFAD4F8003823F4FE63C8
:10247000C4F80038A36943F4402343F01003A36178
:102480000923C4F81038C4F814380A4BEB604FF035
:10249000C043C4F8103B084BC4F8003BC4F81069B3
:1024A000C4F80039EB6D03F1100243F48013EA65C0
:1024B000A362F8BD1436000840800010426D90F809
:1024C0004E10D2F8003823F4FE6343EA0113C2F839
:1024D000003870472DE9F84300EB81030C460FFAF2
:1024E00081F9D968456D0E6806F00306731E022B4C
:1024F00005EB44134FF00002C3F8102B04F1100257
:102500004FF0010398BFB60403FA02F38A698CBF47
:10251000334E06F18056804698BF06F500466001AE
:10252000002A39D04F8A04F1580252013743AF5084
:10253000D5F81C281343C5F81C382B180022C3F803
:1025400010294A690127631EA74092B30A8A898B22
:102550009208012988BF4A434033D8F85C1005EB44
:102560008303501841EA0241C8F85C0059602846CC
:102570002146FFF7CBFE08EB8900C3681B8A43EABC
:1025800084534834640133432B51D5F81C383B4302
:10259000C5F81C38BDE8F88305EB4917D7F8002BC0
:1025A00022F40042C7F8002BD5F81C2822EA0303C6
:1025B000C1E704F13F0305EB83030A4A5A60214651
:1025C0002846FFF7A3FE05EB4913D3F8002922F4B0
:1025D0000042C3F80029D5F81C3823EA0703D7E7DF
:1025E0000080001000040002826D1268C265FFF7CF
:1025F00023BE00005831436D49015B5813F400407D
:1026000004D013F4001F14BF012002207047000003
:102610004831436D49015B5813F4004004D013F472
:10262000001F14BF012002207047000000EB810052
:10263000C368196A0B6813604B68536070470000E9
:1026400000EB810330B5DD68AA691368D36019B95E
:10265000402B84BF402313606B8A1468426D1C4476
:10266000013CB4FBF3F46343033323F0030302EBB5
:10267000411043EAC44343F0C043C0F8103B2B6809
:1026800003F00303012B09B20ED1D2F8083802EB94
:10269000411013F4807FD0F8003B14BF43F0805307
:1026A00043F00053C0F8003B02EB4112D2F8003B6C
:1026B00043F00443C2F8003B30BD00002DE9F04177
:1026C000234D6E6D06EB40130446D3F8087BC3F828
:1026D000087B38070AD5D6F81438190706D505EB54
:1026E00084032146DB6828465B689847FA071FD5B4
:1026F000D6F81438DB071BD505EB8403D9688B6942
:10270000C4B9488A5A68B2FBF0F600FB16228AB9AF
:102710001868DA6890420DD2121AC3E90024202307
:1027200083F311880A482146FFF78AFF84F3118852
:10273000BDE8F0816B890122A24023EA02036B818C
:10274000CB68002BF4D021460148BDE8F041184782
:10275000C82C002000EB810370B5DD68436D6C6907
:102760002668E6604A014EBB1A444FF40020C2F8C6
:1027700010092A6802F00302012A0AB20ED1D3F826
:10278000080803EB421410F4807FD4F8000914BF4A
:1027900040F0805040F00050C4F8000903EB4212B2
:1027A000D2F8000940F00440C2F80009D3F8340818
:1027B00001228A400243C3F8342870BD19B9402E63
:1027C00084BF4020206020682E8A8419013CB4FB1D
:1027D000F6F440EAC44040F000501A44C7E7000055
:1027E000F8B504461D48456D05EB4413D3F8086958
:1027F000C3F80869F10717D5D5F81038DA0713D5EB
:1028000000EB8403D9684B691F68DA68974218D2D5
:10281000D21B00271A605F60202383F311882146B2
:10282000FFF798FF87F31188330616D5D5F83428BB
:102830000123A340134210D02046BDE8F840FFF723
:1028400027BD03890122A24023EA020303818B688A
:10285000002BE9D021469847E6E7F8BDC82C0020B8
:102860002DE9F047924C666D7569B3691D4015F40A
:102870008058756106D02046FEF71AFDBDE8F04786
:10288000FFF78CBC002D12DAD6F8003E88489F076F
:102890001EBFD6F8003E23F00303C6F8003ED6F86C
:1028A000043823F00103C6F80438FEF729FD280593
:1028B00005D57F48FFF7C0FC7D48FEF711FDA90450
:1028C0000CD5D6F8083813F0060FF36823F47053CC
:1028D0000CBF43F4105343F4A053F3602A0704D50C
:1028E0006368DB680BB172489847EB0235D500216D
:1028F000D4F854900F4609EB4713D3F8002902F49B
:102900004022B2F5802F21D1D3F80029002A1DDA08
:10291000D3F8002942F09042C3F80029D3F80029E7
:10292000002AFBDB606DFFF7F1FC23890122BA402E
:1029300023EA0203238104EB8703DB689B6813B15E
:102940005B48394698473846FFF7A2FCA36D01372C
:102950009B68FFB29F423946CDD9AF0225D5D4F846
:10296000549000274FF0010A09EB4712D2F8003BC0
:1029700003F44023B3F5802F11D1D2F8003B002B94
:102980000DDA63890AFA07F223EA0203638104EB92
:102990008703DB68DB6813B1454839469847A36D68
:1029A00001379B68FFB29F42DED9E80616D5676DF6
:1029B0003A6AC2F30A1002F00F0302F4F012B2F501
:1029C000802F4AD0B2F5402F08D104EB83030022B8
:1029D000DB681B6A07F58057904230D12903D6F88F
:1029E000184813D5E20302D50020FFF767FEA303C2
:1029F00002D50120FFF762FE670302D50220FFF730
:102A00005DFE260302D50320FFF758FE6D037FF518
:102A100035AFE00702D50020FFF7E2FEA10702D59F
:102A20000120FFF7DDFE620702D50220FFF7D8FE86
:102A300023077FF523AF0320FFF7D2FE1EE79107A0
:102A400008BFD7F80080072A98BF03F8018B02F16E
:102A5000010298BF4FEA1828BEE7023304EB830255
:102A600007F580575268D2F818C0DCF80820DCE976
:102A7000001CA1EB0C0C002188420AD104EB83045A
:102A800063689B699A6802449A605A6802445A6073
:102A9000A4E711F0030F08BFD7F800808C4588BF6A
:102AA00002F8018B01F1010188BF4FEA1828E3E722
:102AB000C82C0020436D03EB4111D1F8003B43F4D7
:102AC0000013C1F8003B7047436D03EB4111D1F88F
:102AD000003943F40013C1F800397047436D03EB2C
:102AE0004111D1F8003B23F40013C1F8003B7047BB
:102AF000436D03EB4111D1F8003923F40013C1F801
:102B00000039704700F1604303F561430901C9B220
:102B100083F80013012200F01F039A4043099B0031
:102B200003F1604303F56143C3F880211A607047E5
:102B300030B5039C0172043304FB0325C0E906533E
:102B4000049B03630021059BC160C0E90000C0E94C
:102B50000422C0E90842C0E90A11436330BD000005
:102B6000416A0022C0E90411C0E90A22C2606FF084
:102B70000101FEF723BF0000D0E90432934201D1E6
:102B8000C2680AB9181D70470020704703691960B0
:102B9000C2680132C260C269134482690361934210
:102BA00024BF436A03610021FEF7FCBE38B504462A
:102BB0000D46E3683BB16269131D1268A3621344BA
:102BC000E362002007E0237A33B929462046FEF766
:102BD000D9FE0028EDDA38BD6FF00100FBE70000F8
:102BE000C368C269013BC36043691344826943619E
:102BF000934224BF436A436100238362036B03B1A2
:102C00001847704770B52023044683F31188866AFD
:102C10003EB9FFF7CBFF054618B186F31188284669
:102C200070BDA36AE26A13F8015BA362934202D308
:102C30002046FFF7D5FF002383F31188EFE700005C
:102C40002DE9F84F04460F4691469A464FF020086A
:102C500088F311880026B346A56A4DB9514620462F
:102C6000FFF7A4FF20B185F311883046BDE8F88F47
:102C7000D4E90A15A9EB06036D1A9D4228BF1D462B
:102C8000402D1AD93B4601F1400251F8040B43F89C
:102C9000040B9142F9D1A36A403740334036E26ACF
:102CA000A3629A4202D82046FFF79AFF8BF311885D
:102CB0004E45DAD288F31188CEE738462A46FDF72A
:102CC000F9FFA36A2F442B442E44E8E710B5029C79
:102CD0000172043304FB0321C0E906130023C0E999
:102CE0000A33039B0363049BC460C0E90000C0E98E
:102CF0000422C0E90842436310BD0000026AC260BA
:102D0000426AC0E904220022C0E90A226FF00101F0
:102D1000FEF754BE0346D0E90420824201D1DB68AD
:102D20001BB950F8043B0B6070470020704700004F
:102D3000C368C2690133C360436913448269436154
:102D4000934224BF436A43610021FEF72BBE00007B
:102D500038B504460D46E3683BB123691A1DA262EB
:102D6000E2691344E362002007E0237A33B929467D
:102D70002046FEF707FE0028EDDA38BD6FF00100AF
:102D8000FBE7000003691960C268013AC260C269CA
:102D9000134482690361934224BF436A03610023A1
:102DA0008362036B03B118477047000070B520239E
:102DB0000D460446114683F31188866A2EB9FFF743
:102DC000C7FF10B186F3118870BDA36A1D70A36A96
:102DD000E26A01339342A36204D3E16920460439D5
:102DE000FFF7D0FF002080F31188EDE72DE9F84FC1
:102DF00005460C4691469A464FF0200888F3118804
:102E00000027BB46AE6A4EB951462846FFF7A0FFE1
:102E100020B186F311883846BDE8F88FD5E90A0657
:102E2000A9EB0703361A9E4228BF1E46402E1AD928
:102E300004F1400354F8042B40F8042B9C42F9D1D0
:102E4000AB6A40374033EA6AAB629A4204D8E96918
:102E500028460439FFF796FF8BF311884F45DAD2E5
:102E600088F31188CEE721463246FDF723FFAB6A8F
:102E7000344433443744E6E7D0E904218A42034628
:102E800016D1C068A8B1986A98B10438801A10D0D9
:102E90001060D9680139D960D9690A4499691A6101
:102EA0008A4224BF5A6A1A6100229A62012070473E
:102EB0000020704700F088B84FF08043002258632C
:102EC0001A610222DA6070474FF080430022DA6014
:102ED000704700004FF08043586370474FF08043C5
:102EE000586A70474B6843608B688360CB68C360E7
:102EF0000B6943614B6903628B6943620B68036032
:102F00007047000008B5264B26481A6940F2FF11A9
:102F10000A431A611A6922F4FF7222F001021A614F
:102F20001A691A6B0A431A631A6D0A431A651E4A14
:102F30001B6D1146FFF7D6FF02F11C0100F5806002
:102F4000FFF7D0FF02F1380100F58060FFF7CAFFFC
:102F500002F1540100F58060FFF7C4FF02F1700137
:102F600000F58060FFF7BEFF02F18C0100F5806084
:102F7000FFF7B8FF02F1A80100F58060FFF7B2FF8C
:102F800002F1C40100F58060FFF7ACFF02F1E0013F
:102F900000F58060FFF7A6FFBDE8084000F09AB892
:102FA00000380240000002403836000808B500F042
:102FB00007FAFEF757FCFFF7A7F8BDE80840FEF751
:102FC00077BE000070470000104B1A6C42F00102FF
:102FD0001A641A6E42F001021A660D4A1B6E93685B
:102FE00043F0010393604FF0804353229A624FF005
:102FF000FF32DA6200229A615A63DA605A60012273
:103000005A6108211A601C20FFF77CBD003802407D
:10301000002004E04FF0804208B51169D3680B40EE
:10302000D9B2C9439B07116107D5202383F31188C7
:10303000FEF738FC002383F3118808BD08B5FFF7BD
:10304000E9FFBDE80840FFF7A9B800001F4B1A6967
:103050006FEAC2526FEAD2521A611A69C2F30802C9
:103060001A614FF0FF301A695A69586100215A6994
:1030700059615A691A6A62F080521A621A6A02F039
:1030800080521A621A6A5A6A58625A6A59625A6AAD
:103090001A6C42F080521A641A6E42F080521A661C
:1030A0001A6E0B4A106840F480701060186F00F4BC
:1030B0004070B0F5007F1EBF4FF48030186719676D
:1030C000536823F40073536000F05AB9003802408B
:1030D00000700040334B4FF080521A64324A4FF474
:1030E000404111601A6842F001021A601A689107A3
:1030F000FCD59A6822F003029A602A4B9A6812F073
:103100000C02FBD1196801F0F90119609A601A6884
:1031100042F480321A601A689203FCD55A6F42F06A
:1031200001025A671F4B5A6F9007FCD51F4A5A601D
:103130001A6842F080721A601B4A53685904FCD521
:10314000184B1A689201FCD5194A9A60194B1A68F3
:10315000194B9A42194B21D1194A1168194A9142C7
:103160001CD140F205121A60144A136803F00F03D1
:10317000052BFAD10B4B9A6842F002029A609A68CA
:1031800002F00C02082AFAD15A6C42F480425A64C6
:103190005A6E42F480425A665B6E704740F2057286
:1031A000E1E700BF003802400070004008544007CB
:1031B00000948838002004E011640020003C0240A4
:1031C00000ED00E041C20F41084A08B5516913689B
:1031D0000B4003F00103536123B1054A13680BB19F
:1031E00050689847BDE80840FEF7D8BF003C014052
:1031F000282D0020084A08B5516913680B4003F0D8
:103200000203536123B1054A93680BB1D068984714
:10321000BDE80840FEF7C2BF003C0140282D002059
:10322000084A08B5516913680B4003F00403536161
:1032300023B1054A13690BB150699847BDE80840AE
:10324000FEF7ACBF003C0140282D0020084A08B51D
:10325000516913680B4003F00803536123B1054A19
:1032600093690BB1D0699847BDE80840FEF796BF57
:10327000003C0140282D0020084A08B55169136818
:103280000B4003F01003536123B1054A136A0BB1DD
:10329000506A9847BDE80840FEF780BF003C0140F7
:1032A000282D0020174B10B55A691C68144004F4EF
:1032B00078725A61A30604D5134A936A0BB1D06A97
:1032C0009847600604D5104A136B0BB1506B9847B2
:1032D000210604D50C4A936B0BB1D06B9847E205DD
:1032E00004D5094A136C0BB1506C9847A30504D55B
:1032F000054A936C0BB1D06C9847BDE81040FEF7BF
:103300004DBF00BF003C0140282D00201A4B10B5D6
:103310005A691C68144004F47C425A61620504D561
:10332000164A136D0BB1506D9847230504D5134A07
:10333000936D0BB1D06D9847E00404D50F4A136E1E
:103340000BB1506E9847A10404D50C4A936E0BB193
:10335000D06E9847620404D5084A136F0BB1506FC2
:103360009847230404D5054A936F0BB1D06F984753
:10337000BDE81040FEF712BF003C0140282D0020A0
:10338000062108B50846FFF7BDFB06210720FFF719
:10339000B9FB06210820FFF7B5FB06210920FFF73E
:1033A000B1FB06210A20FFF7ADFB06211720FFF72E
:1033B000A9FBBDE8084006212820FFF7A3BB0000B9
:1033C00008B5FFF743FE00F00BF8FDF709FFFDF726
:1033D000E3FDFFF7F7FDBDE80840FFF76BBD000018
:1033E0000023054A19460133102BC2E9001102F1EE
:1033F0000802F8D1704700BF282D0020034611F8BD
:10340000012B03F8012B002AF9D1704753544D3397
:1034100032463F3F3F00000053544D333246343074
:10342000780053544D3332463432780053544D3380
:103430003246343436585800000000000C3400087E
:103440003F00000013040000183400083F00000093
:1034500019040000223400083F000000210400008D
:103460002C3400083F00000000000000150F000889
:10347000010F00083D0F0008290F0008350F000854
:10348000210F00080D0F0008F90E0008490F000871
:103490000100000000000000000000006D61696E86
:1034A0000000000069646C6500000000A43400089E
:1034B000D8230020502500200100000061180008DA
:1034C000000000004172647550696C6F7400254201
:1034D0004F415244252D424C002553455249414C01
:1034E00025000000C82C002001010200511C00082A
:1034F000611B0008FD1B0008E11B00080300000021
:1035000000000000DD1100080000000010000000B5
:103510005025002000000000010000000000000015
:10352000020000000000000031110008991100089D
:1035300040004000702500206025002002000000AF
:103540000000000004030904430000005035000897
:1035500009024300020100C0320904000001020216
:1035600001000524001001052401000104240202C9
:103570000524060001070582030800FF0904010075
:10358000020A000000070501024000000705810251
:1035900040000000120000009C35000812011001DC
:1035A000020000400912415700020102030100001D
:1035B00025424F415244250041746F6D52434634B9
:1035C00030354E4156490030313233343536373894
:1035D000394142434445460000400000004000009D
:1035E0000040000000400000000001000000020058
:1035F00000000200000002000000020000000200C3
:1036000000000200000002008000000040010000F5
:10361000030000000000000015130008CD1500088D
:103620007916000840004000B82C0020B82C00207B
:1036300001000000B02C00200001801600000000F6
:10364000AAAAAAAA00010000FF9F00000000000033
:1036500000A00A000010000100000000AAAAAAAA07
:1036600000100001FFFF000000000000000000004B
:103670000000000000000000AAAAAAAA00000000A2
:10368000FFFF00000000000000000000000000003C
:1036900000000000AAAAAAAA00000000FFFF000084
:1036A000000000000000000000000000000000001A
:1036B000AAAAAAAA00000000FFFF00000000000064
:1036C000000000000000000000000000AAAAAAAA52
:1036D00000000000FFFF00000000000000000000EC
:1036E0000000000000000000AAAAAAAA0000000032
:1036F000FFFF0000000000000000000000000000CC
:10370000000000000A0000000000000003000000AC
:1037100000000000000000000000000000000000A9
:103720000000000000000000000000000000000099
:10373000000000000000000036040000000000004F
:1037400000000F0000000000FF00960000000008CD
:1037500004000000443500080000000000000000E4
:103760000000000000000000000000000000000059
:083770000096000000000800B3
:00000001FF
