:020000040800F2
:100000000006022001020008CD0E00084D0E000877
:10001000A50E00084D0E0008790E00080302000826
:10002000030200080302000803020008612100081F
:10003000030200080302000803020008030200088C
:10004000030200080302000803020008030200087C
:100050000302000803020008E53200080D3300081F
:10006000353300085D3300088533000803020008BB
:10007000030200080302000803020008030200084C
:10008000030200080302000803020008030200083C
:10009000030200080302000803020008AD33000851
:1000A000030200080302000803020008030200081C
:1000B000813400080302000803020008030200085C
:1000C00003020008030200080302000803020008FC
:1000D00003020008030200080302000803020008EC
:1000E000113400080302000803020008030200089C
:1000F00003020008030200080302000803020008CC
:1001000003020008030200080302000803020008BB
:1001100003020008030200080302000803020008AB
:10012000030200080302000803020008030200089B
:10013000030200080302000803020008030200088B
:100140000302000803020008030200081D2900083A
:10015000030200080302000803020008030200086B
:10016000030200080302000803020008030200085B
:10017000030200080302000803020008030200084B
:10018000030200080302000803020008030200083B
:10019000030200080302000803020008030200082B
:1001A000030200080302000803020008030200081B
:1001B000030200080302000803020008030200080B
:1001C00003020008030200080302000803020008FB
:1001D00003020008030200080302000803020008EB
:1001E00003020008030200080302000803020008DB
:1001F00003020008030200080302000803020008CB
:1002000002E000F000F8FEE772B63A4880F3088892
:10021000394880F3098839484EF60851CEF200017A
:10022000086040F20000CCF200004EF63471CEF2CD
:1002300000010860BFF34F8FBFF36F8F40F20000E3
:10024000C0F2F0004EF68851CEF200010860BFF314
:100250004F8FBFF36F8F4FF00000E1EE100A4EF6A4
:100260003C71CEF200010860062080F31488BFF3D1
:100270006F8F02F031F801F0D7FF02F0C9FE4FF0A6
:1002800055301F491B4A91423CBF41F8040BFAE725
:100290001C49194A91423CBF41F8040BFAE71A493C
:1002A0001A4A1B4B9A423EBF51F8040B42F8040B0A
:1002B000F8E700201749184A91423CBF41F8040B67
:1002C000FAE701F0EFFF02F00DFF144C144DAC42C1
:1002D00003DA54F8041B8847F9E700F041F8114CA1
:1002E000114DAC4203DA54F8041B8847F9E701F0DA
:1002F000D7BF0000000602200022022000000008F4
:1003000000000220000602205838000800220220C7
:100310006822022068220220F43102200002000834
:100320000002000800020008000200082DE9F04F5A
:100330002DED108AC1F80CD0D0F80CD0BDEC108A8D
:10034000BDE8F08F002383F311882846A0470020E2
:1003500001F028FBFEE701F0BDFA00DFFEE7000038
:1003600038B500F0A5FC40B1174B6FF07F010022BB
:1003700059720E211A729972DA7201F0B5FE0546B1
:1003800001F0E8FE0446D0B9104B9D4219D001336C
:100390009D4241F2883512BF044600250124002009
:1003A00001F0ACFE0CB100F059F800F025FD00F0B2
:1003B000C1FB284600F0E2F800F050F8F9E700250C
:1003C000EDE70546EBE700BF00220220010007B081
:1003D00008B500F081FBA0F120035842584108BD48
:1003E00007B541F21203022101A8ADF8043000F074
:1003F00091FB03B05DF804FB202310B583F3118853
:100400001248C3680BB101F057FB0023104A4FF4A8
:100410007A710E4801F010FB002383F311880D4C14
:10042000236813B12368013B2360636813B16368D9
:10043000013B6360084B1B7833B9636823B9022022
:1004400000F04CFC3223636010BD00BF6822022024
:10045000F9030008842302207C220220F8B5404AD8
:10046000404B1968013179D004339342F9D13E4DA4
:100470003C4C2A68A24271D33C4B9B6803F1006359
:1004800003F5C0339A4269D2002000F06DFB0220D0
:10049000374B187000F018FC364B1A6C00221A64A7
:1004A000196E1A66196E596C5A64596E5A66596EED
:1004B000596941F080015961596921F08001596100
:1004C0005969196941F000511961196921F0005108
:1004D00019611B6972B6284B1C6020682C68BFF339
:1004E0004F8FBFF36F8F083BC3F88420BFF34F8F4C
:1004F0005A6922F480325A61BFF34F8FD3F88020BB
:1005000043F6E076C2F3C905C2F34E32520102EA65
:10051000060C29464CEA81770139C3F87472F9D286
:10052000203A12F1200FF2D1BFF34F8FBFF36F8F3C
:10053000BFF34F8FBFF36F8F5A6922F400325A61B5
:100540000022C3F85022BFF34F8FBFF36F8F2023D9
:1005500083F31188854680F308882047F8BD00BFE3
:100560002080010800800108048001080022022088
:100570007C2202200038024008ED00E02DE9F04F17
:1005800095B0AA4C2022FF2100900CA8A56800F08D
:10059000D9FBA74A01941378A3B90121A54811708A
:1005A000C360202383F31188C3680BB101F084FA80
:1005B0000023A14A4FF47A719E4801F03DFA0023CE
:1005C00083F31188009B9D4903B10B6000239C4A73
:1005D000009C98469B461E469A4613704B600292BA
:1005E000012000F071FB24B1944B1B68002B00F03C
:1005F0001682002000F070FA0590059B002BF2DBBC
:10060000012000F057FB059B213B162BE8D801A2E7
:1006100052F823F071060008990600082D0700081B
:10062000E1050008E1050008E1050008C107000830
:1006300093090008AD0800080F09000837090008F1
:100640005D090008E10500086F090008E1050008E0
:10065000E109000811070008E1050008250A000863
:100660007D06000811070008E10500080F090008D1
:100670000220FFF7ADFE002840F0FB81009B022125
:1006800007A8B8F1000F08BF1C4641F21233ADF8BD
:100690001C3000F03FFAA3E74FF47A7000F01CFA28
:1006A000071EEBDB0220FFF793FE0028E6D0013F98
:1006B000052F00F2E081DFE807F0030A0D10133682
:1006C0000523042107A8079300F024FA17E004216A
:1006D0005648F9E704215B48F6E704215A48F3E756
:1006E0004FF01C09484609F1040900F03FFA0421C3
:1006F000079007A800F00EFAB9F12C0FF2D10120F3
:100700004FF0000A00FA07F747EA0B0B5FFA8BFB82
:1007100000F068FB26B10BF00B030B2B08BF002485
:10072000FFF75EFE5CE704214848CDE7002EA5D028
:100730000BF00B030B2BA1D10220FFF749FE07465C
:1007400000289BD001203E4E00F00EFA4FF000082A
:100750000220307000F0B8FA5FFA88F9484600F0DD
:1007600013FA044690B1484608F1010800F01CFA5B
:100770000028F1D1B846044641F21213022107A81D
:100780003E46ADF81C3000F0C5F929E701232546A7
:100790000220337000F08EFA019B9B68AB4207D9B0
:1007A000284600F0E3F9013040F068810435F3E7B2
:1007B0000025029BB8463E461D70204B5D60A7E7B2
:1007C000002E3FF45BAF0BF00B030B2B7FF456AF07
:1007D0000220029B187000F077FA322000F07CF9BA
:1007E000B0F10009FFF64AAF19F003077FF446AFF6
:1007F000019A09EB0503926893423FF63FAFB9F5C2
:10080000807F3FF73BAF124BB945039322DD4FF496
:100810007A7000F061F90590059A002AFFF62EAF74
:10082000059A0137039B03F8012BEDE70022022014
:100830008023022068220220F9030008842302207A
:100840007C22022004220220082202200C22022004
:1008500080220220C820FFF7BBFD074600283FF496
:100860000DAF1F2D11D8C5F120020CAB25F00300F0
:1008700084494A45184428BF4A46039200F038FA92
:10088000039AFF217F4800F05DFA4FEAA903C9F3FC
:1008900087027C492846039300F05CFA064600284C
:1008A0003FF46AAF039B05EB830531E70220FFF7B6
:1008B0008FFD00283FF4E2AE00F09EF900283FF4DF
:1008C000DDAE0027B946019B9B68BB4218D91F2F9C
:1008D00011D80C9B01330ED027F0030314AA134444
:1008E00053F8203C07934846042207A9043700F038
:1008F000EFFA8146E7E7384600F038F90790F2E76B
:10090000CDF81C90042107A800F004F900E70023AB
:10091000642106A8069300F0F3F800287FF4AEAE39
:100920000220FFF755FD00283FF4A8AE069800F01E
:100930004DF90790E6E70023642106A8069300F02E
:10094000DFF800287FF49AAE0220FFF741FD00286F
:100950003FF494AE069800F049F9EAE70220FFF769
:1009600037FD00283FF48AAE00F056F9E1E7022097
:10097000FFF72EFD00283FF481AE07A9142000F0F8
:1009800051F907460421069006A800F0C3F839463D
:10099000B9E7322000F0A0F8071EFFF66FAEBB07E4
:1009A0007FF46CAE019A07EB0A03926893423FF61C
:1009B00065AE0220FFF70CFD00283FF45FAE27F084
:1009C00003075744BA453FF4A3AE50460AF1040A60
:1009D00000F0CCF80421079007A800F09BF8F1E79D
:1009E0004FF47A70FFF7F4FC00283FF447AE00F0B4
:1009F00003F9002844D00C9B01330BD008220CA92A
:100A0000002000F0A7F900283AD02022FF210CA8EE
:100A100000F098F9FFF7E4FC1B4800F0C9FF15B09F
:100A2000BDE8F08F002E3FF429AE0BF00B030B2B2B
:100A30007FF424AE0023642107A8079300F060F838
:100A4000074600287FF41AAE0220FFF7C1FC81465A
:100A500000283FF413AEFFF7C3FC41F2883000F0EA
:100A6000A7FF079800F0F0F94E463C4600F0BAF9AF
:100A7000B6E506464CE64FF0000AFFE5B8467BE6D1
:100A8000374679E680220220A08601000F4B70B520
:100A90001C780D460134E4B2012C10D80C4C2368AC
:100AA0001E6A4FF47A7353430A4601462046B04704
:100AB000854204D1074B002201201A7070BD4FF40B
:100AC000FA7000F075FF0020F8E700BF1022022046
:100AD00078250220B8230220002307B50246012111
:100AE0000DF107008DF80730FFF7D0FF20B19DF81A
:100AF000070003B05DF804FB4FF0FF30F9E700009A
:100B00000A46042108B5FFF7C1FF80F00100C0B21A
:100B1000404208BD30B4054C0A46014623682046D1
:100B2000DD69034BAC4630BC604700BF782502202E
:100B3000A086010070B50A4C00250A4E01F0DEF9CE
:100B4000208030682388834208D901F0D1F93368C6
:100B500005440133B5F5C03F3360F2D370BD00BF2B
:100B6000BA2302208C23022001F072BA00F1006047
:100B700000F5C0300068704700F10060920000F599
:100B8000C03001F001BA0000054B1A68054B1B8804
:100B90009B1A834202D9104401F0AAB90020704781
:100BA0008C230220BA23022038B5074D044628685A
:100BB000204401F0A5F928B928682044BDE8384050
:100BC00001F0B6B938BD00BF8C23022010F003033A
:100BD00009D1B0F5846F04D200F10050A0F5712066
:100BE0000368184670470023FBE70000014BC0581C
:100BF000704700BF20F4F01F064991F8243033B14C
:100C000000230822086A81F82430FFF7B5BF0120CD
:100C1000704700BF90230220014B1868704700BF47
:100C2000002004E0204B0246F0B518681F4BC0F3CB
:100C30000B06000C1F885D68BE4293F9084022D065
:100C40009F89BE4221D01F8BBE4206D102240C25B3
:100C500005FB04335D6893F90840B0F5805F16D05A
:100C600041F20103984208BF5A24013A013D0B4664
:100C70000A4493420DD215F9016F581C5EB1034628
:100C800000F8016CF5E70024E1E70124DFE74124E7
:100C9000EBE7184605E02C2590421D7001D2981C08
:100CA0005C70401AF0BD00BF002004E01422022056
:100CB00000207047022803D1024B4FF080629A61F6
:100CC000704700BF000C0240022803D1024B4FF4D2
:100CD00080629A61704700BF000C0240022804D174
:100CE000024A536983F4806353617047000C0240E9
:100CF000002310B5934203D0CC5CC4540133F9E710
:100D000010BD0000013830B510F9013F0C4663B149
:100D100094F9005001319D4207D1551E1AB994F93A
:100D20000020981A30BD2A46EEE7002AF7D1104677
:100D3000F8E7000003460246D01A12F9011B002909
:100D4000FAD1704702440346934202D003F8011BD4
:100D5000FAE770472DE9F843214C154606460F4641
:100D600094F8242072BBDFF87880BDB394F8243067
:100D70002BB92022FF2140462662FFF7E3FF94F8BB
:100D800024003946C0F1080204EB8000AA4228BFC3
:100D90002A465FFA82F99200FFF7AAFF94F82430FE
:100DA000A5EB0905164499441744EDB25FFA89F999
:100DB000B9F1080F84F82490D7D1FFF71DFF002860
:100DC000D3D108E0236A03EB82038342CBD0FFF741
:100DD00013FF0028C7D10020BDE8F8830120FBE7FE
:100DE00090230220024B1A78024B1A70704700BF02
:100DF000B82302201022022010B50F4C0F4800F03B
:100E0000FBF821460D4800F023F924680C48E26EF7
:100E1000D2F8043843F00203C2F8043800F0C8FDE9
:100E20000849204600F01EFAE26ED2F8043823F09A
:100E30000203C2F8043810BD1436000878250220D9
:100E400040420F001C3600087047000000B59BB000
:100E5000EFF3098168226846FFF74AFFEFF3058345
:100E6000044B9A6BDA6A9A6A9A6A9A6A9A6A9A6AD6
:100E70009B6AFEE700ED00E000B59BB0EFF309814F
:100E800068226846FFF734FFEFF30583044B9A6B43
:100E90009A6A9A6A9A6A9A6A9A6A9B6AFEE700BF95
:100EA00000ED00E000B59BB0EFF3098168226846D1
:100EB000FFF71EFFEFF30583034B5A6B9A6A9A6A9A
:100EC0009A6A9A6A9B6AFEE700ED00E0FEE700007E
:100ED00030B50A44084D91420DD011F8013B5840FD
:100EE000082340F30004013B2C4013F0FF0384EA85
:100EF0005000F6D1EFE730BD2083B8ED02684368BB
:100F00001143016003B118477047000013B5446BEB
:100F1000D4F8A4381A681178042915D1217C022943
:100F200012D11979012312898B4013420CD101A9E6
:100F300004F14C0001F072FFD4F8A4480246019B72
:100F40002179206800F0DAF902B010BD143001F008
:100F5000F5BE00004FF0FF33143001F0EFBE00008B
:100F60004C3001F0C7BF00004FF0FF334C3001F0B0
:100F7000C1BF0000143001F0C3BE00004FF0FF31CC
:100F8000143001F0BDBE00004C3001F093BF0000F2
:100F90004FF0FF324C3001F08DBF000038B5D0F873
:100FA000A43805461A681178042901D0012038BDFB
:100FB000017C0229FAD1587901238340508913EA30
:100FC0000004F3D105F1140001F054FE024600289C
:100FD000ECD0D5F8A4584FF480732868697900F0F4
:100FE0007BF92046E3E70000406BFFF7D7BF000026
:100FF00000207047704700007FB5124B0125042682
:10100000044603600023057400F18402436029460E
:10101000C0E902330C4B0290143001934FF48073FB
:10102000009601F003FE094B04F29442294604F1B4
:101030004C000294CDE900634FF4807301F0CAFEC6
:1010400004B070BD50350008E90F00080D0F00080E
:101050000B68202282F311880A7903EB8202106266
:101060004A790D3243F822008A7912B103EB8203E8
:1010700018620223C0F8A4180374002383F31188B4
:101080007047000038B5037F044613B190F8543020
:10109000ABB90125201D0221FFF730FF04F1140038
:1010A0006FF00101257700F0ABFC04F14C0084F8EF
:1010B00054506FF00101BDE8384000F0A1BC38BDCC
:1010C00010B5012104460430FFF718FF00232377F1
:1010D00084F8543010BD000038B5044600251430A3
:1010E00001F0BCFD04F14C00257701F08BFE201DC2
:1010F00084F854500121FFF701FF2046BDE8384035
:10110000FFF74CBF90F85C3003F06003202B06D152
:1011100090F85D200023212A03D81F2A06D800203A
:101120007047222AFBD1C0E9143303E0034A026569
:101130000722426583650120704700BF38220220E4
:10114000D0F8A43837B51A680446117804291AD1A2
:10115000017C022917D11979012312898B4013428E
:1011600011D100F14C05284601F00CFF58B101A93E
:10117000284601F053FED4F8A4480246019B217989
:10118000206800F0BBF803B030BD000000EB810325
:10119000F0B51E6A85B004460D46FEB1202383F3E8
:1011A000118804EB8507301D0821FFF7A7FEFB68B7
:1011B00006F14C005B691B681BB1019001F03CFE1D
:1011C000019803A901F02AFE024648B1039B294673
:1011D000204600F093F8002383F3118805B0F0BD9A
:1011E000FB685A691268002AF5D01B8A013B13403C
:1011F000F1D104F15C02EAE70D3138B550F8214035
:10120000DCB1202383F31188D4F8A4281368527921
:1012100003EB8203DB689B695D6845B104216018BC
:10122000FFF76CFE294604F1140001F02DFD204665
:10123000FFF7B4FE002383F3118838BD7047000028
:1012400001F0C4B801230370002343628363836207
:10125000C363C36203640363436443638364C0E999
:101260000133704738B50446202383F311880025E5
:101270004160C0E90355C0E90555C0E9075501F0D3
:10128000B5F80223237085F3118838BD70B500EBE3
:101290008103054650690E461446DA6018B11022E3
:1012A0000021FFF74FFDA06918B110220021FFF7C0
:1012B00049FD31462846BDE8704001F061B90000A3
:1012C000826802F0011282600022C0E90422C0E9B3
:1012D0000622026201F0E2B9F0B4012500EB8104BC
:1012E00047898D40E4683D43A4694581236000231C
:1012F000A2606360F0BC01F0FDB90000F0B401250C
:1013000000EB810407898D40E4683D4364690581F1
:1013100023600023A2606360F0BC01F077BA000094
:1013200070B502230025044603704566056280F807
:101330004C50C0E90255C0E90455C0E9065501F01A
:10134000BBF863681B6823B129462046BDE870409E
:10135000184770BD037880F8683005230370436830
:101360001B6810B504460BB1042198470023A36005
:1013700010BD000090F86820436802701B680BB134
:10138000052118477047000070B590F84C300446AE
:1013900013B1002380F84C3004F15C02204601F0C8
:1013A0009FF963689B68B3B994F85C3013F06005EB
:1013B00039D00021204601F005FC0021204601F033
:1013C000F7FB63681B6813B1062120469847062384
:1013D00084F84C3070BD204698470028E4D094F83B
:1013E000632094F8623043EA0223626D9A4288BF18
:1013F000636594F95C30656D002B4FF0200380F23B
:101400000881002D00F0F780092284F84C2083F336
:10141000118800212046D4E91423FFF76FFF002331
:1014200083F31188D6E794F85D2003F07F0343EA45
:10143000022340F20232934200F0CA8021D8B3F571
:10144000807F4DD00DD8012B44D0022B00F0988026
:10145000002BAED104F16402226502226265A3650D
:10146000BDE7B3F5817F00F0A080B3F5407FA0D148
:1014700094F85E30012B9CD1B4F8643043F0020341
:1014800037E0B3F5006F52D01CD8B3F5A06F36D05B
:10149000A3F5C063012B8CD894F8612020466168C5
:1014A00094F860304E6843EA022394F85F1094F891
:1014B0005E20B04700283FF47CAF43682365036893
:1014C00063651AE0B3F5106F36D040F602429342DE
:1014D0007FF46FAF5B4B2365022363650023BEE798
:1014E00094F85E30012B7FF464AFB4F8643023F0DD
:1014F0000203A4F86430C4E91455A5656FE7B4F895
:101500005C30B3F5A06F0ED194F85E30204684F8BD
:10151000663001F029F863681B6813B10121204689
:101520009847032323700023C4E9143397E704F199
:10153000670323650123C3E72378042B10D12023FD
:1015400083F311882046FFF7BBFE85F31188032142
:10155000636884F8675021701B680BB12046984778
:1015600094F85E30002BDED084F8673004232370BB
:1015700063681B68002BD6D0022120469847D2E72B
:1015800094F8603020461D0603F00F010AD501F0E3
:1015900099F8012804D002287FF40BAF2A4B9AE770
:1015A0002A4B98E701F080F8F3E794F85E30002BBF
:1015B0007FF4FFAE94F8603013F00F01B3D01A0639
:1015C000204602D501F012FBADE701F005FBAAE7CA
:1015D00094F85E30002B7FF4ECAE94F8603013F09A
:1015E0000F01A0D01B06204602D501F0EBFA9AE7C6
:1015F00001F0DEFA97E7142284F84C2083F3118877
:101600002B462A4629462046FFF766FE85F31188B9
:10161000E0E65DB1152284F84C2083F311880021A7
:101620002046D4E91423FFF757FEF8E60B2284F88E
:101630004C2083F311882B462A4629462046FFF783
:101640005DFEE3E780350008783500087C3500084A
:1016500038B590F84C300446002B42D0063BDAB245
:101660000F2A38D80F2B36D8DFE803F03B35350882
:10167000263635353535353535353B3B90F86310F5
:1016800090F86220436D42EA0122934214D2C2686C
:10169000128AB3FBF2F502FB15356DB9202383F3F3
:1016A00011882B462A462946FFF728FE85F3118824
:1016B0000A2384F84C300EE0142384F84C302023A5
:1016C00083F31188002320461A461946FFF704FECB
:1016D000002383F3118838BD836D03B1984700233D
:1016E000E7E70021204601F06DFA0021204601F0D5
:1016F0005FFA63681B6813B10621204698470623EA
:10170000D7E7000010B590F84C300446142B29D0D0
:1017100017D8062B05D001D81BB110BD093B022BF1
:10172000FBD80021204601F04DFA0021204601F0AF
:101730003FFA63681B6813B10621204698470623C9
:1017400019E0152BE9D10B2380F84C30202383F3CB
:10175000118800231A461946FFF7D0FD002383F3B2
:101760001188DAE7C3689B695B68002BD5D1836D6C
:1017700003B19847002384F84C30CEE7024B002297
:10178000C3E900339A607047BC23022000238268BB
:101790000374054B1B6899689142FBD25A68036039
:1017A0004260106058607047BC23022008B52023B7
:1017B00083F31188037C032B05D0042B0DD02BB9A8
:1017C00083F3118808BD436900221A604FF0FF338C
:1017D0004361FFF7DBFF0023F2E7D0E9003213603B
:1017E0005A60F3E7002382680374054B1B6899680D
:1017F0009142FBD85A68036042601060586070479D
:10180000BC230220054B19690874186802685360EC
:101810001A60186101230374FEF788BDBC230220FF
:101820004B1C30B5044687B00A4D10D02B6901A877
:10183000094A00F001F92046FFF7E4FF049B13B1C9
:1018400001A800F039F92B69586907B030BDFFF7DE
:10185000D9FFF8E7BC230220AD17000838B50C4DBE
:10186000044641612B6981689A68914203D8BDE8BA
:101870003840FFF78BBF1846FFF7B4FF01232C61F8
:10188000014623742046BDE83840FEF74FBD00BF37
:10189000BC230220044B1A681B6990689B6898421D
:1018A00094BF002001207047BC23022010B5084CD3
:1018B000236820691A6854602260012223611A7427
:1018C000FFF790FF01462069BDE81040FEF72EBDEE
:1018D000BC230220FFF7EABFFEE7000010B50C4C66
:1018E000FFF74CFF00F09AF880220A49204600F0EA
:1018F00021F8012344F8180C037400F041FC002384
:1019000083F3118862B60448BDE8104000F032B895
:10191000E4230220843500089435000800F008B95B
:10192000034B59685A68521A9042FBD8704700BF5F
:10193000001000E082600222028270478368A3F1F7
:101940007C0243F80C2C026943F83C2C426943F8B2
:10195000382C074A43F81C2CC268A3F1180043F83E
:10196000102C022203F8082C002203F8072C7047E1
:101970004503000810B5202383F31188FFF7DEFF2D
:1019800000210446FFF76AFF002383F311882046F5
:1019900010BD0000024B1B6958610F20FFF732BFDA
:1019A000BC230220202383F31188FFF7F3BF00003C
:1019B00008B50146202383F311880820FFF730FF84
:1019C000002383F3118808BD49B1064B42681B69A7
:1019D00018605A60136043600420FFF721BF4FF086
:1019E000FF307047BC2302200368984206D01A6873
:1019F0000260506018465961FFF7C8BE704700008A
:101A000038B504460D462068844200D138BD0368CD
:101A100023605C604561FFF7B9FEF4E7054B4FF0CA
:101A2000FF3103F11402C3E905220022C3E90712C2
:101A3000704700BFBC23022070B5C0E903230C46E9
:101A4000054601F0D1FA1B4A03461046164650F8E7
:101A5000141F81420ED113620A2C2CBF181903F1F6
:101A60000A002960C5E90114C2E90555BDE87040C6
:101A700001F0A8BA106A1B1AE31838BF1C468B681D
:101A8000A34202D9204401F0ABFA73699A689442E8
:101A90000CD8AC6099685A680C1B2B606A601560A2
:101AA0005D609C604FF0FF33F36170BDA41A1B684A
:101AB000ECE700BFBC23022038B51C4B5A691D4619
:101AC00090420DD0D0E900210A6051600021C16030
:101AD00091688068014491604FF0FF32DA6138BD4F
:101AE0001A46016842F8141F4A6000215B69C16010
:101AF000934203D1BDE8384001F06CBA9A6881681E
:101B00000A449A602C6A01F06FFA6B69021B9B68A9
:101B10009342E4D91C44201A0928286A98BF02F18C
:101B20000A031844BDE8384001F05ABABC23022029
:101B30002DE9F041184C002704F11406656901F005
:101B400053FA236AAA68C11A8A4215D81344D5F8F1
:101B50000C802362D5E9003213605A606369EF603C
:101B6000B34201D101F036FA87F311882869C047E2
:101B7000202383F31188E1E76169B14209D013445E
:101B80001B1ABDE8F0410A2B2CBFC0180A3001F027
:101B900027BABDE8F08100BFBC23022000207047B7
:101BA000FEE70000704700004FF0FF307047000074
:101BB00002290CD0032904D00129074818BF0020AE
:101BC0007047032A05D8054800EBC2007047044857
:101BD00070470020704700BF783600084822022076
:101BE0002C36000870B59AB005460846144601AE7A
:101BF000314600F0C1F83046FFF79CF8431CC1B2F3
:101C00005B00C5E9003423700323023404F8013C6F
:101C100000231846DAB20234914201D81AB070BDDE
:101C2000F25C013304F8010C04F8022CF2E7000026
:101C300008B5202383F311880348FFF781FA0023B6
:101C400083F3118808BD00BF7825022090F85C302E
:101C500003F01F02012A07D190F85D200B2A03D15F
:101C60000023C0E9143315E003F06003202B08D1F2
:101C7000B0F860302BB990F85D20212A03D81F2AD4
:101C800004D8FFF73FBA222AEBD0FAE7034A0265ED
:101C90000722426583650120704700BF3F22022072
:101CA00007B5052917D8DFE801F01916031919201F
:101CB000202383F31188104A01210190FFF7E6FAEF
:101CC000019802210D4AFFF7E1FA0D48FFF704FAE7
:101CD000002383F3118803B05DF804FB202383F312
:101CE00011880748FFF7CEF9F2E7202383F3118824
:101CF0000348FFF7E5F9EBE7CC350008F0350008BD
:101D00007825022038B50C4D0C4C2A460C4904F1BC
:101D10000800FFF767FF05F1CA0204F11000094946
:101D2000FFF760FF05F5CA7204F118000649BDE827
:101D30003840FFF757BF00BF502E02204822022034
:101D4000AC350008B6350008C135000870B504464A
:101D500008460D46FEF7EEFFC6B220460134037872
:101D60000BB9184670BD32462946FEF7CBFF002856
:101D7000F3D10120F6E700002DE9F04705460C46B7
:101D8000FEF7D8FF2B49C6B22846FFF7DFFF08B1A0
:101D90000736F6B228492846FFF7D8FF08B11036B3
:101DA000F6B2632E0BD8DFF88C80DFF88C90234FCF
:101DB000DFF894A02E7846B92670BDE8F087294652
:101DC0002046BDE8F04701F0A5BB252E2ED1072205
:101DD00041462846FEF796FF70B9194B224603F19B
:101DE0000C0153F8040B8B4242F8040BF9D11B8809
:101DF00007350E341380DDE7082249462846FEF7F2
:101E000081FF98B9A21C0F4B197802320909C95DEC
:101E100002F8041C13F8011B01F00F015345C95DC2
:101E200002F8031CF0D118340835C3E7013504F873
:101E3000016BBFE798360008C1350008AF360008CF
:101E4000A036000820F4F01F2CF4F01FBFF34F8FD2
:101E5000024AD368DB03FCD4704700BF003C024059
:101E600008B5074B1B7853B9FFF7F0FF054B1A690C
:101E7000002A04DA044A5A6002F188325A6008BD26
:101E8000AE300220003C02402301674508B5054BF7
:101E90001B7833B9FFF7DAFF034A136943F00043B5
:101EA000136108BDAE300220003C02400B28F0B5A3
:101EB00016D80C4A0C4C117879B926460B4D0C23D8
:101EC0004FF00061013B55F8047B46F8041B13F00A
:101ED000FF033944F6D10123137054F82000F0BDFC
:101EE0000020FCE7E0300220B0300220C0360008BD
:101EF000014B53F820007047C03600080C20704793
:101F00000B2810B5044601D9002010BDFFF7CEFF05
:101F1000064B53F824301844C21A0BB90120F4E7D9
:101F200012680132F0D1043BF6E700BFC03600086A
:101F30000B2810B5044621D8FFF788FFFFF790FF64
:101F40000F4AF323D360C300DBB243F4007343F0C2
:101F500002031361136943F480331361FFF776FFC3
:101F6000FFF7A4FF074B53F8241000F0D5F8FFF754
:101F70008DFF2046BDE81040FFF7C2BF002010BD16
:101F8000003C0240C0360008F8B512F001031546C7
:101F900042D18218B2F1026F53D82B4B1B6813F059
:101FA00001034ED0FFF75CFF284CF32340F20127DA
:101FB000E360FFF74BFF032D15D825F00105401A0C
:101FC000224C40F201176E18B14200EB0105236963
:101FD00024D123F001032361FFF758FF0120F8BD4E
:101FE000043D0430E7E78307E7D1236923F4407316
:101FF000236123693B43236151F8046B0660BFF3FF
:102000004F8FFFF723FF03689E42E9D0236923F037
:1020100001032361FFF73AFF0020E0E723F4407358
:10202000236123693B4323610B882B80BFF34F8FD0
:10203000FFF70CFF2D88ADB231F8023BAB42C3D0A5
:10204000E4E71846CBE700BF00380240003C0240FE
:10205000084908B50B7828B11BB9FFF701FF012328
:102060000B7008BD002BFCD00870BDE80840FFF7DE
:102070000DBF00BFAE3002200244074BD2B210B5F4
:10208000904200D110BD441C00B253F8200041F82A
:10209000040BE0B2F4E700BF502800400F4B30B50E
:1020A0001C6F240407D41C6F44F400741C671C6F5D
:1020B00044F400441C670A4C02442368D2B243F43F
:1020C00080732360074B904200D130BD441C51F80F
:1020D000045B00B243F82050E0B2F4E7003802405D
:1020E000007000405028004007B5012201A90020DF
:1020F000FFF7C2FF019803B05DF804FB13B5044677
:10210000FFF7F2FFA04205D0012201A900200194AF
:10211000FFF7C4FF02B010BD0144BFF34F8F064B61
:10212000884204D3BFF34F8FBFF36F8F7047C3F85C
:102130005C022030F4E700BF00ED00E0034B1B68B9
:102140009B0042BF024B01221A7070477438024054
:10215000E1300220014B1878704700BFE1300220C7
:10216000EFF30983054968334A6822F001024A60A7
:1021700083F30988002383F31188704730EF00E070
:10218000202080F3118862B60D4B0E4AD96821F4E5
:10219000E0610904090C0A430B49DA60CA6842F09D
:1021A0008072CA60094A0A49C2F8B01F116841F03A
:1021B000010111601022DA7783F82200704700BF16
:1021C00000ED00E00003FA05F0ED00E0001000E093
:1021D00055CEACC5202310B583F311880E4B5B6838
:1021E00013F4006314D0F1EE103AEFF309844FF0CA
:1021F0008073683CE361094BDB68236684F30988DC
:10220000FFF748FB10B1064BA36110BD054BFBE780
:1022100083F31188F9E700BF00ED00E030EF00E044
:10222000570300085A03000870B5BFF34F8FBFF380
:102230006F8F1A4B0021C3F85012BFF34F8FBFF3BB
:102240006F8F5A6942F400325A61BFF34F8FBFF368
:102250006F8FC3F88410BFF34F8FD3F8802043F6FD
:10226000E074C2F3C900C2F34E32520102EA04061E
:10227000014646EA81750139C3F86052F9D2203A25
:1022800012F1200FF2D1BFF34F8F5A6942F480321E
:102290005A61BFF34F8FBFF36F8F70BD00ED00E049
:1022A000FEE70000084A094B09498B4204D3094A5A
:1022B0000021934205D3704752F8040B43F8040BF6
:1022C000F3E743F8041BF4E7C0380008F4310220B8
:1022D000F4310220F43102207047000070B5D0E9DB
:1022E0001B4300224FF0FF359E6804EB421351015F
:1022F000D3F80009002805DAD3F8000940F080403F
:10230000C3F80009D3F8000B002805DAD3F8000B56
:1023100040F08040C3F8000B013263189642C3F8C6
:102320000859C3F8085BE0D24FF00113C4F81C3819
:1023300070BD0000890141F02001016103699B0625
:10234000FCD41220FFF7ECBA1F4B03EB8002D2F84B
:102350000CC02DE9F043DCF81420461CDD6ED2F8E9
:1023600000E005EB063605EB4018516871450BD3CC
:102370000123D5F8342803FA00F022EA0000C5F85A
:1023800034081846BDE8F083AEEB0103BCF81040FA
:10239000A34228BF2346D8F81849A4B2B3EB840F50
:1023A0000FD89468A4F1040959F8047F3760A4EBAE
:1023B00009071F44042FF7D81C440B449460536052
:1023C000D3E70020DEE700BFE430022010B5054C63
:1023D0002046FEF737FF4FF0A043E366024B23672A
:1023E00010BD00BFE43002201437000870B5037838
:1023F0000546012B50D12A4BC46E98421BD1294B64
:102400000E2143205A6B42F080025A635A6D42F00B
:1024100080025A655A6D5A6942F080025A615A69BF
:1024200022F080025A615B6900F0EAFB1E4BE36018
:102430001E4BC4F800380023EE6EC4F8003EC023E3
:1024400023604FF40413A3633369002BFCDA0123E8
:102450000C203361FFF764FA3369DB07FCD41220E8
:10246000FFF75EFA3369002BFCDA00262846A660E7
:10247000FFF734FF6B68C4F81068DB68C4F81468B1
:10248000C4F81C684BB90A4BA3614FF0FF3363617A
:10249000A36843F00103A36070BD064BF4E700BFDF
:1024A000E4300220003802404014004003002002C3
:1024B000003C30C0083C30C0F8B5C46E0546002171
:1024C0004FF000662046FFF735FF296F00234FF0DD
:1024D00001128F684FF0FF30C4F83438C4F81C285C
:1024E00004EB431201339F42C2F80069C2F8006B4B
:1024F000C2F80809C2F8080BF2D20B68EA6E6B67E3
:10250000636210231361166916F01006FBD11220C6
:10251000FFF706FAD4F8003823F4FE63C4F8003855
:10252000A36943F4402343F01003A3610923C4F8D3
:102530001038C4F814380A4BEB604FF0C043C4F8AD
:10254000103B084BC4F8003BC4F81069C4F80039CC
:102550006B6F03F1100243F480136A67A362F8BD46
:10256000F036000840800010C26E90F86610D2F875
:10257000003823F4FE6343EA0113C2F800387047C1
:102580002DE9F84300EB8108C56E0C460FFA81F97E
:10259000D8F80C204F01166806F00306731E022BB4
:1025A00005EB41134FF0000194BFB604394EC3F858
:1025B000101B04F110034FF0010198BF06F1805683
:1025C00001FA03F1936998BF06F50046002B3CD051
:1025D000B2F812C004F158034CEA060C5B0145F84E
:1025E00003C0D5F81C381943EB19C5F81C18002195
:1025F0000127C3F81019A7405369611E93B3138ACA
:10260000928B9B08012A88BF5343426F03EB020C55
:1026100042EA034301F140022146C0F874C0284653
:1026200005EB82025360FFF785FED8F80C301B8A59
:1026300043EA845348341E4364012E51D5F81C38B4
:102640001F43C5F81C78BDE8F88305EB491CDCF88E
:10265000003B23F40043CCF8003BD5F81C3823EAB8
:102660000101C1E704F13F030B4A05EB491921467B
:1026700005EB830328465A60FFF75CFED9F8003962
:1026800023F40043C9F80039D5F81C3823EA0707BA
:10269000D7E700BF0080001000040002026F12683C
:1026A0004267FFF71BBE00005831C36E49015B58FB
:1026B00013F4004004D013F4001F0CBF02200120CB
:1026C000704700004831C36E49015B5813F4004065
:1026D00004D013F4001F0CBF02200120704700003B
:1026E00000EB8101CB68196A0B6813604B6853607B
:1026F0007047000000EB810330B5DD68AA691368FC
:10270000D36019B9402B84BF402313606B8A1468CF
:10271000C26E1C4402EB4110013C09B2B4FBF3F45D
:102720006343033323F0030343EAC44343F0C0434A
:10273000C0F8103B2B6803F00303012B0ED1D2F835
:10274000083802EB411013F4807FD0F8003B14BF2F
:1027500043F0805343F00053C0F8003B02EB4112BA
:10276000D2F8003B43F00443C2F8003B30BD000008
:102770002DE9F041244D0446EE6E06EB4013D3F8EC
:10278000087B3807C3F8087B0AD5D6F81438190730
:1027900006D505EB840321462846DB685B6898472D
:1027A000FA071FD5D6F81438DB071BD505EB8403D1
:1027B000D968CCB98B69488A5E68B6FBF0F200FB39
:1027C00012628AB91868DA6890420DD2121AC3E907
:1027D0000024202383F311880B482146FFF78AFF4A
:1027E00084F31188BDE8F081012303FA04F26B89B8
:1027F00023EA02036B81CB68002BF3D02146024809
:10280000BDE8F041184700BFE430022000EB81032F
:102810004A0170B5DD68C36E6C692668E66056BB18
:102820001A444FF40020C2F810092A6802F003028B
:10283000012A0AB20ED1D3F8080803EB421410F4AF
:10284000807FD4F8000914BF40F0805040F0005061
:10285000C4F8000903EB4212D2F8000940F004402A
:10286000C2F800090122D3F8340802FA01F1014349
:10287000C3F8341870BD19B9402E84BF40202060C1
:1028800020681A442E8A8419013CB4FBF6F440EA0D
:10289000C44040F00050C6E7F8B504461E48C56E77
:1028A00005EB4413D3F80869F107C3F8086917D595
:1028B000D5F81038DA0713D500EB8403D9684B69D3
:1028C0001F68DA68974218D2D21B00271A605F602F
:1028D000202383F311882146FFF798FF87F311889F
:1028E000330617D50123D5F83428A340134211D05D
:1028F0002046BDE8F840FFF727BD012303FA04F2A4
:10290000038923EA020303818B68002BE8D0214668
:102910009847E5E7F8BD00BFE43002202DE9F74F06
:10292000A248C66E04467569B3691D4015F4805807
:10293000756106D0FEF7F4FC03B0BDE8F04FFFF779
:1029400049BC002D12DAD6F8003E9F0705D0D6F814
:10295000003E23F00303C6F8003ED6F8043893483F
:1029600023F00103C6F80438FEF704FD280505D559
:102970008E48FFF7B3FC8D48FEF7ECFCA9040CD59C
:10298000D6F8083813F0060FF36823F470530CBF21
:1029900043F4105343F4A053F3602A0704D563684B
:1029A000DB680BB181489847EB0200F18A80AF02E7
:1029B00027D5D4F86C9000274FF0010ADFF8ECB16E
:1029C00009EB4712D2F8003B03F44023B3F5802F04
:1029D00011D1D2F8003B002B0DDA62890AFA07F315
:1029E00022EA0303638104EB8703DB68DB6813B12E
:1029F0003946584698470137236FFFB29B689F427C
:102A0000DED9E80618D5E76E3A6AC2F30A1002F07A
:102A10000F0302F4F012B2F5802F00F09C80B2F5A3
:102A2000402F09D104EB8303002207F58057DB68B0
:102A30001B6A904240F082802B03D6F818481DD5BF
:102A4000E70302D50020FFF793FEA60302D501207D
:102A5000FFF78EFE600302D50220FFF789FE2103F7
:102A600002D50320FFF784FEE20202D50420FFF71F
:102A70007FFEA30202D50520FFF77AFE6F037FF5E4
:102A80005BAFE60702D50020FFF706FFA50702D5DA
:102A90000120FFF701FF600702D50220FFF7FCFECF
:102AA000210702D50320FFF7F7FEE20602D5042036
:102AB000FFF7F2FEA3067FF53FAF0520FFF7ECFE20
:102AC0003AE7E36E00274FF0010ADFF8E0B0019328
:102AD000236F5FFA87F99B684B45FFF468AF019B52
:102AE00003EB4913D3F8002902F44022B2F5802FFA
:102AF00022D1D3F80029002A1EDAD3F8002942F0A7
:102B00009042C3F80029D3F80029002AFBDB49468C
:102B1000E06EFFF70FFC22890AFA09F322EA0303A9
:102B2000238104EB8903DB689B6813B1494658464F
:102B300098474846FFF708FC0137C9E7910701D1DC
:102B4000D7F80080072A02F101029CBF03F8018B2D
:102B50004FEA18286DE7023307F5805704EB83022C
:102B60005268D2F818C0DCF80820DCE9001CA1EBA0
:102B70000C0C002188420AD104EB830463689B6932
:102B80009A6802449A605A681044586054E711F0F9
:102B9000030F01D1D7F800808C4501F1010184BFFA
:102BA00002F8018B4FEA1828E4E700BFE430022066
:102BB000C36E03EB4111D1F8003B43F40013C1F89D
:102BC000003B7047C36E03EB4111D1F8003943F469
:102BD0000013C1F800397047C36E03EB4111D1F8FF
:102BE000003B23F40013C1F8003B7047C36E03EBB6
:102BF0004111D1F8003923F40013C1F800397047AE
:102C0000090100F16043012203F56143C9B283F871
:102C1000001300F01F039A4043099B0003F1604337
:102C200003F56143C3F880211A60704730B504335F
:102C3000039C0172002104FB0325C160C0E9065317
:102C4000049B0363059BC0E90000C0E90422C0E9BE
:102C50000842C0E90A11436330BD00000022416A06
:102C6000C260C0E90411C0E90A226FF00101FEF759
:102C7000C7BE0000D0E90432934201D1C2680AB94C
:102C8000181D704700207047036919600021C26851
:102C90000132C260C269134482699342036124BF56
:102CA000436A0361FEF7A0BE38B504460D46E368EB
:102CB0003BB162690020131D1268A3621344E362F2
:102CC00007E0237A33B929462046FEF77DFE002827
:102CD000EDDA38BD6FF00100FBE70000C368C269A0
:102CE000013BC3604369134482699342436124BF3B
:102CF000436A436100238362036B03B11847704743
:102D000070B52023044683F31188866A3EB9FFF725
:102D1000CBFF054618B186F31188284670BDA36A1B
:102D2000E26A13F8015B9342A36202D32046FFF7E5
:102D3000D5FF002383F31188EFE700002DE9F84F5A
:102D400004460E4690469946202787F311880025B1
:102D5000AA46D4F828B0BBF1000F09D14946204655
:102D6000FFF7A2FF20B18BF311882846BDE8F88F4A
:102D7000D4E90A12A8EB050B521A934528BF9346D3
:102D8000BBF1400F1BD9334601F1400251F8040B4F
:102D9000914243F8040BF9D1A36A403640354033E1
:102DA000A362D4E90A239A4202D32046FFF796FF92
:102DB0008AF311884545D8D287F31188C9E7304690
:102DC0005A46FDF795FFA36A5E445D445B44A362E7
:102DD000E7E7000010B5029C0433017204FB0321F5
:102DE000C460C0E906130023C0E90A33039B0363F0
:102DF000049BC0E90000C0E90422C0E90842436323
:102E000010BD0000026A6FF00101C260426AC0E9B1
:102E100004220022C0E90A22FEF7F2BDD0E9042311
:102E20009A4201D1C26822B9184650F8043B0B609F
:102E30007047002070470000C3680021C269013359
:102E4000C3604369134482699342436124BF436A68
:102E50004361FEF7C9BD000038B504460D46E3687E
:102E60003BB1236900201A1DA262E2691344E362A8
:102E700007E0237A33B929462046FEF7A5FD00284E
:102E8000EDDA38BD6FF00100FBE70000036919605F
:102E9000C268013AC260C269134482699342036105
:102EA00024BF436A036100238362036B03B11847A5
:102EB0007047000070B520230D460446114683F389
:102EC0001188866A2EB9FFF7C7FF10B186F3118803
:102ED00070BDA36A1D70A36AE26A01339342A362C4
:102EE00004D3E16920460439FFF7D0FF002080F3C6
:102EF0001188EDE72DE9F84F04460D4691469A46B4
:102F00004FF0200888F311880026B346A76A4FB90E
:102F100051462046FFF7A0FF20B187F311883046C5
:102F2000BDE8F88FD4E90A073A1AA9EB06079742D9
:102F300028BF1746402F1BD905F1400355F8042B35
:102F40009D4240F8042BF9D1A36A40364033A36276
:102F5000D4E90A239A4204D3E16920460439FFF7F1
:102F600095FF8BF311884E45D9D288F31188CDE7B0
:102F700029463A46FDF7BCFEA36A3D443E443B4425
:102F8000A362E5E7D0E904239A4217D1C3689BB155
:102F9000836A8BB1043B9B1A0ED01360C368013B5C
:102FA000C360C3691A4483699A42026124BF436AB9
:102FB0000361002383620123184670470023FBE767
:102FC00000F09EB84FF08043002258631A6102223D
:102FD000DA6070474FF080430022DA6070470000EB
:102FE0004FF08043586370474FF08043586A7047F2
:102FF0004B6843608B688360CB68C3600B69436137
:103000004B6903628B6943620B6803607047000081
:1030100008B5274B40F2FF7126481A690A431A6126
:103020001A6922F4FF6222F007021A611A691A6B08
:103030000A431A631A6D0A431A651F4A1B6D11462B
:10304000FFF7D6FF1D4802F11C01FFF7D1FF1C4816
:1030500002F13801FFF7CCFF1A4802F15401FFF7E3
:10306000C7FF194802F17001FFF7C2FF174802F1CC
:103070008C01FFF7BDFF164802F1A801FFF7B8FF6A
:10308000144802F1C401FFF7B3FF134802F1E00155
:10309000FFF7AEFF114802F1FC01FFF7A9FF10484E
:1030A00002F58C71FFF7A4FFBDE8084000F09EB860
:1030B00000380240000002402037000800040240AF
:1030C00000080240000C02400010024000140240C0
:1030D00000180240001C0240002002400024024070
:1030E0000028024008B500F0F7F9FEF7F7FBFFF7FC
:1030F00025F8BDE80840FEF705BE00007047000057
:103100000F4B1A6C42F001021A641A6E42F001026F
:103110001A660C4A1B6E936843F0010393604FF0EC
:1031200080436B229A624FF0FF32DA6200229A618A
:103130005A63DA605A6001225A611A60704700BF10
:1031400000380240002004E04FF0804208B51169C9
:10315000D3680B40D9B29B076FEA0101116107D513
:10316000202383F31188FEF7D9FB002383F3118812
:1031700008BD00001B4B4FF0FF3000211A696FEAB9
:1031800042526FEA52521A611A69C2F30A021A6174
:103190001A695A6958615A6959615A691A6A62F01A
:1031A00080521A621A6A02F080521A621A6A5A6AC5
:1031B00058625A6A59625A6A0B4A106840F4807021
:1031C0001060186F00F44070B0F5007F03D04FF42A
:1031D000803018671967536823F40073536000F058
:1031E00057B900BF0038024000700040374B4FF421
:1031F0004041374A1A64374A11601A6842F00102A6
:103200001A601A689207FCD59A6822F003029A6045
:103210002E4B19469A6812F00C02FBD1186800F088
:10322000F90018609A601A6842F480321A600B68DC
:103230009B03FCD54B6F43F001034B67234B5A6F45
:103240009007FCD5244A5A601A6842F080721A60CE
:10325000204B1A4659684904FCD5196841F480315D
:1032600019605368D803FCD5136843F40033136026
:10327000184A53689903FCD5144B1A689201FCD57F
:10328000164A9A6040F20112C3F88C200022C3F85B
:10329000902040F20732124B1A601A6802F00F02B7
:1032A000072AFAD1094B9A6842F002029A609A689A
:1032B00002F00C02082AFAD15A6C42F480425A6495
:1032C0005A6E42F480425A665B6E70470038024084
:1032D0000004001000700040086C40090094883819
:1032E000003C0240074A08B5536903F001035361EB
:1032F00023B1054A13680BB150689847BDE80840F0
:10330000FEF768BF003C014074310220074A08B54F
:10331000536903F00203536123B1054A93680BB16B
:10332000D0689847BDE80840FEF754BF003C014014
:1033300074310220074A08B5536903F0040353614E
:1033400023B1054A13690BB150699847BDE808409D
:10335000FEF740BF003C014074310220074A08B527
:10336000536903F00803536123B1054A93690BB114
:10337000D0699847BDE80840FEF72CBF003C0140EB
:1033800074310220074A08B5536903F010035361F2
:1033900023B1054A136A0BB1506A9847BDE808404B
:1033A000FEF718BF003C014074310220164B10B5E7
:1033B0005C6904F478725A61A30604D5134A936ACF
:1033C0000BB1D06A9847600604D5104A136B0BB155
:1033D000506B9847210604D50C4A936B0BB1D06B08
:1033E0009847E20504D5094A136C0BB1506C984715
:1033F000A30504D5054A936C0BB1D06C9847BDE882
:103400001040FEF7E7BE00BF003C014074310220CF
:10341000194B10B55C6904F47C425A61620504D50D
:10342000164A136D0BB1506D9847230504D5134A06
:10343000936D0BB1D06D9847E00404D50F4A136E1D
:103440000BB1506E9847A10404D50C4A936E0BB192
:10345000D06E9847620404D5084A136F0BB1506FC1
:103460009847230404D5054A936F0BB1D06F984752
:10347000BDE81040FEF7AEBE003C014074310220B2
:1034800008B5FFF761FEBDE80840FEF7A3BE0000E7
:10349000062108B50846FFF7B3FB06210720FFF712
:1034A000AFFB06210820FFF7ABFB06210920FFF741
:1034B000A7FB06210A20FFF7A3FB06211720FFF731
:1034C0009FFB06212820FFF79BFB07211C20BDE85E
:1034D0000840FFF795BB000008B5FFF74BFE00F072
:1034E0000BF8FDF7ADFEFDF785FDFFF707FEBDE824
:1034F0000840FFF765BD00000023054A1946013367
:10350000102BC2E9001102F10802F8D1704700BF88
:1035100074310220034611F8012B03F8012B002A15
:10352000F9D1704753544D3332463F3F3F3F3F3F01
:103530000053544D333246375B347C355D7800534D
:10354000544D333246375B367C375D7800000000DF
:1035500000000000690F0008550F0008910F0008D7
:103560007D0F0008890F0008750F0008610F000823
:103570004D0F0008F10F00080000000001000000DE
:10358000000000006D61696E0000000069646C65F8
:10359000000000008C35000800240220782502205D
:1035A00001000000D9180008000000004172647595
:1035B00050696C6F740025424F415244252D424C96
:1035C000002553455249414C2500000002000000EF
:1035D000000000008D110008F911000840004000B3
:1035E000202E0220302E02200200000000000000E9
:1035F00003000000000000003D1200080000000071
:1036000010000000402E0220000000000100000019
:1036100000000000E430022001010200A11C0008AB
:10362000B11B00084D1C0008311C000843000000BD
:103630003436000809024300020100C032090400C8
:10364000000102020100052400100105240100010F
:10365000042402020524060001070582030800FF76
:1036600009040100020A00000007050102400000F1
:1036700007058102400000001200000080360008AB
:10368000120110010200004009124157000201021C
:10369000030100000403090425424F415244250060
:1036A0004D6174656B463736352D57696E6700304E
:1036B0003132333435363738394142434445460098
:1036C00000800000008000000080000000800000FA
:1036D00000000200000004000000040000000400DC
:1036E00000000400000004000000040000000400CA
:1036F0000000000089130008511600080517000893
:10370000400040005C3102205C31022001000000DA
:103710006C31022080000000400100000500000024
:103720000000802A00000000AAAAAAAA0000002423
:10373000FFFF00000000000000A00A0000000001E0
:1037400000000000AAAAAAAA00000001FFFF0000D2
:103750000000000000000000000100000000000068
:10376000AAAAAAAA00010000FFFF000000000000B2
:10377000000000000040100000000000AAAAAAAA51
:1037800000400000FFFB00000000000000000000FF
:103790000000400000000000AAAAAAAA0000400001
:1037A000FFFF00000000000000000000000000001B
:1037B00000000000AAAAAAAA00000000FFFF000063
:1037C00000000000000000000000000000000000F9
:1037D000AAAAAAAA00000000FFFF00000000000043
:1037E000000000000000000000000000AAAAAAAA31
:1037F00000000000FFFF00000000000000000000CB
:103800000000000000000000AAAAAAAA0000000010
:10381000FFFF0000000000000000000000000000AA
:103820000000000000000000000000000000000098
:103830000000000000000000000000000000000088
:103840000000000000000000000000000000000078
:1038500000000000000000008F00000000000000D9
:1038600000801E0000000000FF00000000000000BB
:10387000243500083F0000004904000031350008ED
:103880003F000000510400003F3500083F000000E9
:1038900000960000000008009600000000080000EC
:1038A0000400000094360008000000000000000042
:1038B0000000000000000000000000000000000008
:00000001FF
