:020000040800F2
:1000000000060020E1010008790E0008F90D000843
:10001000510E0008F90D0008250E0008E301000844
:10002000E3010008E3010008E3010008F9200008EB
:10003000E3010008E3010008E3010008E301000810
:10004000E3010008E3010008E3010008E301000800
:10005000E3010008E3010008D5310008013200087F
:100060002D3200085932000885320008E3010008EB
:10007000E3010008E3010008E3010008E3010008D0
:10008000E3010008E3010008E3010008E3010008C0
:10009000E3010008E3010008E3010008B1320008B1
:1000A000E3010008E3010008E3010008E3010008A0
:1000B00049300008E3010008E3010008E3010008FB
:1000C000E3010008E3010008E3010008E301000880
:1000D000E3010008E3010008E3010008E301000870
:1000E00019330008E3010008E3010008E3010008F8
:1000F000E3010008E3010008E3010008E301000850
:10010000E3010008E3010008E3010008E30100083F
:10011000E3010008E3010008E3010008E30100082F
:10012000E3010008E3010008E3010008E30100081F
:10013000E3010008E3010008E3010008E30100080F
:10014000E3010008E3010008E30100083528000886
:10015000E3010008E3010008E3010008E3010008EF
:10016000E3010008E3010008E3010008E3010008DF
:10017000E3010008E3010008E3010008E3010008CF
:10018000E3010008E3010008E3010008E3010008BF
:10019000E3010008E3010008E3010008E3010008AF
:1001A000E3010008E3010008E3010008E30100089F
:1001B000E3010008E3010008E3010008E30100088F
:1001C000E3010008E3010008E3010008E30100087F
:1001D000E3010008E3010008E3010008E30100086F
:1001E00002E000F000F8FEE772B63A4880F30888B3
:1001F000394880F3098839484EF60851CEF200019B
:10020000086040F20000CCF200004EF63471CEF2ED
:1002100000010860BFF34F8FBFF36F8F40F2000003
:10022000C0F2F0004EF68851CEF200010860BFF334
:100230004F8FBFF36F8F4FF00000E1EE100A4EF6C4
:100240003C71CEF200010860062080F31488BFF3F1
:100250006F8F01F0CDFF01F0ADFF02F051FE4FF0C6
:1002600055301F491B4A91423CBF41F8040BFAE745
:100270001C49194A91423CBF41F8040BFAE71A495C
:100280001A4A1B4B9A423EBF51F8040B42F8040B2A
:10029000F8E700201749184A91423CBF41F8040B87
:1002A000FAE701F08BFF02F087FE144C144DAC42CC
:1002B00003DA54F8041B8847F9E700F041F8114CC1
:1002C000114DAC4203DA54F8041B8847F9E701F0FA
:1002D00073BF00000006002000220020000000087C
:1002E0000000002000060020403700080022002007
:1002F0004022002040220020A42D0020E001000820
:10030000E0010008E0010008E00100082DE9F04FDD
:100310002DED108AC1F80CD0C3689D46BDEC108A43
:10032000BDE8F08F002383F311882846A047002002
:1003300001F004FBFEE701F099FA00DFFEE70000A0
:1003400038B501F0ADFE054601F0D0FE0446D8B93F
:100350000F4B9D421AD001339D4218BF044641F213
:10036000883504BF01240025002001F0A3FE0CB154
:1003700000F056F800F016FD00F088FB284600F06B
:10038000A9F800F04DF8F9E70025EDE70546EBE7A1
:10039000010007B008B500F04BFBA0F12003584264
:1003A000584108BD07B541F21203022101A8ADF87A
:1003B000043000F05BFB03B05DF804FB10B52023B4
:1003C00083F311881248C3680BB101F041FB114A55
:1003D0000F4800234FF47A7101F0FAFA002383F3F7
:1003E00011880D4C236813B12368013B23606368B7
:1003F00013B16368013B6360084B1B7833B96368D2
:1004000023B9022000F038FC3223636010BD00BF26
:1004100040220020BD0300085C230020542200205D
:1004200010B5244B244A1968013142D00433934259
:10043000F9D1224C224B22689A423AD9214B9B682F
:1004400003F1006303F580339A4232D2002000F0BA
:1004500037FB1D4B0220187000F0FEFB1B4B1A6C83
:1004600000221A64196E1A66196E596C5A64596E14
:100470005A665A6E5A6942F080025A615A6922F0ED
:1004800080025A615A691A6942F000521A611A6967
:1004900022F000521A611B6972B60D4A054B1360B7
:1004A0001B682268202181F311889D4683F3088808
:1004B000104710BD000001082000010804000108D9
:1004C000FFFF0008002200205422002000380240D4
:1004D00008ED00E02DE9F04F95B0AA4C00902022E5
:1004E000FF210CA8A56800F003FCA74A019413782B
:1004F000A3B9A6480121C3601170202383F311889A
:10050000C3680BB101F0A4FAA14AA04800234FF43C
:100510007A7101F05DFA002383F31188009B9D49F5
:1005200003B10B609C4A009C0292002313704B6045
:1005300098469B461E469A46012000F08DFB24B14A
:10054000944B1B68002B00F01682002000F070FA1C
:100550000590059B002BF2DB012000F06DFB059B55
:10056000213B162BE8D801A252F823F0C905000858
:10057000F10500088506000839050008390500085E
:100580003905000819070008EB08000805080008ED
:10059000670800088F080008B5080008390500083A
:1005A000C70800083905000839090008690600086D
:1005B000390500087D090008D5050008690600080E
:1005C00039050008670800080220FFF7E3FE00284D
:1005D00040F0FB81009B0221B8F1000F08BF1C46D0
:1005E00007A841F21233ADF81C3000F03FFAA3E740
:1005F0004FF47A7000F01CFA071EEBDB0220FFF7C5
:10060000C9FE0028E6D0013F052F00F2E081DFE8B7
:1006100007F0030A0D10133605230793042107A8DA
:1006200000F024FA17E057480421F9E75B48042159
:10063000F6E75B480421F3E74FF01C09484600F059
:1006400041FA09F104090790042107A800F00EFA05
:10065000B9F12C0FF2D1012000FA07F747EA0B0B92
:100660005FFA8BFB4FF0000A00F092FB26B10BF013
:100670000B030B2B08BF0024FFF794FE5CE74948EF
:100680000421CDE7002EA5D00BF00B030B2BA1D13D
:100690000220FFF77FFE074600289BD001203E4E38
:1006A00000F00EFA0220307000F0D6FA4FF0000889
:1006B0005FFA88F9484600F013FA044690B14846BC
:1006C00000F01EFA08F101080028F1D1B8460446EE
:1006D00041F21213022107A8ADF81C303E4600F08B
:1006E000C5F929E701230220337000F0A5FA254659
:1006F000019B9B68AB4207D9284600F0E3F9013023
:1007000040F068810435F3E7029B00251D70214B02
:10071000B8465D603E46A7E7002E3FF45BAF0BF0A6
:100720000B030B2B7FF456AF029B0220187000F0D6
:1007300093FA322000F07CF9B0F10009FFF64AAFDD
:1007400019F003077FF446AF019A926809EB05039D
:1007500093423FF63FAFB9F5807F3FF73BAF124B77
:100760000393B94522DD4FF47A7000F061F90590EA
:10077000059A002AFFF62EAF039B059A03F8012B7A
:100780000137EDE7002200205823002040220020FE
:10079000BD0300085C230020542200200422002016
:1007A000082200200C22002058220020C820FFF739
:1007B000F1FD074600283FF40DAF1F2D11D8C5F1FC
:1007C00020024A450CAB25F0030028BF4A46834966
:1007D0000392184400F062FA039A8048FF2100F067
:1007E00087FA4FEAA9037D490393C9F38702284694
:1007F00000F086FA064600283FF46AAF039B05EB3B
:10080000830531E70220FFF7C5FD00283FF4E2AE83
:1008100000F09EF900283FF4DDAE0027B946019BA9
:100820009B68BB4218D91F2F11D80C9B01330ED0E7
:1008300027F0030314AA134453F8203C07934846B7
:10084000042207A900F01AFB04378146E7E738467F
:1008500000F038F90790F2E7CDF81C90042107A8C2
:1008600000F004F900E70023642106A8069300F0D5
:10087000F3F800287FF4AEAE0220FFF78BFD0028CE
:100880003FF4A8AE069800F04DF90790E6E7002384
:10089000642106A8069300F0DFF800287FF49AAEE2
:1008A0000220FFF777FD00283FF494AE069800F091
:1008B00049F9EAE70220FFF76DFD00283FF48AAE10
:1008C00000F056F9E1E70220FFF764FD00283FF44D
:1008D00081AE07A9142000F051F9042107460690C3
:1008E00006A800F0C3F83946B9E7322000F0A0F8B6
:1008F000071EFFF66FAEBB077FF46CAE019A9268DD
:1009000007EB0A0393423FF665AE0220FFF742FD74
:1009100000283FF45FAE27F003075744BA453FF481
:10092000A3AE504600F0CEF80421079007A800F0CF
:100930009DF80AF1040AF1E74FF47A70FFF72AFDF7
:1009400000283FF447AE00F003F9002844D00C9B88
:1009500001330BD008220CA9002000F0D1F90028A7
:100960003AD02022FF210CA800F0C2F9FFF71AFDAF
:100970001B4800F0E9FF15B0BDE8F08F002E3FF4F2
:1009800029AE0BF00B030B2B7FF424AE0023642164
:1009900007A8079300F060F8074600287FF41AAE16
:1009A0000220FFF7F7FC814600283FF413AEFFF763
:1009B000F9FC41F2883000F0C7FF079800F01AFAFE
:1009C0004E4600F0E5F93C46B6E506464CE64FF0EB
:1009D000000AFFE5B8467BE6374679E65822002054
:1009E000A086010070B50F4B1C780134E4B2012CD5
:1009F0000D4610D80C4C23681E6A4FF47A7353438B
:100A00000A4601462046B047854204D1074B0022E2
:100A10001A70012070BD4FF4FA7000F095FF0020AD
:100A2000F8E700BF1022002050250020902300206E
:100A300007B50023024601210DF107008DF80730AC
:100A4000FFF7D0FF20B19DF8070003B05DF804FB6D
:100A50004FF0FF30F9E700000A4608B50421FFF720
:100A6000C1FF80F00100C0B2404208BD30B4054C67
:100A70002368DD69044B0A46AC460146204630BC7B
:100A8000604700BF50250020A086010070B501F02E
:100A900011FA094C094E20800025306823888342D2
:100AA00008D901F001FA336805440133B5F5803FF8
:100AB0003360F2D370BD00BF922300206423002076
:100AC00001F0A2BA00F1006000F5803000687047C4
:100AD00000F10060920000F5803001F031BA0000B2
:100AE000054B1A68054B1B889B1A834202D9104498
:100AF00001F0DAB90020704764230020922300201F
:100B000038B5074D04462868204401F0D5F928B9C6
:100B100028682044BDE8384001F0E6B938BD00BF80
:100B20006423002010F0030309D1B0F5047F04D240
:100B300000F10050A0F508400368184670470023F4
:100B4000FBE70000014BC058704700BF107AFF1F41
:100B5000064991F8243033B10023086A81F8243023
:100B60000822FFF7B5BF0120704700BF68230020AF
:100B7000014B1868704700BF002004E070B52B4B94
:100B80001A68C2F30B030446120C63B140F213401F
:100B9000834231D040F2194083422FD040F22140AD
:100BA00083422DD1032322480C2505FB03035E68F5
:100BB00093F9085042F201039A4224D0B2F5805FC3
:100BC00023D041F201039A4221D041F203039A4219
:100BD0001FD041F207039A4208BF3125621E0A4422
:100BE000741E0B46934216D214F9016F581CA6B11D
:100BF00000F8016C0346F5E70123D4E70223D2E7AE
:100C00000C4E3F25D6E73325E8E74125E6E75A2590
:100C1000E4E75925E2E7184605E02C2482421C70DF
:100C200001D9981C5D70401A70BD00BF002004E01F
:100C30004434000818340008022804D1054B4FF052
:100C400080429A6170470128FCD1024B4FF000525C
:100C5000F7E700BF00000240022804D1054B4FF423
:100C600080429A6170470128FCD1024B4FF4005238
:100C7000F7E700BF00000240022805D1064A536989
:100C800083F48043536170470128FCD1024A5369C1
:100C900083F40053F6E700BF0000024010B50023C4
:100CA000934203D0CC5CC4540133F9E710BD00007B
:100CB00030B5013810F9013F0C466BB194F9005082
:100CC0009D4201F1010107D1551E1AB994F9002086
:100CD000981A30BD2A46EDE7002AF7D11046F8E70A
:100CE00003460246D01A12F9011B0029FAD17047B7
:100CF00002440346934202D003F8011BFAE770470F
:100D00002DE9F843214C154694F8242006460F4659
:100D100072BBDFF87880BDB394F824302BB9202261
:100D2000FF2140462662FFF7E3FF94F82400C0F15C
:100D30000802AA4228BF2A465FFA82F93946920081
:100D400004EB8000FFF7AAFF94F82430A5EB090517
:100D500099445FFA89F9B9F1080F16441744EDB2C6
:100D600084F82490D7D1FFF7F3FE0028D3D108E010
:100D7000236A03EB82038342CBD0FFF7E9FE00280E
:100D8000C7D10020BDE8F8830120FBE768230020DD
:100D9000024B1A78024B1A70704700BF9023002054
:100DA0001022002010B50F4C0F4800F0FBF8214630
:100DB0000D4800F023F924680C48626DD2F804381D
:100DC00043F00203C2F8043800F0BEFD0849204693
:100DD00000F01AFA626DD2F8043823F00203C2F868
:100DE000043810BD383500085025002040420F005F
:100DF000403500087047000000B59BB0EFF3098153
:100E000068226846FFF74AFFEFF30583044B9A6BAD
:100E1000DA6A9A6A9A6A9A6A9A6A9A6A9B6AFEE790
:100E200000ED00E000B59BB0EFF309816822684651
:100E3000FFF734FFEFF30583044B9A6B9A6A9A6AC3
:100E40009A6A9A6A9A6A9B6AFEE700BF00ED00E020
:100E500000B59BB0EFF3098168226846FFF71EFFDB
:100E6000EFF30583034B5A6B9A6A9A6A9A6A9A6AF5
:100E70009B6AFEE700ED00E0FEE7000030B5094D9B
:100E80000A4491420DD011F8013B5840082340F329
:100E90000004013B2C4013F0FF0384EA5000F6D11C
:100EA000EFE730BD2083B8ED02684368114301606D
:100EB00003B118477047000013B5446BD4F894345D
:100EC0001A681178042915D1217C022912D11979C7
:100ED000128901238B4013420CD101A904F14C006B
:100EE00001F014FFD4F89444019B21790246206854
:100EF00000F0D2F902B010BD143001F097BE00002E
:100F00004FF0FF33143001F091BE00004C3001F07F
:100F100069BF00004FF0FF334C3001F063BF0000A9
:100F2000143001F065BE00004FF0FF31143001F0C5
:100F30005FBE00004C3001F035BF00004FF0FF32C3
:100F40004C3001F02FBF000038B5D0F894341A6847
:100F500011780429054601D0012038BD017C022901
:100F6000FAD1587901238340508913EA0004F3D160
:100F700005F1140001F0F6FD02460028ECD0D5F88A
:100F800094544FF480732868697900F073F920460F
:100F9000E3E70000406BFFF7D7BF00000020704779
:100FA000704700007FB5124B036000234360C0E927
:100FB0000233012502260F4B05740446029001936B
:100FC00000F18402294600964FF48073143001F03A
:100FD000A5FD094B0294CDE9006304F523724FF49B
:100FE0008073294604F14C0001F06CFE04B070BD22
:100FF00074340008950F0008B90E00080B68202211
:1010000082F311880A7903EB820290614A790932EE
:1010100043F822008A7912B103EB8203986102231C
:101020000374C0F89414002383F311887047000000
:1010300038B5037F044613B190F85430ABB9201D86
:1010400001250221FFF730FF04F1140025776FF02E
:10105000010100F0A1FC84F8545004F14C006FF041
:101060000101BDE8384000F097BC38BD10B5012142
:1010700004460430FFF718FF0023237784F8543028
:1010800010BD000038B504460025143001F05EFDA7
:1010900004F14C00257701F02DFE201D84F85450FA
:1010A0000121FFF701FF2046BDE83840FFF74CBFA4
:1010B00090F8443003F06003202B07D190F84520CE
:1010C000212A4FF0000303D81F2A06D800207047BA
:1010D000222AFBD1C0E90E3303E0034A82630722D0
:1010E000C2630364012070471122002037B5D0F895
:1010F00094341A681178042904461AD1017C022913
:1011000017D11979128901238B40134211D100F1B3
:101110004C05284601F0AEFE58B101A9284601F061
:10112000F5FDD4F89444019B21790246206800F033
:10113000B3F803B030BD0000F0B500EB810385B01B
:101140009E6904460D46FEB1202383F3118804EB0B
:101150008507301D0821FFF7A7FEFB685B691B6848
:1011600006F14C001BB1019001F0DEFD019803A9CE
:1011700001F0CCFD024648B1039B2946204600F011
:101180008BF8002383F3118805B0F0BDFB685A6922
:101190001268002AF5D01B8A013B1340F1D104F1FB
:1011A0004402EAE7093138B550F82140DCB1202388
:1011B00083F31188D4F894241368527903EB8203E3
:1011C000DB689B695D6845B104216018FFF76CFE20
:1011D000294604F1140001F0CFFC2046FFF7B4FECD
:1011E000002383F3118838BD7047000001F07AB8FE
:1011F000012303700023C0E90133C36183620362EA
:10120000C36243620363704738B50446202383F307
:1012100011880025C0E90355C0E90555416001F07A
:1012200071F80223237085F3118838BD70B500EB87
:10123000810305465069DA600E46144618B1102243
:101240000021FFF755FDA06918B110220021FFF71A
:101250004FFD31462846BDE8704001F01DB9000041
:10126000826802F0011282600022C0E904228261D9
:1012700001F0A0B9F0B400EB81044789E4680125CE
:10128000A4698D403D43458123600023A2606360D3
:10129000F0BC01F0BBB90000F0B400EB8104078999
:1012A000E468012564698D403D4305812360002386
:1012B000A2606360F0BC01F035BA000070B5022393
:1012C000002504460370C0E90255C0E90455C56411
:1012D000856180F8345001F07BF863681B6823B1A6
:1012E00029462046BDE87040184770BD037880F855
:1012F00050300523037043681B6810B504460BB1DA
:10130000042198470023A36010BD000090F85020EE
:10131000436802701B680BB1052118477047000035
:1013200070B590F83430044613B1002380F834309F
:1013300004F14402204601F05FF963689B68B3B989
:1013400094F8443013F0600539D00021204601F0B4
:10135000B1FB0021204601F0A3FB63681B6813B1B9
:10136000062120469847062384F8343070BD204675
:1013700098470028E4D094F84B2094F84A3043EA88
:101380000223E26B9A4288BFE36394F94430E56B31
:10139000002B4FF0200380F20881002D00F0F78031
:1013A000092284F8342083F311880021D4E90E2324
:1013B0002046FFF771FF002383F31188D6E794F8E6
:1013C000452003F07F0343EA022340F202329342B6
:1013D00000F0CA8021D8B3F5807F4DD00DD8012B05
:1013E00044D0022B00F09880002BAED104F14C02C7
:1013F000A2630222E2632364BDE7B3F5817F00F0BC
:10140000A080B3F5407FA0D194F84630012B9CD149
:10141000B4F84C3043F0020337E0B3F5006F52D01C
:101420001CD8B3F5A06F36D0A3F5C063012B8CD8C0
:1014300094F84920616894F848304E6894F8471051
:1014400043EA0223204694F84620B04700283FF4A0
:101450007CAF4368A3630368E3631AE0B3F5106FDE
:1014600036D040F6024293427FF46FAF5B4BA363EA
:101470000223E3630023BEE794F84630012B7FF498
:1014800064AFB4F84C3023F00203C4E90E55A4F85D
:101490004C3025646FE7B4F84430B3F5A06F0ED13B
:1014A00094F8463084F84E30204600F0E9FF636837
:1014B0001B6813B1012120469847032323700023A2
:1014C000C4E90E3397E704F14F03A3630123C3E795
:1014D0002378042B10D1202383F311882046FFF7B3
:1014E000BFFE85F311880321636884F84F50217093
:1014F0001B680BB12046984794F84630002BDED08D
:1015000084F84F300423237063681B68002BD6D007
:10151000022120469847D2E794F848301D0603F090
:101520000F0120460AD501F059F8012804D00228FD
:101530007FF40BAF2A4B9AE72A4B98E701F040F86B
:10154000F3E794F84630002B7FF4FFAE94F8483070
:1015500013F00F01B3D01A06204602D501F0BEFAEF
:10156000ADE701F0B1FAAAE794F84630002B7FF41A
:10157000ECAE94F8483013F00F01A0D01B062046C3
:1015800002D501F097FA9AE701F08AFA97E7142258
:1015900084F8342083F311882B462A4629462046B6
:1015A000FFF768FE85F31188E0E65DB1152284F847
:1015B000342083F311880021D4E90E232046FFF75D
:1015C00059FEF8E60B2284F8342083F311882B4669
:1015D0002A4629462046FFF75FFEE3E7A4340008C9
:1015E0009C340008A034000838B590F83430044624
:1015F000002B42D0063BDAB20F2A38D80F2B36D850
:10160000DFE803F03B3535082636353535353535D9
:1016100035353B3B90F84B1090F84A20C36B42EABB
:101620000122934214D2C268128AB3FBF2F502FB84
:1016300015356DB9202383F311882B462A46294698
:10164000FFF72AFE85F311880A2384F834300EE070
:10165000142384F83430202383F3118800231A469E
:1016600019462046FFF706FE002383F3118838BD94
:10167000036C03B198470023E7E70021204601F0FF
:1016800019FA0021204601F00BFA63681B6813B1B8
:101690000621204698470623D7E7000010B590F8AA
:1016A0003430142B044629D017D8062B05D001D886
:1016B0001BB110BD093B022BFBD80021204601F0D5
:1016C000F9F90021204601F0EBF963681B6813B1BA
:1016D000062120469847062319E0152BE9D10B2354
:1016E00080F83430202383F3118800231A461946EA
:1016F000FFF7D2FD002383F31188DAE7C3689B6903
:101700005B68002BD5D1036C03B19847002384F8A4
:101710003430CEE7024B0022C3E900339A607047B1
:1017200094230020002303748268054B1B6899688A
:101730009142FBD25A680360426010605860704763
:101740009423002008B5202383F31188037C032B06
:1017500005D0042B0DD02BB983F3118808BD436944
:1017600000221A604FF0FF334361FFF7DBFF0023D5
:10177000F2E7D0E9003213605A60F3E70023037404
:101780008268054B1B6899689142FBD85A680360D0
:10179000426010605860704794230020054B19691F
:1017A0000874186802681A60536018610123037492
:1017B000FEF7ACBD9423002030B54B1C0B4D87B019
:1017C000044610D02B690A4A01A800F001F920460E
:1017D000FFF7E4FF049B13B101A800F039F92B696E
:1017E000586907B030BDFFF7D9FFF8E79423002010
:1017F0004517000838B50C4D41612B6981689A681E
:101800009142044603D8BDE83840FFF78BBF184625
:10181000FFF7B4FF01232C61014623742046BDE885
:101820003840FEF773BD00BF94230020044B1A68B4
:101830001B6990689B68984294BF00200120704704
:101840009423002010B5084C236820691A68226090
:101850005460012223611A74FFF790FF014620694A
:10186000BDE81040FEF752BD94230020FFF7EABF09
:10187000FEE7000010B50C4CFFF74CFF00F09AF8A3
:101880000A498022204600F021F8012344F8180C70
:10189000037400F041FC002383F3118862B604480E
:1018A000BDE8104000F032B8BC230020A834000886
:1018B000B834000800F008B9034B59685A68521A46
:1018C0009042FBD8704700BF001000E08260022207
:1018D000028270478368A3F17C0243F80C2C0269F2
:1018E00043F83C2C426943F8382C074A43F81C2C37
:1018F000C26843F8102C022203F8082C002203F8D7
:10190000072CA3F1180070472503000810B5202309
:1019100083F31188FFF7DEFF00210446FFF76AFF1B
:10192000002383F31188204610BD0000024B1B6981
:1019300058610F20FFF732BF94230020202383F348
:101940001188FFF7F3BF000008B50146202383F399
:1019500011880820FFF730FF002383F3118808BDAA
:1019600049B1064B42681B6918605A6013604360B6
:101970000420FFF721BF4FF0FF3070479423002071
:101980000368984206D01A68026050605961184690
:10199000FFF7C8BE7047000038B504460D46206802
:1019A000844200D138BD036823605C604561FFF765
:1019B000B9FEF4E7054B03F11402C3E905224FF029
:1019C000FF310022C3E90712704700BF94230020B3
:1019D00070B5C0E903230C46054601F07DFA1B4AA9
:1019E00003461046164650F8141F81420ED113626A
:1019F0000A2C2CBF181903F10A00C5E9011429604B
:101A0000C2E90555BDE8704001F054BA106A1B1ACE
:101A1000E31838BF1C468B68A34202D9204401F06A
:101A200057FA73699A6894420CD8AC6099685A68FE
:101A30002B600C1B6A6015605D609C604FF0FF338B
:101A4000F36170BD1B68A41AECE700BF942300206B
:101A500038B51C4B5A6990421D460DD0D0E9002183
:101A60000A6051600021C160916880680144916002
:101A70004FF0FF32DA6138BD1A46016842F8141F90
:101A80004A605B6900219342C16003D1BDE83840E0
:101A900001F018BA9A6881680A449A602C6A01F0C9
:101AA0001BFA6B699B68021B9342E4D91C44201A01
:101AB0000928286A98BF02F10A031844BDE8384093
:101AC00001F006BA942300202DE9F041184C0027BC
:101AD00004F11406656901F0FFF9236AAA68C11AC6
:101AE0008A4215D813442362D5E9003213605A6044
:101AF0006369D5F80C80EF60B34201D101F0E2F9DF
:101B000087F311882869C047202383F31188E1E710
:101B10006169B14209D013441B1ABDE8F0410A2B98
:101B20002CBFC0180A3001F0D3B9BDE8F08100BF66
:101B30009423002000207047FEE70000704700005B
:101B40004FF0FF307047000002290CD0032904D069
:101B50000129074818BF00207047032A05D8054807
:101B600000EBC2007047044870470020704700BF78
:101B70009C350008202200205035000870B59AB02E
:101B800001AE054608463146144600F0C1F830461D
:101B9000FFF7A6F8431C5B00C5E90034237003235C
:101BA00063700023C1B202341846DAB2914204F1E4
:101BB000020401D81AB070BDF25C04F8022C04F8DB
:101BC000010C0133F1E7000008B5202383F31188ED
:101BD0000348FFF78BFA002383F3118808BD00BF89
:101BE0005025002090F8443003F01F02012A07D14D
:101BF00090F845200B2A03D10023C0E90E3315E0ED
:101C000003F06003202B08D1B0F848302BB990F8CE
:101C10004520212A03D81F2A04D8FFF749BA222ACF
:101C2000EBD0FAE7034A82630722C2630364012010
:101C3000704700BF1822002007B5052917D8DFE834
:101C400001F0191603191920202383F31188104A73
:101C500001900121FFF7EAFA01980E4A0221FFF7ED
:101C6000E5FA0D48FFF70EFA002383F3118803B05D
:101C70005DF804FB202383F311880748FFF7D8F9A8
:101C8000F2E7202383F311880348FFF7EFF9EBE72E
:101C9000F0340008143500085025002038B50C4DEC
:101CA0000C4C0D492A4604F10800FFF767FF05F1C7
:101CB000CA0204F110000949FFF760FF05F5CA7276
:101CC00004F118000649BDE83840FFF757BF00BFD0
:101CD000182A002020220020D0340008DA3400081E
:101CE000E534000870B5044608460D46FEF7F8FFD7
:101CF000C6B22046013403780BB9184670BD32468F
:101D00002946FEF7D5FF0028F3D10120F6E70000B1
:101D10002DE9F04705460C46FEF7E2FF2B49C6B217
:101D20002846FFF7DFFF08B10736F6B228492846F4
:101D3000FFF7D8FF08B11036F6B2632E0BD8DFF8E4
:101D40008C80DFF88C90234FDFF894A02E7846B972
:101D50002670BDE8F08729462046BDE8F04701F02F
:101D600053BB252E2ED1072241462846FEF7A0FF61
:101D700070B9194B224603F10C0153F8040B42F8D9
:101D8000040B8B42F9D11B88138007350E34DDE735
:101D9000082249462846FEF78BFF98B90F4BA21C34
:101DA000197809090232C95D02F8041C13F8011BF5
:101DB00001F00F015345C95D02F8031CF0D118343E
:101DC0000835C3E704F8016B0135BFE7BC350008EF
:101DD000E5340008D3350008C4350008107AFF1F29
:101DE0001C7AFF1FBFF34F8F024AD368DB03FCD47A
:101DF000704700BF003C024008B5094B1B7873B91F
:101E0000FFF7F0FF074B1A69002ABFBF064A5A6066
:101E100002F188325A601A6822F480621A6008BDA2
:101E2000762C0020003C02402301674508B50B4B8F
:101E30001B7893B9FFF7D6FF094B1A6942F00042AD
:101E40001A611A6842F480521A601A6822F48052A9
:101E50001A601A6842F480621A6008BD762C00206D
:101E6000003C02400B28F0B516D80C4A0C4C1178F7
:101E700079B90C4D26460C234FF0006155F8047BD0
:101E800046F8041B013B13F0FF033944F6D101234C
:101E9000137054F82000F0BD0020FCE7A82C0020AF
:101EA000782C0020E4350008014B53F820007047DF
:101EB000E43500080C2070470B2810B5044601D902
:101EC000002010BDFFF7CEFF064B53F82430184416
:101ED000C21A0BB90120F4E712680132F0D1043BB9
:101EE000F6E700BFE43500080B2810B5044621D8FA
:101EF000FFF778FFFFF780FF0F4AF323D360C3009B
:101F0000DBB243F4007343F002031361136943F43B
:101F100080331361FFF766FFFFF7A4FF074B53F809
:101F2000241000F0D5F8FFF781FF2046BDE81040EF
:101F3000FFF7C2BF002010BD003C0240E43500089E
:101F4000F8B512F00103154642D18218B2F1016FC3
:101F500053D82B4B1B6813F001034ED0294CFFF7CD
:101F60004BFFF323E360FFF73DFF40F20127032D12
:101F700015D825F00105234C6E18401A40F20117C0
:101F8000B142236900EB010524D123F00103236151
:101F9000FFF74CFF0120F8BD043D0430E7E783075D
:101FA000E7D1236923F44073236123693B43236111
:101FB00051F8046B0660BFF34F8FFFF713FF036800
:101FC0009E42E9D0236923F001032361FFF72EFF2E
:101FD0000020E0E723F44073236123693B4323613E
:101FE0000B882B80BFF34F8FFFF7FCFE2D8831F855
:101FF000023BADB2AB42C3D0E4E71846CBE700BF2B
:1020000000380240003C0240084908B50B7828B16E
:102010001BB9FFF7F1FE01230B7008BD002BFCD0AC
:10202000BDE808400870FFF701BF00BF762C002014
:1020300010B50244064BD2B2904200D110BD441CF0
:1020400000B253F8200041F8040BE0B2F4E700BFFF
:10205000502800400F4B30B51C6F240407D41C6F70
:1020600044F400741C671C6F44F400441C670A4C61
:10207000236843F4807323600244084BD2B2904239
:1020800000D130BD441C00B251F8045B43F820502D
:10209000E0B2F4E7003802400070004050280040F1
:1020A00007B5012201A90020FFF7C2FF019803B084
:1020B0005DF804FB13B50446FFF7F2FFA04205D01C
:1020C000012201A900200194FFF7C4FF02B010BD56
:1020D00070470000034B1B689B0042BF024B01226C
:1020E0001A70704774380240A92C0020014B1878F0
:1020F000704700BFA92C0020EFF3098305494A6807
:1021000022F001024A60683383F30988002383F3D5
:102110001188704730EF00E0202080F3118862B60C
:102120000B4B0C4AD96821F4E0610904090C0A43FD
:102130000949DA60CA6842F08072CA6007490A68D1
:1021400042F001020A601022DA7783F82200704719
:1021500000ED00E00003FA05F0ED00E0001000E003
:1021600010B5202383F311880E4B5B6813F40063D2
:1021700014D0F1EE103AEFF30984683C4FF080730D
:10218000E361094BDB68236684F30988FFF74EFBA4
:1021900010B1064BA36110BD054BFBE783F311881B
:1021A000F9E700BF00ED00E030EF00E03703000882
:1021B0003A03000870470000FEE70000084A094B98
:1021C00009498B4204D3094A0021934205D3704741
:1021D00052F8040B43F8040BF3E743F8041BF4E74D
:1021E00080370008A42D0020A42D0020A42D00205D
:1021F0007047000070B5D0E915439E6800224FF08B
:10220000FF3504EB42135101D3F800090028BEBF8B
:10221000D3F8000940F08040C3F80009D3F8000B60
:102220000028BEBFD3F8000B40F08040C3F8000B7D
:10223000013263189642C3F80859C3F8085BE0D22C
:102240004FF00113C4F81C3870BD0000890141F043
:102250002001016103699B06FCD41220FFF72CBB0F
:102260001F4B03EB80022DE9F043D2F80CC05D6DEB
:10227000DCF81420461CD2F800E005EB063605EB2E
:102280004018516871450BD3D5F83428012303FA5F
:1022900000F022EA0000C5F834081846BDE8F083D3
:1022A000BCF81040AEEB0103A34228BF2346D8F888
:1022B0001849A4B2B3EB840F0FD89468A4F10409B1
:1022C00059F8047F3760A4EB09071F44042FF7D89F
:1022D0001C440B4494605360D3E70020DEE700BF4A
:1022E000AC2C002010B5054C2046FEF781FF4FF0C6
:1022F000A0436365024BA36510BD00BFAC2C00205A
:102300003836000870B50378012B054650D12A4BAA
:10231000446D98421BD1294B5A6B42F080025A639C
:102320005A6D42F080025A655A6D5A6942F0800235
:102330005A615A6922F080025A610E2143205B697A
:1023400000F0D6FB1E4BE3601E4BC4F800380023A0
:10235000C4F8003EC02323606E6D4FF40413A363E2
:102360003369002BFCDA012333610C20FFF7A4FA58
:102370003369DB07FCD41220FFF79EFA3369002B88
:10238000FCDA0026A6602846FFF734FF6B68C4F825
:102390001068DB68C4F81468C4F81C684BB90A4BB1
:1023A000A3614FF0FF336361A36843F00103A360AF
:1023B00070BD064BF4E700BFAC2C00200038024093
:1023C0004014004003002002003C30C0083C30C0F4
:1023D000F8B5446D054600212046FFF737FFA96D8B
:1023E00000234FF001128F68C4F834384FF00066B4
:1023F000C4F81C284FF0FF3004EB431201339F4216
:10240000C2F80069C2F8006BC2F80809C2F8080BEC
:10241000F2D20B686A6DEB65636210231361166973
:1024200016F01006FBD11220FFF746FAD4F8003858
:1024300023F4FE63C4F80038A36943F4402343F057
:102440001003A3610923C4F81038C4F814380A4BE8
:10245000EB604FF0C043C4F8103B084BC4F8003B9E
:10246000C4F81069C4F80039EB6D03F1100243F4AD
:102470008013EA65A362F8BD14360008408000109E
:10248000426D90F84E10D2F8003823F4FE6343EA10
:102490000113C2F8003870472DE9F84300EB8108BA
:1024A000456DD8F80C20166806F00306731E022B43
:1024B00005EB41130C460FFA81F94FEA41174FF033
:1024C0000001C3F8101B04F110034FF0010198BF85
:1024D000B60401FA03F193698EBF344E06F18056BB
:1024E00006F50046002B3CD0B2F812C004F15803A8
:1024F0005B014CEA060C45F803C0D5F81C381943BB
:10250000EB19C5F81C180021C3F8101953690127ED
:10251000611EA74093B3138A928B9B08012A88BF40
:102520005343C26D03EB020C42EA034301F1400244
:1025300005EB8202C0F85CC0214653602846FFF7D5
:1025400085FED8F80C301B8A43EA84534834640172
:102550001E432E51D5F81C381F43C5F81C78BDE822
:10256000F88305EB491CDCF8003B23F40043CCF86E
:10257000003BD5F81C3823EA0101C1E704F13F0311
:1025800005EB83030A4A5A6005EB491921462846A0
:10259000FFF75CFED9F8003923F40043C9F800398D
:1025A000D5F81C3823EA0707D7E700BF00800010E2
:1025B00000040002826D1268C265FFF71BBE0000B6
:1025C0005831436D49015B5813F4004004D013F4B3
:1025D000001F0CBF02200120704700004831436DEE
:1025E00049015B5813F4004004D013F4001F0CBFE2
:1025F000022001207047000000EB8101CB68196ABE
:102600000B6813604B6853607047000000EB810358
:1026100030B5DD68AA691368D36019B9402B84BF4F
:10262000402313606B8A1468426D1C44013CB4FB68
:10263000F3F46343033323F0030302EB411043EA53
:10264000C44343F0C043C0F8103B2B6803F00303BE
:10265000012B09B20ED1D2F8083802EB411013F465
:10266000807FD0F8003B14BF43F0805343F0005309
:10267000C0F8003B02EB4112D2F8003B43F00443A8
:10268000C2F8003B30BD00002DE9F041244D6E6DD5
:1026900006EB40130446D3F8087BC3F8087B3807E1
:1026A0000AD5D6F81438190706D505EB8403214658
:1026B000DB6828465B689847FA071FD5D6F81438B8
:1026C000DB071BD505EB8403D968CCB98B69488A35
:1026D0005E68B6FBF0F200FB12628AB91868DA682D
:1026E00090420DD2121AC3E90024202383F31188EB
:1026F0000B482146FFF78AFF84F31188BDE8F0817B
:10270000012303FA04F26B8923EA02036B81CB688D
:10271000002BF3D021460248BDE8F041184700BF26
:10272000AC2C002000EB810370B5DD68436D6C6953
:102730002668E6604A0156BB1A444FF40020C2F8EE
:1027400010092A6802F00302012A0AB20ED1D3F856
:10275000080803EB421410F4807FD4F8000914BF7A
:1027600040F0805040F00050C4F8000903EB4212E2
:10277000D2F8000940F00440C2F80009D3F8340848
:10278000012202FA01F10143C3F8341870BD19B9EE
:10279000402E84BF4020206020682E8A8419013C8E
:1027A000B4FBF6F440EAC44040F000501A44C6E7D7
:1027B000F8B504461E48456D05EB4413D3F8086987
:1027C000C3F80869F10717D5D5F81038DA0713D51B
:1027D00000EB8403D9684B691F68DA68974218D206
:1027E000D21B00271A605F60202383F311882146E3
:1027F000FFF798FF87F31188330617D5D5F83428EB
:102800000123A340134211D02046BDE8F840FFF752
:1028100027BD012303FA04F2038923EA020303819B
:102820008B68002BE8D021469847E5E7F8BD00BF4C
:10283000AC2C00202DE9F74F9848466D7569B369B7
:102840001D4015F480587561044606D0FEF736FD2C
:1028500003B0BDE8F04FFFF783BC002D12DAD6F8C5
:10286000003E8E489F071EBFD6F8003E23F00303AC
:10287000C6F8003ED6F8043823F00103C6F8043841
:10288000FEF744FD280505D58448FFF7B3FC8348CF
:10289000FEF72CFDA9040CD5D6F8083813F0060F66
:1028A000F36823F470530CBF43F4105343F4A05364
:1028B000F3602A0704D56368DB680BB17748984753
:1028C000EB0274D4AF0227D5D4F85490DFF8CCB122
:1028D00000274FF0010A09EB4712D2F8003B03F43E
:1028E0004023B3F5802F11D1D2F8003B002B0DDA35
:1028F00062890AFA07F322EA0303638104EB870380
:10290000DB68DB6813B1394658469847A36D013739
:102910009B68FFB29F42DED9E80617D5676D3A6A19
:10292000C2F30A1002F00F0302F4F012B2F5802F86
:1029300000F08880B2F5402F08D104EB8303002219
:10294000DB681B6A07F5805790426DD12903D6F8E2
:10295000184813D5E20302D50020FFF795FEA30324
:1029600002D50120FFF790FE670302D50220FFF792
:102970008BFE260302D50320FFF786FE6D037FF54D
:1029800067AFE00702D50020FFF712FFA10702D5CD
:102990000120FFF70DFF620702D50220FFF708FFB5
:1029A00023077FF555AF0320FFF702FF50E7636D64
:1029B000DFF8E8B0019300274FF0010AA36D9B6890
:1029C0005FFA87F94B45FFF47DAF019B03EB491399
:1029D000D3F8002902F44022B2F5802F22D1D3F897
:1029E0000029002A1EDAD3F8002942F09042C3F8E9
:1029F0000029D3F80029002AFBDB606D4946FFF768
:102A000025FC22890AFA09F322EA0303238104EB55
:102A10008903DB689B6813B1494658469847484686
:102A2000FFF71EFC0137C9E7910708BFD7F8008000
:102A3000072A98BF03F8018B02F1010298BF4FEA01
:102A4000182881E7023304EB830207F580575268A8
:102A5000D2F818C0DCF80820DCE9001CA1EB0C0C53
:102A6000002188420AD104EB830463689B699A6859
:102A700002449A605A681044586067E711F0030FE7
:102A800008BFD7F800808C4588BF02F8018B01F1A0
:102A9000010188BF4FEA1828E3E700BFAC2C0020F3
:102AA000436D03EB4111D1F8003B43F40013C1F82F
:102AB000003B7047436D03EB4111D1F8003943F4FB
:102AC0000013C1F800397047436D03EB4111D1F891
:102AD000003B23F40013C1F8003B7047436D03EB48
:102AE0004111D1F8003923F40013C1F800397047BF
:102AF00000F1604303F561430901C9B283F8001393
:102B0000012200F01F039A4043099B0003F1604338
:102B100003F56143C3F880211A60704730B5039C08
:102B20000172043304FB0325C0E90653049B0363CD
:102B30000021059BC160C0E90000C0E90422C0E992
:102B40000842C0E90A11436330BD0000416A002217
:102B5000C0E90411C0E90A22C2606FF00101FEF76A
:102B60001BBF0000D0E90432934201D1C2680AB908
:102B7000181D70470020704703691960C268013250
:102B8000C260C269134482690361934224BF436AED
:102B900003610021FEF7F4BE38B504460D46E36834
:102BA0003BB16269131D1268A3621344E362002003
:102BB00007E0237A33B929462046FEF7D1FE0028E4
:102BC000EDDA38BD6FF00100FBE70000C368C269B1
:102BD000013BC3604369134482694361934224BF4C
:102BE000436A436100238362036B03B11847704754
:102BF00070B52023044683F31188866A3EB9FFF737
:102C0000CBFF054618B186F31188284670BDA36A2C
:102C1000E26A13F8015BA362934202D32046FFF7F6
:102C2000D5FF002383F31188EFE700002DE9F84F6B
:102C300004460E4690469946202787F311880025C2
:102C4000AA46D4F828B0BBF1000F09D14946204666
:102C5000FFF7A2FF20B18BF311882846BDE8F88F5B
:102C6000D4E90A12A8EB050B521A934528BF9346E4
:102C7000BBF1400F1BD9334601F1400251F8040B60
:102C800043F8040B9142F9D1A36A40334036A36262
:102C90004035D4E90A239A4202D32046FFF796FF33
:102CA0008AF311884545D8D287F31188C9E73046A1
:102CB0005A46FDF7F3FFA36A5B445E44A3625D449A
:102CC000E7E7000010B5029C0172043304FB032106
:102CD000C0E906130023C0E90A33039B0363049B86
:102CE000C460C0E90000C0E90422C0E908424363AF
:102CF00010BD0000026AC260426AC0E904220022DC
:102D0000C0E90A226FF00101FEF746BED0E90423B4
:102D10009A4201D1C26822B9184650F8043B0B60B0
:102D20007047002070470000C368C2690133C36068
:102D30004369134482694361934224BF436A4361F8
:102D40000021FEF71DBE000038B504460D46E368BD
:102D50003BB123691A1DA262E2691344E3620020B9
:102D600007E0237A33B929462046FEF7F9FD00280B
:102D7000EDDA38BD6FF00100FBE700000369196070
:102D8000C268013AC260C269134482690361934216
:102D900024BF436A036100238362036B03B11847B6
:102DA0007047000070B520230D460446114683F39A
:102DB0001188866A2EB9FFF7C7FF10B186F3118814
:102DC00070BDA36A1D70A36AE26A01339342A362D5
:102DD00004D3E16920460439FFF7D0FF002080F3D7
:102DE0001188EDE72DE9F84F04460D4691469A46C5
:102DF0004FF0200888F311880026B346A76A4FB920
:102E000051462046FFF7A0FF20B187F311883046D6
:102E1000BDE8F88FD4E90A073A1AA9EB06079742EA
:102E200028BF1746402F1BD905F1400355F8042B46
:102E300040F8042B9D42F9D1A36A4033A362403687
:102E4000D4E90A239A4204D3E16920460439FFF702
:102E500095FF8BF311884E45D9D288F31188CDE7C1
:102E600029463A46FDF71AFFA36A3B443D44A36254
:102E70003E44E5E7D0E904239A4217D1C3689BB1E9
:102E8000836A8BB1043B9B1A0ED01360C368013B6D
:102E9000C360C3691A44836902619A4224BF436ACA
:102EA0000361002383620123184670470023FBE778
:102EB00000F090B84FF08043002258631A6102225C
:102EC000DA6070474FF080430022DA6070470000FC
:102ED0004FF08043586370474FF08043586A704703
:102EE0004B6843608B688360CB68C3600B69436148
:102EF0004B6903628B6943620B6803607047000093
:102F000008B5224B22481A6940F2FF110A431A61A0
:102F10001A6922F4FF7222F001021A611A691A6B0F
:102F20000A431A631A6D0A431A651A4A1B6D114641
:102F3000FFF7D6FF184802F11C01FFF7D1FF174831
:102F400002F13801FFF7CCFF154802F15401FFF7F9
:102F5000C7FF144802F17001FFF7C2FF124802F1E7
:102F60008C01FFF7BDFF114802F1A801FFF7B8FF80
:102F70000F4802F1C401FFF7B3FF0E4802F1E00170
:102F8000FFF7AEFFBDE8084000F0AAB800380240E5
:102F900000000240443600080004024000080240DD
:102FA000000C0240001002400014024000180240D1
:102FB000001C02400020024008B500F007FAFEF7AE
:102FC00059FCFFF787F8BDE80840FEF767BE000030
:102FD00070470000104B1A6C42F001021A641A6E1E
:102FE00042F001021A660D4A1B6E936843F001031A
:102FF00093604FF0804353229A624FF0FF32DA62BF
:1030000000229A615A63DA605A6001225A610821EB
:103010001A601C20FFF76CBD00380240002004E05D
:103020004FF0804208B51169D3680B40D9B2C9434B
:103030009B07116107D5202383F31188FEF73AFC23
:10304000002383F3118808BD08B5FFF7E9FFBDE849
:103050000840FFF785B800001F4B1A696FEAC2529B
:103060006FEAD2521A611A69C2F308021A614FF06C
:10307000FF301A695A69586100215A6959615A69C1
:103080001A6A62F080521A621A6A02F080521A6258
:103090001A6A5A6A58625A6A59625A6A1A6C42F033
:1030A00080521A641A6E42F080521A661A6E0B4AE7
:1030B000106840F480701060186F00F44070B0F534
:1030C000007F1EBF4FF4803018671967536823F4E0
:1030D0000073536000F05AB900380240007000409D
:1030E000334B4FF080521A64324A4FF44041116022
:1030F0001A6842F001021A601A689207FCD59A68B1
:1031000022F003029A602A4B19469A6812F00C02C8
:10311000FBD1186800F0F90018609A601A6842F450
:1031200080321A600B689B03FCD54B6F43F00103A0
:103130004B671F4B5A6F9007FCD51F4A5A601A689D
:1031400042F080721A601B4A53685904FCD5184B30
:103150001A689201FCD5194A9A60194B1A68194BE2
:103160009A42194B21D1194A1168194A91421CD12E
:1031700040F205121A60144A136803F00F03052B7E
:10318000FAD10B4B9A6842F002029A609A6802F0F8
:103190000C02082AFAD15A6C42F480425A645A6EE0
:1031A00042F480425A665B6E704740F20572E1E776
:1031B00000380240007000400854400700948838EE
:1031C000002004E011640020003C024000ED00E01B
:1031D00041C20F41084A08B5516913680B4003F01A
:1031E0000103536123B1054A13680BB15068984736
:1031F000BDE80840FEF7B4BF003C0140242D00208C
:10320000084A08B5516913680B4003F00203536183
:1032100023B1054A93680BB1D0689847BDE80840D0
:10322000FEF79EBF003C0140242D0020084A08B54F
:10323000516913680B4003F00403536123B1054A3D
:1032400013690BB150699847BDE80840FEF788BF85
:10325000003C0140242D0020084A08B5516913683C
:103260000B4003F00803536123B1054A93690BB186
:10327000D0699847BDE80840FEF772BF003C0140A6
:10328000242D0020084A08B5516913680B4003F04B
:103290001003536123B1054A136A0BB1506A984772
:1032A000BDE80840FEF75CBF003C0140242D002033
:1032B000174B10B55A691C68144004F478725A61AF
:1032C000A30604D5134A936A0BB1D06A98476006E7
:1032D00004D5104A136B0BB1506B9847210604D5E7
:1032E0000C4A936B0BB1D06B9847E20504D5094AA1
:1032F000136C0BB1506C9847A30504D5054A936C29
:103300000BB1D06C9847BDE81040FEF729BF00BF55
:10331000003C0140242D00201A4B10B55A691C684E
:10332000144004F47C425A61620504D5164A136DB8
:103330000BB1506D9847230504D5134A936D0BB11B
:10334000D06D9847E00404D50F4A136E0BB1506E50
:103350009847A10404D50C4A936E0BB1D06E9847E0
:10336000620404D5084A136F0BB1506F98472304C9
:1033700004D5054A936F0BB1D06F9847BDE8104054
:10338000FEF7EEBE003C0140242D0020062108B5CA
:103390000846FFF7ADFB06210720FFF7A9FB062132
:1033A0000820FFF7A5FB06210920FFF7A1FB062156
:1033B0000A20FFF79DFB06211720FFF799FBBDE8C8
:1033C000084006212820FFF793BB000008B5FFF74F
:1033D00043FE00F00BF8FDF709FFFDF7E1FDFFF7F5
:1033E000F7FDBDE80840FFF763BD00000023054A74
:1033F00019460133102BC2E9001102F10802F8D17D
:10340000704700BF242D0020034611F8012B03F85C
:10341000012B002AF9D1704753544D3332463F3FB8
:103420003F00000053544D3332463430780053543B
:103430004D3332463432780053544D3332463434AF
:103440003658580000000000183400083F00000003
:1034500013040000243400083F0000001904000099
:103460002E3400083F00000021040000383400081A
:103470003F00000000000000150F0008010F0008C9
:103480003D0F0008290F0008350F0008210F000824
:103490000D0F0008F90E00089D0F00080000000045
:1034A00001000000000000006D61696E0000000076
:1034B00069646C6500000000B0340008D823002067
:1034C00050250020010000007118000800000000D5
:1034D0004172647550696C6F740025424F415244CB
:1034E000252D424C002553455249414C25000000F2
:1034F000020000000000000039110008A5110008BA
:1035000040004000E8290020F829002002000000C7
:10351000000000000300000000000000E9110008A6
:103520000000000010000000082A00200000000039
:103530000100000000000000AC2C0020010102008E
:10354000391C0008491B0008E51B0008C91B0008BE
:10355000430000005835000809024300020100C082
:1035600032090400000102020100052400100105D7
:10357000240100010424020205240600010705823B
:10358000030800FF09040100020A0000000705010A
:103590000240000007058102400000001200000008
:1035A000A435000812011001020000400912415721
:1035B00000020102030100000403090425424F41F7
:1035C000524425004D6174656B463430352D576982
:1035D0006E67003031323334353637383941424343
:1035E000444546000040000000400000004000004C
:1035F0000040000000000100000002000000020086
:1036000000000200000002000000020000000200B2
:10361000000002000000000021130008E915000866
:103620009D160008400040000C2D00200C2D0020AD
:10363000010000001C2D002080000000400100005F
:10364000030000000001801600000000AAAAAAAA38
:1036500000010000FF9F00000000000000A00A0021
:103660000000000100000000AAAAAAAA00000001B0
:10367000FFFF00000000000000000000000000103C
:1036800000000000AAAAAAAA00000010FFFF000084
:10369000000000000000000000000000000000002A
:1036A000AAAAAAAA00000000FFFF00000000000074
:1036B000000000000000000000000000AAAAAAAA62
:1036C00000000000FFFF00000000000000000000FC
:1036D0000000000000000000AAAAAAAA0000000042
:1036E000FFFF0000000000000000000000000000DC
:1036F00000000000AAAAAAAA00000000FFFF000024
:1037000000000000000000000000000000000000B9
:103710000A0000000000000003000000000000009C
:103720000000000000000000000000000000000099
:103730000000000000000000000000000000000089
:103740007F0000000000000000000F0000000000EB
:10375000FF0096000000000800960000000008002E
:1037600004000000B8350008000000000000000060
:103770000000000000000000000000000000000049
:00000001FF
