:020000040800F2
:100000000006022001020008AD0E00082D0E0008B7
:10001000850E00082D0E0008590E00080302000886
:1000200003020008030200080302000891210008EF
:10003000030200080302000803020008030200088C
:10004000030200080302000803020008030200087C
:100050000302000803020008D93200080133000837
:1000600029330008513300087933000803020008DF
:10007000030200080302000803020008030200084C
:10008000030200080302000803020008030200083C
:10009000030200080302000803020008A13300085D
:1000A000030200080302000803020008030200081C
:1000B0007534000803020008030200080302000868
:1000C00003020008030200080302000803020008FC
:1000D00003020008030200080302000803020008EC
:1000E00005340008030200080302000803020008A8
:1000F00003020008030200080302000803020008CC
:1001000003020008030200080302000803020008BB
:1001100003020008030200080302000803020008AB
:10012000030200080302000803020008030200089B
:10013000030200080302000803020008030200088B
:10014000030200080302000803020008392900081E
:10015000030200080302000803020008030200086B
:10016000030200080302000803020008030200085B
:10017000030200080302000803020008030200084B
:10018000030200080302000803020008030200083B
:10019000030200080302000803020008030200082B
:1001A000030200080302000803020008030200081B
:1001B000030200080302000803020008030200080B
:1001C00003020008030200080302000803020008FB
:1001D00003020008030200080302000803020008EB
:1001E00003020008030200080302000803020008DB
:1001F00003020008030200080302000803020008CB
:1002000002E000F000F8FEE772B63A4880F3088892
:10021000394880F3098839484EF60851CEF200017A
:10022000086040F20000CCF200004EF63471CEF2CD
:1002300000010860BFF34F8FBFF36F8F40F20000E3
:10024000C0F2F0004EF68851CEF200010860BFF314
:100250004F8FBFF36F8F4FF00000E1EE100A4EF6A4
:100260003C71CEF200010860062080F31488BFF3D1
:100270006F8F02F04BF801F0EDFF02F0CFFE4FF070
:1002800055301F491B4A91423CBF41F8040BFAE725
:100290001C49194A91423CBF41F8040BFAE71A493C
:1002A0001A4A1B4B9A423EBF51F8040B42F8040B0A
:1002B000F8E700201749184A91423CBF41F8040B67
:1002C000FAE702F005F802F009FF144C144DAC42B5
:1002D00003DA54F8041B8847F9E700F041F8114CA1
:1002E000114DAC4203DA54F8041B8847F9E701F0DA
:1002F000EDBF0000000602200022022000000008DE
:1003000000000220000602204838000800220220D7
:100310006822022068220220F83102200002000830
:100320000002000800020008000200082DE9F04F5A
:100330002DED108AC1F80CD0D0F80CD0BDEC108A8D
:10034000BDE8F08F002383F311882846A0470020E2
:1003500001F02AFBFEE701F0A5FA00DFFEE700004E
:1003600038B500F09DFC40B1174B6FF07F010022C3
:1003700059720E211A729972DA7201F0C9FE05469D
:1003800001F0FCFE0446D0B9104B9D4219D0013358
:100390009D4241F2883512BF044600250124002009
:1003A00001F0C0FE0CB100F059F800F015FD00F0AE
:1003B000B9FB284600F0E0F800F050F8F9E7002516
:1003C000EDE70546EBE700BF00220220010007B081
:1003D00008B500F07BFBA0F120035842584108BD4E
:1003E00007B541F21203022101A8ADF8043000F074
:1003F00089FB03B05DF804FB202310B583F311885B
:100400001248C3680BB101F055FB0023104A4FF4AA
:100410007A710E4801F012FB002383F311880D4C12
:10042000236813B12368013B2360636813B16368D9
:10043000013B6360084B1B7833B9636823B9022022
:1004400000F044FC3223636010BD00BF682202202C
:10045000F9030008842302207C220220F8B5404BD7
:10046000404A1C461968013179D004339342F9D1CE
:100470006268A24273D33C4B9B6803F1006303F5AF
:10048000C0339A426BD2002000F066FB0220374B4B
:10049000187000F011FC364B00211A6C19641A6EAA
:1004A00019661A6E5A6C59645A6E59665A6E5A69B0
:1004B00042F080025A615A6922F080025A615A69F8
:1004C0001A6942F000521A611A6922F000521A6148
:1004D0001B6972B64FF0E023C3F8084DD4E900045D
:1004E000BFF34F8FBFF36F8F224AC2F88410BFF360
:1004F0004F8F536923F480335361BFF34F8FD2F88A
:10050000803043F6E076C3F3C905C3F34E335B0195
:1005100003EA060C29464CEA81770139C2F8747265
:10052000F9D2203B13F1200FF2D1BFF34F8FBFF36D
:100530006F8FBFF34F8FBFF36F8F536923F4003377
:1005400053610023C2F85032BFF34F8FBFF36F8F58
:10055000202383F31188854680F308882047F8BD5F
:100560000080010820800108002202207C22022055
:100570000038024000ED00E02DE9F04F93B0B64B9B
:100580002022FF2100900AA89D6800F0CFFBB34A0B
:100590001378A3B90121B2481170C360202383F3FB
:1005A0001188C3680BB101F085FA0023AD4A4FF4FE
:1005B0007A71AB4801F042FA002383F31188009B63
:1005C000A94A03B113600023A849009C98469B46A2
:1005D0001E469A460B705360012000F06DFB24B15B
:1005E000A14B1B68002B00F01382002000F06EFA74
:1005F0000390039B002BF2DB012000F053FB039BD5
:10060000213B162BE8D801A252F823F06906000816
:100610009106000823070008D9050008D90500083D
:10062000D9050008B707000885090008A1080008D7
:1006300001090008290900084F090008D905000828
:1006400061090008D9050008D30900080707000858
:10065000D9050008170A00087506000807070008F2
:10066000D9050008010900080220FFF7B1FE0028A3
:1006700040F0F881009B022105A8B8F1000F08BFE7
:100680001C4641F21233ADF8143000F03BFAA3E7F8
:100690004FF47A7000F01AFA071EEBDB0220FFF726
:1006A00097FE0028E6D0013F052F00F2DD81DFE84C
:1006B00007F0030A0D1013350523042105A805933F
:1006C00000F020FA17E004216348F9E704216848A4
:1006D000F6E704216748F3E74FF01C09484609F1A3
:1006E000040900F03BFA0421059005A800F00AFA7D
:1006F000B9F12C0FF2D101234FF0000ABB404BEAB5
:1007000003035FFA83FB00F05DFB26B10BF00B03E4
:100710000B2B08BF0024FFF763FE5DE7042156485A
:10072000CEE7002EA6D00BF00B030B2BA2D102209C
:10073000FFF74EFE074600289CD001204B4E00F0EC
:100740000BFA4FF000080220307000F0B5FA5FFAA3
:1007500088F9484600F010FA044688B90123254676
:100760000220337000F09EFA3B4B9B68AB421AD8D4
:1007700000253E4BB8463E461D703B4B5D60C2E7D0
:10078000484608F1010800F007FA0028DFD1B84612
:10079000044641F21213022105A83E46ADF814307A
:1007A00000F0B0F918E7284600F0D8F9013040F021
:1007B0005E810435D8E7002E3FF45CAF0BF00B03ED
:1007C0000B2B7FF457AF0220284B187000F074FAFF
:1007D000322000F07BF9B0F10009FFF64BAF19F0C1
:1007E00003077FF447AF1C4A09EB05039268934265
:1007F0003FF640AFB9F5807F3FF73CAF1F4BB9459F
:100800003EDCC820FFF7E4FD074600283FF432AF86
:100810001F2D11D8C5F120020AAB25F0030017499E
:100820004A45184428BF4A46019200F059FA019AF5
:10083000FF21124800F07AFA4FEAA903C9F38702B0
:100840000E492846019300F079FA06460028A0D008
:10085000019B05EB830556E700220220802302203E
:1008600068220220F9030008842302207C2202204F
:1008700004220220082202200C22022080220220D0
:100880004FF47A70019300F021F90390039A002A43
:10089000FFF6F0AE039A0137019B03F8012BAEE798
:1008A0000220FFF795FD00283FF4E4AE00F09EF92A
:1008B00000283FF4DFAE0027B94612E01F2F1BD8F7
:1008C0000A9B013318D027F0030348336B4453F8D5
:1008D000200C05900422484605A900F0E9FA0437E7
:1008E0008146654B9B68BB42E8D8CDF81490042143
:1008F00005A800F007F906E7384600F02FF9E8E709
:100900000023642104A8049300F0F4F800287FF485
:10091000B1AE0220FFF75CFD00283FF4ABAE0498B7
:1009200000F04CF90590E2E70023642104A8049349
:1009300000F0E0F800287FF49DAE0220FFF748FDAC
:1009400000283FF497AE049800F048F9EAE7022047
:10095000FFF73EFD00283FF48DAE00F057F9E1E7C8
:100960000220FFF735FD00283FF484AE05A91420CE
:1009700000F052F907460421049004A800F0C2F8E0
:100980003946B5E7322000F0A1F8071EFFF672AE37
:10099000BB077FF46FAE384A07EB0A0392689342B5
:1009A0003FF668AE0220FFF713FD00283FF462AE69
:1009B00027F003075744BA453FF4A5AE50460AF165
:1009C000040A00F0CBF80421059005A800F09AF87D
:1009D000F1E74FF47A70FFF7FBFC00283FF44AAED2
:1009E00000F004F9002844D00A9B01330BD0082200
:1009F0000AA9002000F0A2F900283AD02022FF2105
:100A00000AA800F093F9FFF7EBFC1C4800F0D2FFB6
:100A100013B0BDE8F08F002E3FF42CAE0BF00B03AB
:100A20000B2B7FF427AE0023642105A8059300F06B
:100A300061F8074600287FF41DAE0220FFF7C8FCCE
:100A4000814600283FF416AEFFF7CAFC41F2883019
:100A500000F0B0FF059800F0E7F94E463C4600F084
:100A6000B1F9B9E506464EE64FF0000A02E6B8468F
:100A70008FE637468DE600BF00220220A0860100E7
:100A80000F4B70B51B7805460C460133DBB2012BCA
:100A900010D80C484FF47A730168A2FB0332224647
:100AA0000E6A2946B047844204D1074B0022012038
:100AB0001A7070BD4FF4FA7000F07CFF0020F8E768
:100AC0001022022078250220B8230220002307B537
:100AD000024601210DF107008DF80730FFF7D0FF26
:100AE00020B19DF8070003B05DF804FB4FF0FF3024
:100AF000F9E700000A46042108B5FFF7C1FF0138F5
:100B000008BD000030B4054C0A4601462368204663
:100B1000DD69034BAC4630BC604700BF782502203E
:100B2000A086010070B50A4E00250A4C01F0E2F9DA
:100B3000308020683388834208D901F0D5F92368D2
:100B400005440133B5F5C03F2360F2D370BD00BF4B
:100B5000BA2302208C23022001F08EBA00F100603B
:100B600000F5C0300068704700F10060920000F5A9
:100B7000C03001F00DBA0000054B1A68054B1B8808
:100B80009B1A834202D9104401F0AEB9002070478D
:100B90008C230220BA23022038B5074D044628686A
:100BA000204401F0A9F928B928682044BDE838405C
:100BB00001F0BAB938BD00BF8C23022010F0030346
:100BC00009D1B0F5846F04D200F10050A0F5712076
:100BD0000368184670470023FBE7000000F100504F
:100BE000A0F57120D0F8200470470000064991F864
:100BF000243033B100230822086A81F82430FFF73B
:100C0000B3BF0120704700BF90230220014B18683A
:100C1000704700BF002004E01F4BF0B51A681F4B5F
:100C2000C2F30B06120C1F885D68BE4293F90840A0
:100C300026D09F89BE4225D01F8BBE4206D10224FA
:100C40000C2505FB04335D6893F90840B2F5805F1D
:100C50001AD041F201039A4208BF5A240138013DDB
:100C60000A460844824215D215F9016F531C6EB929
:100C70002C258342157001D2931C5470581AF0BD74
:100C80000024DDE70124DBE74124E7E71A4603F807
:100C9000016CE7E71346F1E7002004E0142202208C
:100CA00000207047022803D1024B4FF080629A6106
:100CB000704700BF000C0240022803D1024B4FF4E2
:100CC00080629A61704700BF000C0240022804D184
:100CD000024A536983F4806353617047000C0240F9
:100CE000002310B5934200D110BDCC5CC454013335
:100CF000F8E70000013810B510F9013F3BB191F958
:100D000000409C4203D11AB10131013AF4E71AB113
:100D100091F90020981A10BD1046FCE703460246E0
:100D2000D01A12F9011B0029FAD170470244034678
:100D3000934200D1704703F8011BF9E72DE9F8430E
:100D40001F4D14460746884695F8242022B9DFF83F
:100D500070906CB9012009E02B6A03EB8203834297
:100D6000F5D0FFF743FF0028F1D10020BDE8F8835C
:100D700095F824302BB92022FF2148462F62FFF737
:100D8000D5FF95F824004146C0F1080205EB80002C
:100D9000A24228BF2246D6B29200FFF7A1FF95F8E3
:100DA0002430A41B17441E449044E4B2F6B2082E2B
:100DB00085F82460CDD1FFF719FF0028C9D1D4E709
:100DC00090230220024B1A78024B1A70704700BF22
:100DD000B82302201022022010B50F4C0F4800F05B
:100DE000F7F821460D4800F01FF924680C48E26E20
:100DF000D2F8043843F00203C2F8043800F0DAFDF8
:100E00000849204600F018FAE26ED2F8043823F0C0
:100E10000203C2F8043810BD083600087825022005
:100E200040420F00103600087047000000B59BB02C
:100E3000EFF3098168226846FFF752FFEFF305835D
:100E4000044B9A6BDA6A9A6A9A6A9A6A9A6A9A6AF6
:100E50009B6AFEE700ED00E000B59BB0EFF309816F
:100E600068226846FFF73CFFEFF30583044B9A6B5B
:100E70009A6A9A6A9A6A9A6A9A6A9B6AFEE700BFB5
:100E800000ED00E000B59BB0EFF3098168226846F1
:100E9000FFF726FFEFF30583034B5A6B9A6A9A6AB2
:100EA0009A6A9A6A9B6AFEE700ED00E0FEE700009E
:100EB00030B50A44084D914200D130BD11F8013BD4
:100EC0005840082340F30004013B2C4013F0FF037B
:100ED00084EA5000F6D1EEE72083B8ED026843685B
:100EE0001143016003B118477047000013B5446B0C
:100EF000D4F8A4381A681178042915D1217C022964
:100F000012D11979012312898B4013420CD101A906
:100F100004F14C0001F08AFFD4F8A4480246019B7A
:100F20002179206800F0D4F902B010BD143001F02E
:100F300013BF00004FF0FF33143001F00DBF00006D
:100F40004C3001F0DFBF00004FF0FF334C3001F0B8
:100F5000D9BF0000143001F0E1BE00004FF0FF31B6
:100F6000143001F0DBBE00004C3001F0ABBF0000DC
:100F70004FF0FF324C3001F0A5BF00000020704759
:100F8000D0F8A4381A6810B511780446042917D18E
:100F9000017C022914D15979012352898B401342D3
:100FA0000ED1143001F074FE024648B1D4F8A40802
:100FB0004FF4807341790068BDE8104000F076B9C5
:100FC00010BD0000406BFFF7DBBF00007047000062
:100FD0007FB5124B012504260446036000230574E7
:100FE00000F1840243602946C0E902330C4B0290B1
:100FF000143001934FF48073009601F025FE094BE5
:1010000004F29442294604F14C000294CDE90063B5
:101010004FF4807301F0E6FE04B070BD4435000863
:10102000C50F0008ED0E00080B68202282F311881E
:101030000A7903EB820210624A790D3243F82200EA
:101040008A7912B103EB820318620223C0F8A41854
:101050000374002383F311887047000038B5037FC1
:10106000044613B190F85430ABB90125201D02217C
:10107000FFF734FF04F114006FF00101257700F051
:10108000C1FC04F14C0084F854506FF00101BDE83C
:10109000384000F0B7BC38BD10B50121044604301B
:1010A000FFF71CFF0023237784F8543010BD0000A5
:1010B00038B504460025143001F0DEFD04F14C0083
:1010C000257701F0A7FE201D84F854500121FFF779
:1010D00005FF2046BDE83840FFF752BF90F85C306E
:1010E00003F06003202B06D190F85D200023212A15
:1010F00003D81F2A06D800207047222AFBD1C0E956
:10110000143303E0034A0265072242658365012028
:10111000704700BF38220220D0F8A43837B51A68CB
:101120000446117804291AD1017C022917D11979B2
:10113000012312898B40134211D100F14C0528463E
:1011400001F026FF58B101A9284601F06FFED4F83E
:10115000A4480246019B2179206800F0B9F803B049
:1011600030BD000000EB8103F0B51E6A85B0044677
:101170000D46FEB1202383F3118804EB8507301D53
:101180000821FFF7ABFEFB6806F14C005B691B68AA
:101190001BB1019001F058FE019803A901F046FE31
:1011A000024648B1039B2946204600F091F80023EF
:1011B00083F3118805B0F0BDFB685A691268002AF4
:1011C000F5D01B8A013B1340F1D104F15C02EAE740
:1011D0000D3138B550F82140DCB1202383F311885C
:1011E000D4F8A4281368527903EB8203DB689B6967
:1011F0005D6845B104216018FFF770FE294604F1CF
:10120000140001F04FFD2046FFF7BAFE002383F3E0
:10121000118838BD7047000001F0EEB80123282284
:10122000002110B5044600F8243BFFF77FFD0023A2
:10123000C4E9013310BD000038B50446202383F310
:10124000118800254160C0E90355C0E90555C0E992
:10125000075501F0E1F80223237085F3118838BDAA
:1012600070B500EB8103054650690E461446DA60FE
:1012700018B110220021FFF759FDA06918B1102202
:101280000021FFF753FD31462846BDE8704001F0CC
:101290008DB90000826802F0011282600022C0E96C
:1012A0000422C0E90622026201F00ABAF0B4012564
:1012B00000EB810447898D40E4683D43A469458182
:1012C00023600023A2606360F0BC01F025BA000037
:1012D000F0B4012500EB810407898D40E4683D43AB
:1012E0006469058123600023A2606360F0BC01F0A3
:1012F0009DBA000070B502230025044603704566C0
:10130000056280F84C50C0E90255C0E90455C0E9B7
:10131000065501F0E7F863681B6823B129462046AB
:10132000BDE87040184770BD037880F86830052329
:10133000037043681B6810B504460BB1042198473D
:101340000023A36010BD000090F86820436802707D
:101350001B680BB1052118477047000070B590F865
:101360004C30044613B1002380F84C3004F15C0289
:10137000204601F0C7F963689B68B3B994F85C3004
:1013800013F0600535D00021204601F029FC002132
:10139000204601F01BFC63681B6813B10621204640
:1013A0009847062384F84C3070BD204698470028A3
:1013B000E4D0B4F86230626D9A4288BF636594F9F4
:1013C0005C30656D002B4FF0200380F20381002D0F
:1013D00000F0F280092284F84C2083F31188002168
:1013E0002046D4E91423FFF773FF002383F3118809
:1013F000DAE794F85D2003F07F0343EA022340F22A
:101400000232934200F0C58021D8B3F5807F48D0E6
:101410000DD8012B3FD0022B00F09380002BB2D1CE
:1014200004F16402226502226265A365C1E7B3F597
:10143000817F00F09B80B3F5407FA4D194F85E30AB
:10144000012BA0D1B4F8643043F0020332E0B3F5CD
:10145000006F4DD017D8B3F5A06F31D0A3F5C0639E
:10146000012B90D86368204694F85E205E6894F85B
:101470005F10B4F86030B047002884D0436823651B
:10148000036863651AE0B3F5106F36D040F6024288
:1014900093427FF478AF5C4B23650223636500239E
:1014A000C3E794F85E30012B7FF46DAFB4F864307D
:1014B00023F00203A4F86430C4E91455A56578E765
:1014C000B4F85C30B3F5A06F0ED194F85E302046CE
:1014D00084F8663001F05EF863681B6813B101217F
:1014E00020469847032323700023C4E914339CE764
:1014F00004F1670323650123C3E72378042B10D18C
:10150000202383F311882046FFF7C4FE85F311885A
:101510000321636884F8675021701B680BB1204673
:10152000984794F85E30002BDED084F867300423AF
:10153000237063681B68002BD6D002212046984791
:10154000D2E794F8603020461D0603F00F010AD55B
:1015500001F0CAF8012804D002287FF414AF2B4B05
:101560009AE72B4B98E701F0B1F8F3E794F85E3077
:10157000002B7FF408AF94F8603013F00F01B3D064
:101580001A06204602D501F03FFBADE701F032FB21
:10159000AAE794F85E30002B7FF4F5AE94F8603043
:1015A00013F00F01A0D01B06204602D501F018FB56
:1015B0009AE701F00BFB97E7142284F84C2083F3A1
:1015C00011882B462A4629462046FFF76FFE85F3F1
:1015D0001188E9E65DB1152284F84C2083F3118867
:1015E00000212046D4E91423FFF760FEFDE60B221C
:1015F00084F84C2083F311882B462A46294620463E
:10160000FFF766FEE3E700BF743500086C3500089D
:101610007035000838B590F84C300446002B3ED0A9
:10162000063BDAB20F2A34D80F2B32D8DFE803F0AA
:1016300037313108223231313131313131313737BF
:10164000456DB0F862309D4214D2C3681B8AB5FB69
:10165000F3F203FB12556DB9202383F311882B4657
:101660002A462946FFF734FE85F311880A2384F8B9
:101670004C300EE0142384F84C30202383F311887F
:10168000002320461A461946FFF710FE002383F375
:10169000118838BD836D03B198470023E7E7002127
:1016A000204601F09DFA0021204601F08FFA636880
:1016B0001B6813B10621204698470623D7E7000090
:1016C00010B590F84C300446142B29D017D8062BAF
:1016D00005D001D81BB110BD093B022BFBD800215E
:1016E000204601F07DFA0021204601F06FFA636880
:1016F0001B6813B1062120469847062319E0152BD5
:10170000E9D10B2380F84C30202383F31188002388
:101710001A461946FFF7DCFD002383F31188DAE748
:10172000C3689B695B68002BD5D1836D03B1984773
:10173000002384F84C30CEE7024B0022C3E900338B
:101740009A607047BC230220002382680374054B13
:101750001B6899689142FBD25A680360426010602E
:1017600058607047BC23022008B5202383F31188FA
:10177000037C032B05D0042B0DD02BB983F31188E8
:1017800008BD436900221A604FF0FF334361FFF741
:10179000DBFF0023F2E7D0E9003213605A60F3E781
:1017A000002382680374054B1B6899689142FBD83B
:1017B0005A6803604260106058607047BC23022082
:1017C000054B196908741868026853601A6018613B
:1017D00001230374FEF7AABDBC2302204B1C30B5C5
:1017E000044687B00A4D10D02B6901A8094A00F0C1
:1017F00025F92046FFF7E4FF049B13B101A800F090
:1018000059F92B69586907B030BDFFF7D9FFF8E7E0
:10181000BC2302206917000838B50C4D044641610D
:101820002B6981689A68914203D8BDE83840FFF778
:101830008BBF1846FFF7B4FF01232C6101462374C8
:101840002046BDE83840FEF771BD00BFBC23022032
:10185000044B1A681B6990689B68984294BF0020EB
:1018600001207047BC23022010B5084C2368206972
:101870001A6854602260012223611A74FFF790FFF6
:1018800001462069BDE81040FEF750BDBC23022090
:1018900008B5FFF7DDFF18B1BDE80840FFF7E4BF6A
:1018A00008BD0000FFF7E0BFFEE7000010B50C4CDC
:1018B000FFF742FF00F0B4F880220A49204600F00A
:1018C0003BF8012344F8180C037400F071FC00236A
:1018D00083F3118862B60448BDE8104000F04CB8AC
:1018E000E4230220783500088835000800F01CB990
:1018F000EFF3118020B9EFF30583202282F31188E2
:101900007047000010B530B9EFF30584C4F3080444
:1019100014B180F3118810BDFFF7BAFF84F311886A
:10192000F9E70000034A516853685B1A9842FBD8F4
:10193000704700BF001000E0826002220282704700
:101940008368A3F17C0243F80C2C026943F83C2C19
:10195000426943F8382C074A43F81C2CC268A3F1AB
:10196000180043F8102C022203F8082C002203F878
:10197000072C70474503000810B5202383F3118816
:10198000FFF7DEFF00210446FFF746FF002383F345
:101990001188204610BD0000024B1B6958610F20C2
:1019A000FFF70EBFBC230220202383F31188FFF72B
:1019B000F3BF000008B50146202383F311880820F7
:1019C000FFF70CFF002383F3118808BD49B1064BD4
:1019D00042681B6918605A60136043600420FFF777
:1019E000FDBE4FF0FF307047BC23022003689842D1
:1019F00006D01A680260506018465961FFF7A4BE0D
:101A00007047000038B504460D462068844200D176
:101A100038BD036823605C604561FFF795FEF4E71D
:101A2000054B4FF0FF3103F11402C3E905220022F8
:101A3000C3E90712704700BFBC230220F8B51C4F52
:101A400005460E46C0E9032301F0D4FA3A4652F89F
:101A5000143F93420DD138620A2E2CBF80190A30F0
:101A60002B60C5E90136C7E90555BDE8F84001F02E
:101A7000AFBA3A6A9B68841A341928BF3446A34225
:101A800002D9101901F0B2FA7B699A6894420CD815
:101A90005A68AC602B606A6015609A685D60121BC2
:101AA0009A604FF0FF33FB61F8BDA41A1B68ECE7A6
:101AB000BC23022038B51B4C636998420DD0816865
:101AC000D0E9003213605A600022C2609A680A446A
:101AD0009A604FF0FF33E36138BD0368224600216E
:101AE00042F8143F93425A60C16003D1BDE83840C8
:101AF00001F076BA9A688168256A0A449A6001F012
:101B000079FA6369421B9B689342E5D91D44281A00
:101B10000928206A98BF02F10A031844BDE838403A
:101B200001F064BABC2302202DE9F041184C0027D3
:101B300004F11406656901F05DFA236AAA68C11A06
:101B40008A4215D81344D5F80C802362D5E90032B7
:101B500013605A606369EF60B34201D101F040FA4B
:101B600087F311882869C047202383F31188E1E7B0
:101B70006169B14209D013441B1ABDE8F0410A2B38
:101B80002CBFC0180A3001F031BABDE8F08100BFA7
:101B9000BC23022000207047FEE7000070470000D1
:101BA0004FF0FF307047000002290CD0032904D009
:101BB0000129074818BF00207047032A05D80548A7
:101BC00000EBC2007047044870470020704700BF18
:101BD0006C360008482202202036000870B59AB002
:101BE00005460846144601A900F0C2F801A8FFF70F
:101BF00095F8431C0022C6B25B001046C5E90034CC
:101C000023700323023404F8013C01ABD1B2023447
:101C10008E4201D81AB070BD13F8011B013204F8CE
:101C2000010C04F8021CF1E708B5202383F31188A6
:101C30000348FFF771FA002383F3118808BD00BF42
:101C40007825022090F85C3003F01F02012A07D1AA
:101C500090F85D200B2A03D10023C0E9143315E06E
:101C600003F06003202B08D1B0F860302BB990F856
:101C70005D20212A03D81F2A04D8FFF72FBA222A71
:101C8000EBD0FAE7034A026507224265836501202B
:101C9000704700BF3F22022007B5052917D8DFE8AB
:101CA00001F0191603191920202383F31188104A13
:101CB00001210190FFF7D4FA019802210D4AFFF7A4
:101CC000CFFA0D48FFF7F4F9002383F3118803B02E
:101CD0005DF804FB202383F311880748FFF7BEF962
:101CE000F2E7202383F311880348FFF7D5F9EBE7E8
:101CF000C0350008E43500087825022038B50C4DC1
:101D00000C4C2A460C4904F10800FFF767FF05F167
:101D1000CA0204F110000949FFF760FF05F5CA7215
:101D200004F118000649BDE83840FFF757BF00BF6F
:101D3000502E022048220220A0350008AA350008B3
:101D4000B535000870B5044608460D46FEF7E6FFB7
:101D5000C6B22046013403780BB9184670BD32462E
:101D60002946FEF7C7FF0028F3D10120F6E700005F
:101D70002DE9F04705460C46FEF7D0FF2B49C6B2C9
:101D80002846FFF7DFFF08B10736F6B22849284694
:101D9000FFF7D8FF08B11036F6B2632E0BD8DFF884
:101DA0008C80DFF88C90234FDFF894A02E7846B912
:101DB0002670BDE8F08729462046BDE8F04701F0CF
:101DC000A3BB252E2ED1072241462846FEF792FFBF
:101DD00070B9194B224603F10C0153F8040B8B42E6
:101DE00042F8040BF9D11B8807350E341380DDE768
:101DF000082249462846FEF77DFF98B9A21C0F4BE2
:101E0000197802320909795C02F8041C13F8011BE5
:101E100001F00F015345795C02F8031CF0D118342E
:101E20000835C3E7013504F8016BBFE78C360008BD
:101E3000B5350008A33600089436000820F4F01FDA
:101E40002CF4F01FBFF34F8F024AD368DB03FCD49E
:101E5000704700BF003C024008B5074B1B7853B9E0
:101E6000FFF7F0FF054B1A69002A04DA044A5A60AA
:101E700002F188325A6008BDAE300220003C0240B8
:101E80002301674508B5054B1B7833B9FFF7DAFF27
:101E9000034A136943F00043136108BDAE300220CA
:101EA000003C02400B28F0B516D80C4C0C492378A6
:101EB0007BB90E460B4D0C234FF00062013B55F8E9
:101EC000047B46F8042B13F0FF033A44F6D10123B8
:101ED000237051F82000F0BD0020FCE7E030022024
:101EE000B0300220B4360008014B53F82000704790
:101EF000B43600080C2070470B2810B5044601D9F1
:101F0000002010BDFFF7CEFF064B53F824301844D5
:101F1000C21A0BB90120F4E712680132F0D1043B78
:101F2000F6E700BFB43600080B2838B5044628D8B9
:101F3000FFF7DEFC0546FFF785FF2046FFF78CFF25
:101F4000114AF323D360E300DBB243F4007343F0A0
:101F500002031361136943F480331361FFF772FFC7
:101F6000FFF7A0FF094B53F8241000F0E9F82846CA
:101F7000FFF788FFFFF7C6FC2046BDE83840FFF7B3
:101F8000BBBF002038BD00BF003C0240B436000893
:101F900012F001032DE9F04105460E4614464BD1DF
:101FA0008218B2F1026F61D8314B1B6813F0010344
:101FB0005CD0FFF79DFC2F4FFFF74EFFF323314618
:101FC00040F20128FB60FFF73DFF032C18D824F0F6
:101FD00001046D1A274E40F201180C44A14205EB92
:101FE000010733692AD123F001033361FFF74AFF68
:101FF000FFF788FC0120BDE8F081043C0435E4E7EC
:10200000AB07E4D13B6923F440733B613B6943EA8E
:1020100008033B6151F8046B2E60BFF34F8FFFF74D
:1020200011FF2B689E42E8D03B6923F001033B611E
:10203000FFF728FFFFF766FC0020DCE723F440737E
:102040003361336943EA080333610B883B80BFF394
:102050004F8FFFF7F7FE3F88BFB231F8023BBB421C
:10206000BCD0336923F001033361E1E71846C2E7CE
:1020700000380240003C0240084908B50B7828B1FE
:102080001BB9FFF7E9FE01230B7008BD002BFCD044
:102090000870BDE80840FFF7F5BE00BFAE30022073
:1020A0000244074BD2B210B5904200D110BD441C7F
:1020B00000B253F8200041F8040BE0B2F4E700BF8F
:1020C000502800400F4B30B51C6F240407D41C6F00
:1020D00044F400741C671C6F44F400441C670A4CF1
:1020E00002442368D2B243F480732360074B9042CA
:1020F00000D130BD441C51F8045B00B243F82050BD
:10210000E0B2F4E700380240007000405028004080
:1021100007B5012201A90020FFF7C2FF019803B013
:102120005DF804FB13B50446FFF7F2FFA04205D0AB
:10213000012201A900200194FFF7C4FF02B010BDE5
:102140000144BFF34F8F064B884204D3BFF34F8F38
:10215000BFF36F8F7047C3F85C022030F4E700BF15
:1021600000ED00E0034B1A681AB9034AD2F874284C
:102170001A607047E43002200030024008B5FFF7D3
:10218000F1FF024B1868C0F3407008BDE430022034
:10219000EFF30983054968334A6B22F001024A6371
:1021A00083F30988002383F31188704700EF00E070
:1021B000202080F3118862B60D4B0E4AD96821F4B5
:1021C000E0610904090C0A430B49DA60D3F8FC20EA
:1021D00042F08072C3F8FC20084AC2F8B01F1168B0
:1021E00041F0010111601022DA7783F82200704774
:1021F00000ED00E00003FA0555CEACC5001000E08C
:10220000202310B583F311880E4B5B6813F4006331
:1022100014D0F1EE103AEFF309844FF08073683C6C
:10222000E361094BDB6B236684F30988FFF710FB3E
:1022300010B1064BA36110BD054BFBE783F311887A
:10224000F9E700BF00ED00E000EF00E057030008F1
:102250005A03000870B5BFF34F8FBFF36F8F1A4A50
:102260000021C2F85012BFF34F8FBFF36F8F536935
:1022700043F400335361BFF34F8FBFF36F8FC2F846
:102280008410BFF34F8FD2F8803043F6E074C3F36D
:10229000C900C3F34E335B0103EA0406014646EA74
:1022A00081750139C2F86052F9D2203B13F1200F39
:1022B000F2D1BFF34F8F536943F480335361BFF3BF
:1022C0004F8FBFF36F8F70BD00ED00E0FEE70000A1
:1022D0000A4B0B480B4A90420BD30B4BC11EDA1C26
:1022E000121A22F003028B4238BF00220021FEF7AF
:1022F0001DBD53F8041B40F8041BECE7B038000880
:10230000F8310220F8310220F83102207047000035
:1023100070B5D0E91B4300224FF0FF359E6804EBF7
:1023200042135101D3F80009002805DAD3F8000957
:1023300040F08040C3F80009D3F8000B002805DA0C
:10234000D3F8000B40F08040C3F8000B0132631853
:102350009642C3F80859C3F8085BE0D24FF0011366
:10236000C4F81C3870BD00001D4B03EB8002D2F88E
:102370000CC02DE9F043DCF81420461CDD6ED2F8C9
:1023800000E005EB063605EB40185168714509D3AE
:102390000122D5F83438824023EA0203C5F83438E4
:1023A000BDE8F083AEEB0103BCF81040A34228BFA8
:1023B0002346D8F81849A4B2B3EB840FF0D8946838
:1023C000A4F1040959F8047F3760A4EB09071F44FE
:1023D000042FF7D81C44194494605160D5E700BF1E
:1023E000E8300220890141F02001016103699B0668
:1023F000FCD41220FFF796BA10B5054C2046FEF724
:102400000DFF4FF0A043E366024B236710BD00BFF2
:10241000E83002200837000870B503780546012B24
:1024200050D12A4BC46E98421BD1294B0E21432018
:102430005A6B42F080025A635A6D42F080025A652C
:102440005A6D5A6942F080025A615A6922F080023C
:102450005A615B6900F0E2FB1E4BE3601E4BC4F85F
:1024600000380023EE6EC4F8003EC02323604FF412
:102470000413A3633369002BFCDA01230C203361BE
:10248000FFF750FA3369DB07FCD41220FFF74AFA52
:102490003369002BFCDA00262846A660FFF738FFD8
:1024A0006B68C4F81068DB68C4F81468C4F81C686A
:1024B0004BB90A4BA3614FF0FF336361A36843F04C
:1024C0000103A36070BD064BF4E700BFE8300220B3
:1024D000003802404014004003002002003C30C09D
:1024E000083C30C0F8B5C46E054600214FF00066C8
:1024F0002046FFF777FF296F00234FF001128F6806
:102500004FF0FF30C4F83438C4F81C2804EB4312F1
:1025100001339F42C2F80069C2F8006BC2F8080993
:10252000C2F8080BF2D20B68EA6E6B676362102385
:102530001361166916F01006FBD11220FFF7F2F9AD
:10254000D4F8003823F4FE63C4F80038A36943F4D8
:10255000402343F01003A3610923C4F81038C4F8E2
:1025600014380A4BEB604FF0C043C4F8103B084BE3
:10257000C4F8003BC4F81069C4F800396B6F03F16C
:10258000100243F480136A67A362F8BDE4360008C2
:1025900040800010C26E90F86610D2F8003823F424
:1025A000FE6343EA0113C2F8003870472DE9F8438F
:1025B00000EB81030C460FFA81F9C56ED968002241
:1025C000804660010E6806F00306731E022B05EBC1
:1025D000441398BFB604C3F8102B04F110024FF057
:1025E000010394BF06F18056334E03FA02F38A6961
:1025F00098BF06F50046002A39D04F8A04F15802E8
:1026000037435201AF50D5F81C2813430022C5F8B8
:102610001C382B180127C3F81029A7404A69631EEC
:1026200092B30A8A4033898B9208012905EB830310
:1026300088BF4A43D8F87410501841EA0241C8F8DC
:102640007400284659602146FFF7CCFE08EB89004C
:10265000C3681B8A43EA84534834334364012B51D3
:10266000D5F81C383B43C5F81C38BDE8F88305EBAA
:102670004917D7F8002B22F40042C7F8002BD5F8F1
:102680001C2822EA0303C1E704F13F030B4A214659
:10269000284605EB83035A60FFF7A4FE05EB4913B8
:1026A000D3F8002922F40042C3F80029D5F81C38D9
:1026B00023EA0703D7E700BF0080001000040002F0
:1026C000026F12684267FFF723BE00005831C36EE5
:1026D00049015B5813F4004004D013F4001F0CBFF1
:1026E00002200120704700004831C36E49015B5849
:1026F00013F4004004D013F4001F0CBF022001208B
:102700007047000000EB8101CB68196A0B68136009
:102710004B6853607047000000EB810330B5DD6803
:10272000AA691368D36019B9402B84BF4023136092
:102730006B8A1468C26E1C4402EB4110013C09B262
:10274000B4FBF3F46343033323F0030343EAC443CA
:1027500043F0C043C0F8103B2B6803F00303012B88
:102760000ED1D2F8083802EB411013F4807FD0F874
:10277000003B14BF43F0805343F00053C0F8003BCC
:1027800002EB4112D2F8003B43F00443C2F8003B95
:1027900030BD00002DE9F041234D0446EE6E06EBFE
:1027A0004013D3F8087B3807C3F8087B0AD5D6F85E
:1027B0001438190706D505EB840321462846DB6843
:1027C0005B689847FA071FD5D6F81438DB071BD586
:1027D00005EB8403D9688B69C4B9488A5A68B2FB8F
:1027E000F0F600FB16228AB91868DA6890420DD21A
:1027F000121AC3E90024202383F311880A482146D2
:10280000FFF78AFF84F31188BDE8F08101226B890C
:10281000A24023EA02036B81CB68002BF4D021464F
:102820000148BDE8F0411847E830022000EB810381
:102830004A0170B5DD68C36E6C692668E6604EBB00
:102840001A444FF40020C2F810092A6802F003026B
:10285000012A0AB20ED1D3F8080803EB421410F48F
:10286000807FD4F8000914BF40F0805040F0005041
:10287000C4F8000903EB4212D2F8000940F004400A
:10288000C2F800090122D3F834088A400243C3F891
:10289000342870BD19B9402E84BF402020602068C4
:1028A0001A442E8A8419013CB4FBF6F440EAC44071
:1028B00040F00050C7E70000F8B504461D48C56E5B
:1028C00005EB4413D3F80869F107C3F8086917D575
:1028D000D5F81038DA0713D500EB8403D9684B69B3
:1028E0001F68DA68974218D2D21B00271A605F600F
:1028F000202383F311882146FFF798FF87F311887F
:10290000330616D50123D5F83428A340134210D03E
:102910002046BDE8F840FFF727BD01220389A24009
:1029200023EA020303818B68002BE9D021469847F4
:10293000E6E7F8BDE83002202DE9F74FA24CE66E3D
:102940007569B3691D4015F48058756107D020463C
:10295000FEF7D0FC03B0BDE8F04FFFF751BC002DEF
:1029600012DAD6F8003E9F0705D0D6F8003E23F0D5
:102970000303C6F8003ED6F80438934823F0010359
:10298000C6F80438FEF7E0FC280505D58E48FFF7A9
:10299000BFFC8D48FEF7C8FCA9040CD5D6F8083852
:1029A00013F0060FF36823F470530CBF43F4105375
:1029B00043F4A053F3602A0704D56368DB680BB1C6
:1029C00081489847EB0200F18A80AF0227D5D4F8FE
:1029D0006C9000274FF0010ADFF8ECB109EB4712C9
:1029E000D2F8003B03F44023B3F5802F11D1D2F885
:1029F000003B002B0DDA63890AFA07F223EA02038F
:102A0000638104EB8703DB68DB6813B13946584602
:102A100098470137236FFFB29B689F42DED9E806D3
:102A200018D5E76E3A6AC2F30A1002F00F0302F4F7
:102A3000F012B2F5802F00F09C80B2F5402F09D142
:102A400004EB8303002207F58057DB681B6A904282
:102A500040F082802B03D6F818481DD5E70302D535
:102A60000020FFF797FEA60302D50120FFF792FE94
:102A7000600302D50220FFF78DFE210302D503205B
:102A8000FFF788FEE20202D50420FFF783FEA302CF
:102A900002D50520FFF77EFE6F037FF55BAFE607EB
:102AA00002D50020FFF708FFA50702D50120FFF798
:102AB00003FF600702D50220FFF7FEFE210702D5C3
:102AC0000320FFF7F9FEE20602D50420FFF7F4FE2B
:102AD000A3067FF53FAF0520FFF7EEFE3AE7E36E72
:102AE00000274FF0010ADFF8E0B00193236F5FFA8F
:102AF00087F99B6899453FF668AF019B03EB491343
:102B0000D3F8002902F44022B2F5802F22D1D3F865
:102B10000029002A1EDAD3F8002942F09042C3F8B7
:102B20000029D3F80029002AFBDB4946E06EFFF7B5
:102B300059FC23890AFA09F223EA0203238104EBF0
:102B40008903DB689B6813B1494658469847484655
:102B5000FFF70AFC0137C9E7910701D1D7F80080D8
:102B6000072A02F101029CBF03F8018B4FEA1828E3
:102B70006DE7023307F5805704EB83025268D2F801
:102B800018C0DCF80820DCE9001CA1EB0C0C0021CB
:102B900088420AD104EB830463689B699A68024403
:102BA0009A605A6802445A6054E711F0030F01D149
:102BB000D7F800808C4501F1010184BF02F8018B38
:102BC0004FEA1828E4E700BFE8300220C36E03EBA9
:102BD0004111D1F8003B43F40013C1F8003B7047AA
:102BE000C36E03EB4111D1F8003943F40013C1F86F
:102BF00000397047C36E03EB4111D1F8003B23F459
:102C00000013C1F8003B7047C36E03EB4111D1F8CC
:102C1000003923F40013C1F800397047090100F1AD
:102C20006043012203F56143C9B283F8001300F049
:102C30001F039A4043099B0003F1604303F561437E
:102C4000C3F880211A60704730B50433039C0172C9
:102C5000002104FB0325C160C0E90653049B036304
:102C6000059BC0E90000C0E90422C0E90842C0E9B0
:102C70000A11436330BD00000022416AC260C0E90E
:102C80000411C0E90A226FF00101FEF7BBBE00008B
:102C9000D0E90432934201D1C2680AB9181D7047C5
:102CA00000207047036919600021C2680132C260C8
:102CB000C269134482699342036124BF436A03617A
:102CC000FEF794BE38B504460D46E3683BB1626931
:102CD0000020131D1268A3621344E36207E0237A05
:102CE00033B929462046FEF771FE0028EDDA38BDDB
:102CF0006FF00100FBE70000C368C269013BC360DD
:102D00004369134482699342436124BF436A436128
:102D100000238362036B03B11847704770B520230B
:102D2000044683F31188866A3EB9FFF7CBFF054658
:102D300018B186F31188284670BDA36AE26A13F8B9
:102D4000015B9342A36202D32046FFF7D5FF002325
:102D500083F31188EFE700002DE9F84F04460F4692
:102D600091469A464FF0200888F311880026B34612
:102D7000A56A4DB951462046FFF7A4FF20B185F35F
:102D800011883046BDE8F88FD4E90A15A9EB06038F
:102D90006D1A9D4228BF1D46402D1AD93B4601F1B0
:102DA000400251F8040B914243F8040BF9D1A36A95
:102DB000403740364033E26AA3629A4202D8204646
:102DC000FFF79AFF8BF311884E45DAD288F311880A
:102DD000CEE738462A46FDF783FFA36A2F442E44E8
:102DE0002B44E8E710B5029C0433017204FB032175
:102DF000C460C0E906130023C0E90A33039B0363E0
:102E0000049BC0E90000C0E90422C0E90842436312
:102E100010BD0000026A6FF00101C260426AC0E9A1
:102E200004220022C0E90A22FEF7ECBDD0E9042307
:102E30009A4201D1C26822B9184650F8043B0B608F
:102E40007047002070470000C3680021C269013349
:102E5000C3604369134482699342436124BF436A58
:102E60004361FEF7C3BD000038B504460D46E36874
:102E70003BB1236900201A1DA262E2691344E36298
:102E800007E0237A33B929462046FEF79FFD002844
:102E9000EDDA38BD6FF00100FBE70000036919604F
:102EA000C268013AC260C2691344826993420361F5
:102EB00024BF436A036100238362036B03B1184795
:102EC0007047000070B520230D460446114683F379
:102ED0001188866A2EB9FFF7C7FF10B186F31188F3
:102EE00070BDA36A1D70A36AE26A01339342A362B4
:102EF00004D3E16920460439FFF7D0FF002080F3B6
:102F00001188EDE72DE9F84F05460C4691469A46A3
:102F10004FF0200888F311880027BB46AE6A4EB9EF
:102F200051462846FFF7A0FF20B186F311883846A6
:102F3000BDE8F88FD5E90A06A9EB0703361A9E42C9
:102F400028BF1E46402E1AD904F1400354F8042B22
:102F50009C4240F8042BF9D1AB6A40374033EA6A0F
:102F6000AB629A4204D8E96928460439FFF796FF14
:102F70008BF311884F45DAD288F31188CEE72146CA
:102F80003246FDF7ADFEAB6A344437443344E6E7DE
:102F9000D0E904239A4217D1C3689BB1836A8BB1ED
:102FA000043B9B1A0ED01360C368013BC360C36926
:102FB0001A4483699A42026124BF436A0361002371
:102FC00083620123184670470023FBE700F094B8A2
:102FD0004FF08043002258631A610222DA60704782
:102FE0004FF080430022DA60704700004FF08043CA
:102FF000586370474FF08043586A70474B6843608E
:103000008B688360CB68C3600B6943614B69036263
:103010008B6943620B6803607047000008B52C4B56
:1030200040F2FF712B481A690A431A611A6922F4A7
:10303000FF6222F007021A611A691A6B0A431A63C7
:103040001A6D0A431A65244A1B6D1146FFF7D6FF15
:1030500000F5806002F11C01FFF7D0FF00F58060F1
:1030600002F13801FFF7CAFF00F5806002F1540158
:10307000FFF7C4FF00F5806002F17001FFF7BEFFAB
:1030800000F5806002F18C01FFF7B8FF00F5806069
:1030900002F1A801FFF7B2FF00F5806002F1C40160
:1030A000FFF7ACFF00F5806002F1E001FFF7A6FF3B
:1030B00000F5806002F1FC01FFF7A0FF02F58C71C2
:1030C00000F58060FFF79AFFBDE8084000F08AB87D
:1030D00000380240000002401437000808B500F034
:1030E000F5F9FEF7E3FBFFF73DF8BDE80840FEF712
:1030F00005BE0000704700000F4B1A6C42F0010241
:103100001A641A6E42F001021A660C4A1B6E93682A
:1031100043F0010393604FF080436B229A624FF0BB
:10312000FF32DA6200229A615A63DA605A60012241
:103130005A611A60704700BF00380240002004E066
:103140004FF0804208B51169D3680B40D9B29B0794
:103150006FEA0101116107D5202383F31188FEF77F
:10316000C5FB002383F3118808BD00001B4B4FF003
:10317000FF3000211A696FEA42526FEA52521A6117
:103180001A69C2F30A021A611A695A6958615A69BE
:1031900059615A691A6A62F080521A621A6A02F018
:1031A00080521A621A6A5A6A58625A6A59625A6A8C
:1031B0000B4A106840F480701060186F00F4407083
:1031C000B0F5007F03D04FF480301867196753685B
:1031D00023F40073536000F055B900BF003802407B
:1031E00000700040364B4FF44041364A1A64364A6C
:1031F00011601A6842F001021A601A689207FCD541
:103200009A6822F003029A602D4B9A6812F00C0221
:10321000FBD1196801F0F90119609A601A6842F44B
:1032200080321A601A689003FCD55A6F42F001028E
:103230005A67234B5A6F9107FCD5244A5A601A6883
:1032400042F080721A60204B5A685204FCD51A680A
:1032500042F480321A605A68D003FCD51A6842F4EE
:1032600000321A60184A53689903FCD5144B1A6847
:103270009201FCD5164A9A6040F20112C3F88C20E4
:103280000022C3F8902040F20733124A13601368FB
:1032900003F00F03072BFAD1094B9A6842F00202A0
:1032A0009A609A6802F00C02082AFAD15A6C42F429
:1032B00080425A645A6E42F480425A665B6E70478E
:1032C000003802400004001000700040086C400903
:1032D00000948838003C0240074A08B5536903F05F
:1032E0000103536123B1054A13680BB15068984735
:1032F000BDE80840FEF784BF003C01407831022061
:10330000074A08B5536903F00203536123B1054A24
:1033100093680BB1D0689847BDE80840FEF770BFCE
:10332000003C014078310220074A08B5536903F098
:103330000403536123B1054A13690BB150699847DF
:10334000BDE80840FEF75CBF003C01407831022038
:10335000074A08B5536903F00803536123B1054ACE
:1033600093690BB1D0699847BDE80840FEF748BFA4
:10337000003C014078310220074A08B5536903F048
:103380001003536123B1054A136A0BB1506A984781
:10339000BDE80840FEF734BF003C01407831022010
:1033A000164B10B55C6904F478725A61A30604D513
:1033B000134A936A0BB1D06A9847600604D5104A45
:1033C000136B0BB1506B9847210604D50C4A936BD5
:1033D0000BB1D06B9847E20504D5094A136C0BB1C9
:1033E000506C9847A30504D5054A936C0BB1D06C7B
:1033F0009847BDE81040FEF703BF00BF003C014006
:1034000078310220194B10B55C6904F47C425A6192
:10341000620504D5164A136D0BB1506D984723050C
:1034200004D5134A936D0BB1D06D9847E00404D5D1
:103430000F4A136E0BB1506E9847A10404D50C4A85
:10344000936E0BB1D06E9847620404D5084A136F8F
:103450000BB1506F9847230404D5054A936F0BB105
:10346000D06F9847BDE81040FEF7CABE003C01404F
:103470007831022008B5FFF763FEBDE80840FEF78B
:10348000BFBE0000062108B50846FFF7C7FB0621AE
:103490000720FFF7C3FB06210820FFF7BFFB06212B
:1034A0000920FFF7BBFB06210A20FFF7B7FB062127
:1034B0001720FFF7B3FB06212820FFF7AFFB0721FA
:1034C0001C20BDE80840FFF7A9BB000008B5FFF7C6
:1034D0004DFE00F00BF8FDF79FFEFDF777FDFFF7BF
:1034E00009FEBDE80840FFF771BD00000023054A52
:1034F00019460133102BC2E9001102F10802F8D17C
:10350000704700BF78310220034611F8012B03F801
:10351000012B002AF9D1704753544D3332463F3FB7
:103520003F3F3F3F0053544D333246375B347C3589
:103530005D780053544D333246375B367C375D78C7
:103540000000000000000000490F0008350F0008CF
:10355000710F00085D0F0008690F0008550F000883
:10356000410F00082D0F00087D0F0008000000002B
:1035700001000000000000006D61696E00000000A5
:1035800069646C650000000080350008002402209A
:103590007825022001000000A918000800000000A2
:1035A0004172647550696C6F740025424F415244FA
:1035B000252D424C002553455249414C2500000021
:1035C000020000000000000065110008D111000891
:1035D00040004000202E0220302E02200200000079
:1035E00000000000030000000000000015120008A9
:1035F0000000000010000000402E0220000000002B
:103600000100000000000000E8300220010102007B
:10361000991C0008A91B0008451C0008291C00086B
:10362000430000002836000809024300020100C0E0
:103630003209040000010202010005240010010506
:10364000240100010424020205240600010705826A
:10365000030800FF09040100020A00000007050139
:103660000240000007058102400000001200000037
:10367000743600081201100102000040091241577F
:1036800000020102030100000403090425424F4126
:10369000524425004D6174656B463736352D5769A8
:1036A0006E67003031323334353637383941424372
:1036B00044454600008000000080000000800000BB
:1036C0000080000000000200000004000000040070
:1036D00000000400000004000000040000000400DA
:1036E00000000400000000005D130008151600082B
:1036F000C116000840004000603102206031022005
:103700000100000070310220800000004001000034
:10371000050000000000802A00000000AAAAAAAA52
:1037200000000024FFFF00000000000000A00A00CD
:103730000000000100000000AAAAAAAA00000001DF
:10374000FFFF00000000000000000000000100007A
:1037500000000000AAAAAAAA00010000FFFF0000C2
:103760000000000000000000004010000000000009
:10377000AAAAAAAA00400000FFFB00000000000067
:10378000000000000001404000000000AAAAAAAA10
:1037900000004000FF7F000000000000000000006B
:1037A0000000000000000000AAAAAAAA0000000071
:1037B000FFFF00000000000000000000000000000B
:1037C00000000000AAAAAAAA00000000FFFF000053
:1037D00000000000000000000000000000000000E9
:1037E000AAAAAAAA00000000FFFF00000000000033
:1037F000000000000000000000000000AAAAAAAA21
:1038000000000000FFFF00000000000000000000BA
:1038100000000000000000000000000000000000A8
:103820000000000000000000000000000000000098
:103830000000000000000000000000000000000088
:1038400000000000000000008F00000000000000E9
:1038500000801E0000000000FF00000000000000CB
:10386000183500083F000000490400002535000815
:103870003F00000051040000333500083F00000005
:1038800000960000000008009600000000080000FC
:10389000040000008836000800000000000000005E
:1038A0000000000000000000000000000000000018
:00000001FF
