:020000040800F2
:1000000000060020E1010008110E0008150E00088E
:100010006D0E0008150E0008410E0008E3010008EF
:10002000E3010008E3010008E3010008012F0008D4
:10003000E3010008E3010008E3010008E301000810
:10004000E3010008E3010008E3010008E301000800
:10005000E3010008E3010008613100088D31000868
:10006000B9310008E531000811320008E301000849
:10007000E3010008E3010008E3010008E3010008D0
:10008000E3010008E3010008E3010008E3010008C0
:10009000E3010008E3010008E30100083D32000825
:1000A000E3010008E3010008E3010008E3010008A0
:1000B0007D2F0008E3010008E3010008E3010008C8
:1000C000E3010008E3010008E3010008E301000880
:1000D000E3010008E3010008E3010008E301000870
:1000E000A5320008E3010008E3010008E30100086D
:1000F000E3010008E3010008E3010008E301000850
:10010000E3010008E3010008E3010008E30100083F
:10011000E3010008E3010008E3010008E30100082F
:10012000E3010008E3010008E3010008E30100081F
:10013000E3010008E3010008E3010008E30100080F
:10014000E3010008E3010008E3010008712700084B
:10015000E3010008E3010008E3010008E3010008EF
:10016000E3010008E3010008E3010008E3010008DF
:10017000E3010008E3010008E3010008E3010008CF
:10018000E3010008E3010008E3010008E3010008BF
:10019000E3010008E3010008E3010008E3010008AF
:1001A000E3010008E3010008E3010008E30100089F
:1001B000E3010008E3010008E3010008E30100088F
:1001C000E3010008E3010008E3010008E30100087F
:1001D000E3010008E3010008E3010008E30100086F
:1001E00002E000F000F8FEE772B6394880F30888B4
:1001F000384880F3098838484EF60851CEF200019D
:10020000086040F20000CCF200004EF63471CEF2ED
:1002100000010860BFF34F8FBFF36F8F40F2000003
:10022000C0F2F0004EF68851CEF200010860BFF334
:100230004F8FBFF36F8F4FF00000E1EE100A4EF6C4
:100240003C71CEF200010860062080F31488BFF3F1
:100250006F8F01F05DFF02F0E9FD4FF055301F494F
:100260001B4A91423CBF41F8040BFAE71C49194A6A
:1002700091423CBF41F8040BFAE71A491A4A1B4B5A
:100280009A423EBF51F8040B42F8040BF8E70020F5
:100290001749184A91423CBF41F8040BFAE701F0B4
:1002A0003BFF02F01FFE144C144DAC4203DA54F82D
:1002B000041B8847F9E700F03FF8114C114DAC42A0
:1002C00003DA54F8041B8847F9E701F023BF000064
:1002D000000600200022002000000008000000208E
:1002E00000060020A8360008002200202822002056
:1002F00028220020942D0020E0010008E0010008E1
:10030000E0010008E00100082DE9F04F2DED108A12
:10031000C1F80CD0C3689D46BDEC108ABDE8F08FD3
:10032000002383F311882846A047002001F07CFBBE
:1003300001F0B2FA00DFFEE71B4B6FF0130270B55D
:100340001A70032200245A700F229C70DC701C71FA
:100350005C719C71DC711C725C729A72DC7201F0CF
:10036000ABFE064601F0CEFE054650B90F4B9E424D
:1003700017D001339E4241F2883412BF0546002453
:100380000125002001F0A2FE0DB100F057F800F0A9
:1003900015FD00F083FB204600F0AAF800F04EF8AF
:1003A000F9E70446EDE700BF28220020010007B06E
:1003B00008B500F015FBA0F120035842584108BDD4
:1003C00007B541F21203022101A8ADF8043000F094
:1003D00055FB03B05DF804FB10B5202383F31188AF
:1003E0001248C3680BB101F0A5FB114A0F48002366
:1003F0004FF47A7101F062FB002383F311880D4CF6
:10040000236813B12368013B2360636813B16368F9
:10041000013B6360084B1B7833B9636823B9022042
:1004200000F034FC3223636010BD00BF3422002092
:10043000D9030008502300204822002010B5244B87
:10044000244A1968013142D004339342F9D1224C35
:10045000224B22689A423AD9214B9B6803F10063F0
:1004600003F580339A4232D2002000F031FB1D4B5D
:100470000220187000F0F8FB1B4B1A6C00221A6463
:10048000196E1A66196E596C5A64596E5A665A6E0C
:100490005A6942F080025A615A6922F080025A6118
:1004A0005A691A6942F000521A611A6922F0005220
:1004B0001A611B6972B60D4A054B13601B682268EE
:1004C000202181F311889D4683F30888104710BDD1
:1004D000000001082000010804000108FFFF0008D7
:1004E00028220020482200200038024008ED00E0C9
:1004F0002DE9F04F95B0B44C01902022FF210CA8BB
:10050000A76800F001FCB14A02941378A3B9B0487F
:100510000121C3601170202383F31188C3680BB1DC
:1005200001F008FBAB4AAA4800234FF47A7101F0AE
:10053000C5FA002383F31188019B13B1A64B019ADE
:100540001A60A64A019EDFF8A0B200231370A24AE7
:10055000994653601D461C469846012000F084FBD6
:1005600026B19D4B1B68002B00F00182002000F09B
:1005700037FA0590059B002BF2DB012000F064FBAD
:10058000059B213B122BE8D801A252F823F000BFB3
:10059000DD05000805060008730600085B05000875
:1005A0005B0500085B05000807070008DB0800087A
:1005B000ED070008570800087F080008A508000894
:1005C0005B050008B70800085B0500082D09000856
:1005D000F50600085B050008750900080220FFF712
:1005E000E7FE002840F0ED81019BB9F1000F08BF44
:1005F0001E4641F21233022107A8ADF81C3000F06C
:100600003DFAAAE74FF47A7000F0EAF9031E03936B
:10061000EADB0220FFF7CCFE82460028E4D0039BF1
:10062000581E042800F2CF81DFE800F0030D1013FC
:10063000160005230793042107A800F01FFA55466A
:100640004FF0000856E060480421F6E764480421B2
:10065000F3E764480421F0E71C25284600F03AFA45
:1006600004350790042107A800F008FA2C2DF4D1D6
:10067000E5E7002CB8D0002DB6D00220FFF798FE99
:100680000446002800F0A281012000F021FA534B1B
:100690000220187000F0E8FA00255FFA85F9484654
:1006A00000F026FA064658B1484600F031FA013506
:1006B0000028F2D12546A146064641F212139AE7D8
:1006C000464A01230220137000F0BEFA3746029B0F
:1006D0009B68BB4207D9384600F0FCF9013040F076
:1006E00077810437F3E73D4B00271F703A4BA14653
:1006F0005F60254600F058FB14B1002D18BF00269E
:10070000FFF75EFE29E7002C3FF46EAF002D3FF4AB
:100710006BAF324B0220187000F0A6FA322000F0C6
:100720005FF9B0F1000AC0F251811AF0030440F001
:100730004D81029A92680AEB0703934200F24681C8
:10074000BAF5807F00F34281274B0393A2450EDD6B
:100750004FF47A7000F044F90590059A002AC0F22F
:100760003581039B059A03F8012B0134EDE7C8207E
:10077000FFF71EFE0446002800F028811F2F11D825
:10078000C7F1200252450CAB27F0030028BF5246A8
:1007900059461844039200F08DFA039AFF215846F7
:1007A00000F0B2FA4FEAAA03CAF387025946384664
:1007B000039300F0B1FA0546002800F00C81039B7A
:1007C000044607EB830795E7282200204C230020EE
:1007D00034220020D90300085023002048220020A2
:1007E0002C220020302200204C2200200220FFF783
:1007F000DFFD00283FF4F8AE00F0B2F900283FF426
:10080000F3AE4FF0000A5346029A926852451CD943
:10081000BAF11F0F12D80C9A01320FD02AF003023E
:1008200014A90A4452F8202C07921846042207A95A
:1008300000F030FB0AF1040A0346E5E75046039353
:1008400000F048F9039B0790EFE70793042107A8FE
:1008500000F014F94EE70023642106A8069300F087
:10086000E9F800287FF4C0AE0220FFF7A1FD0028C0
:100870003FF4BAAE069800F05DF90790E6E7002372
:10088000642106A8069300F0D5F800287FF4ACAEEA
:100890000220FFF78DFD00283FF4A6AE069800F079
:1008A00059F9EAE70220FFF783FD00283FF49CAEE8
:1008B00000F066F9E1E70220FFF77AFD00283FF437
:1008C00093AE07A9142000F061F904218246069036
:1008D00006A800F0D3F85146B9E7322000F080F8BE
:1008E000B0F1000AFFF680AE1AF0030F7FF47CAE81
:1008F000029A92680AEB080393423FF675AE022013
:10090000FFF756FD00283FF46FAE2AF0030AC244F9
:10091000D0453FF4EFAE404600F0DCF804210790EC
:1009200007A800F0ABF808F10408F1E74FF47A707B
:10093000FFF73EFD00283FF457AE00F011F9002804
:100940003FF4BBAE0C9B01330CD008220CA9002055
:1009500000F0E2F900283FF4B0AE2022FF210CA8FD
:1009600000F0D2F9FFF72CFD1C4801F063F815B038
:10097000BDE8F08F002C3FF437AE002D3FF434AECD
:100980000023642107A8079300F054F8824600284A
:100990007FF42AAE0220FFF70BFD039000283FF4FE
:1009A00023AEFFF70DFD41F2883001F043F80798C0
:1009B00000F02CFA00F0F8F9039B56461D461C4641
:1009C000CBE5044696E64FF000080DE62C460BE614
:1009D0002546A14671E625466FE600BFA0860100C8
:1009E00073B5114B1A780132D2B20024012A8DF866
:1009F000074012D80D4D2B681E6A4FF47A7343439B
:100A000001220DF107012846B047012805D1084B06
:100A10009DF807001C7002B070BD4FF4FA7001F031
:100A200009F84FF0FF30F6E700220020C025002033
:100A30008423002038B50E4B1A780132D2B2012A35
:100A40000FD80C4C23681D6A4FF47A734B43042271
:100A500001462046A847042803D1074B0020187000
:100A600038BD4FF4FA7000F0E5FF4FF0FF30F7E7C4
:100A700000220020C02500208423002030B4054C33
:100A80002368DD69044B0A46AC460146204630BC6B
:100A9000604700BFC0250020A086010070B501F0AE
:100AA00015FA094C094E20700025306823788342DE
:100AB00008D901F005FA336805440133B5F5803FE4
:100AC0003360F2D370BD00BF85230020582300207F
:100AD00001F0A6BA00F1006000F5803000687047B0
:100AE00000F10060920000F5803001F035BA00009E
:100AF000054B1A68054B1B789B1A834202D9104498
:100B000001F0DEB900207047582300208523002023
:100B100038B5074D04462868204401F0D9F928B9B2
:100B200028682044BDE8384001F0EAB938BD00BF6C
:100B30005823002010F0030309D1B0F5007F04D83A
:100B400000F10050A0F508400368184670470023E4
:100B5000FBE70000014BC058704700BF107AFF1F31
:100B6000064991F8243033B10023086A81F8243013
:100B70000822FFF7B5BF0120704700BF5C230020AB
:100B8000014B1868704700BF002004E070B52B4B84
:100B90001A68C2F30B030446120C63B140F213400F
:100BA000834231D040F2194083422FD040F221409D
:100BB00083422DD1032322480C2505FB03035E68E5
:100BC00093F9085042F201039A4224D0B2F5805FB3
:100BD00023D041F201039A4221D041F203039A4209
:100BE0001FD041F207039A4208BF3125621E0A4412
:100BF000741E0B46934216D214F9016F581CA6B10D
:100C000000F8016C0346F5E70123D4E70223D2E79D
:100C10000C4E3F25D6E73325E8E74125E6E75A2580
:100C2000E4E75925E2E7184605E02C2482421C70CF
:100C300001D9981C5D70401A70BD00BF002004E00F
:100C4000B433000888330008022803D1044B04227F
:100C50009A6170470128FCD1024B4FF40042F7E73C
:100C6000000C024000080240022804D1054B4FF45A
:100C700080229A6170470128FCD1034B4FF000425B
:100C8000F7E700BF000C024000080240022805D12F
:100C9000064A536983F00403536170470128FCD16D
:100CA000034A536983F40043F6E700BF000C024097
:100CB0000008024010B50023934203D0CC5CC4541A
:100CC0000133F9E710BD000030B5013810F9013FDC
:100CD0000C466BB194F900509D4201F1010107D11E
:100CE000551E1AB994F90020981A30BD2A46EDE72E
:100CF000002AF7D11046F8E703460246D01A12F947
:100D0000011B0029FAD1704702440346934202D0E6
:100D100003F8011BFAE770472DE9F843214C15460B
:100D200094F8242006460F4672BBDFF87880BDB3E6
:100D300094F824302BB92022FF2140462662FFF789
:100D4000E3FF94F82400C0F10802AA4228BF2A4613
:100D50005FFA82F93946920004EB8000FFF7AAFFA0
:100D600094F82430A5EB090599445FFA89F9B9F1A3
:100D7000080F16441744EDB284F82490D7D1FFF73A
:100D8000EFFE0028D3D108E0236A03EB82038342FD
:100D9000CBD0FFF7E5FE0028C7D10020BDE8F883DF
:100DA0000120FBE75C230020024B1A78024B1A70EB
:100DB000704700BF842300200022002010B50F4C94
:100DC0000F4800F009F921460D4800F031F9246878
:100DD0000C48626DD2F8043843F00203C2F80438BC
:100DE00000F028FE0849204600F028FA626DD2F88B
:100DF000043823F00203C2F8043810BDA8340008F8
:100E0000C025002040420F00B034000870470000A9
:100E1000FEE7000000B59BB0EFF309816822684649
:100E2000FFF748FFEFF30583044B9A6BDA6A9A6A7F
:100E30009A6A9A6A9A6A9A6A9B6AFEE700ED00E0EB
:100E400000B59BB0EFF3098168226846FFF732FFD7
:100E5000EFF30583044B9A6B9A6A9A6A9A6A9A6AC4
:100E60009A6A9B6AFEE700BF00ED00E000B59BB008
:100E7000EFF3098168226846FFF71CFFEFF3058353
:100E8000034B5A6B9A6A9A6A9A6A9A6A9B6AFEE755
:100E900000ED00E030B5094D0A4491420DD011F843
:100EA000013B5840082340F30004013B2C4013F061
:100EB000FF0384EA5000F6D1EFE730BD2083B8EDA0
:100EC0000023054A19460133102BC2E9001102F133
:100ED0000802F8D1704700BF8823002002684368E9
:100EE0001143016003B118477047000013B5446B0C
:100EF000D4F894341A681178042915D1217C022978
:100F000012D11979128901238B4013420CD101A906
:100F100004F14C0001F094FED4F89444019B217933
:100F20000246206800F0D2F902B010BD143001F082
:100F300017BE00004FF0FF33143001F011BE000067
:100F40004C3001F0E9BE00004FF0FF334C3001F0AF
:100F5000E3BE0000143001F0E5BD00004FF0FF31AA
:100F6000143001F0DFBD00004C3001F0B5BE0000D0
:100F70004FF0FF324C3001F0AFBE000038B5D0F872
:100F800094341A6811780429054601D0012038BD2F
:100F9000017C0229FAD1187901238340508913EA90
:100FA0000004F3D105F1140001F076FD024600289B
:100FB000ECD0D5F894544FF480732868697900F028
:100FC00073F92046E3E70000406BFFF7D7BF00004E
:100FD00000207047704700007FB5124B036000236C
:100FE0004360C0E90233012502260F4B0574044615
:100FF0000290019300F18402294600964FF4807319
:10100000143001F025FD094B0294CDE9006304F58D
:1010100023724FF48073294604F14C0001F0ECFD7B
:1010200004B070BDE4330008C90F0008ED0E0008DD
:101030000B68202282F311880A7903EB8202906107
:101040004A79093243F822008A7912B103EB82030C
:10105000986102230374C0F89414002383F3118869
:101060007047000038B5037F044613B190F8543040
:10107000ABB9201D01250221FFF730FF04F1140058
:1010800025776FF0010100F0FDFC84F8545004F165
:101090004C006FF00101BDE8384000F0F3BC38BDF2
:1010A00010B5012104460430FFF718FF0023237711
:1010B00084F8543010BD000038B5044600251430C3
:1010C00001F0DEFC04F14C00257701F0ADFD201DA0
:1010D00084F854500121FFF701FF2046BDE8384055
:1010E000FFF74CBF90F8443003F06003202B07D18A
:1010F00090F84520212A4FF0000303D81F2A06D874
:1011000000207047222AFBD1C0E90E3303E0034AD6
:1011100082630722C263036401207047012200201A
:1011200037B5D0F894341A681178042904461AD1D6
:10113000017C022917D11979128901238B401342AE
:1011400011D100F14C05284601F02EFE58B101A93D
:10115000284601F075FDD4F89444019B217902469C
:10116000206800F0B3F803B030BD0000F0B500EB2C
:10117000810385B09E6904460D46FEB1202383F3AA
:10118000118804EB8507301D0821FFF7A7FEFB68D7
:101190005B691B6806F14C001BB1019001F05EFD1C
:1011A000019803A901F04CFD024648B1039B294672
:1011B000204600F08BF8002383F3118805B0F0BDC2
:1011C000FB685A691268002AF5D01B8A013B13405C
:1011D000F1D104F14402EAE7093138B550F8214071
:1011E000DCB1202383F31188D4F894241368527956
:1011F00003EB8203DB689B695D6845B104216018DD
:10120000FFF76CFE294604F1140001F04FFC204664
:10121000FFF7B4FE002383F3118838BD7047000048
:1012200000F0FEBF012303700023C0E90133C36156
:1012300083620362C36243620363704738B5044646
:10124000202383F311880025C0E90355C0E9055523
:10125000416000F0F5FF0223237085F3118838BD4B
:1012600070B500EB810305465069DA600E461446FE
:1012700018B110220021FFF747FDA06918B1102214
:101280000021FFF741FD31462846BDE8704001F0DE
:10129000A1B80000826802F0011282600022C0E959
:1012A0000422826101F024B9F0B400EB8104478983
:1012B000E4680125A4698D403D43458123600023F6
:1012C000A2606360F0BC01F03FB90000F0B400EB35
:1012D00081040789E468012564698D403D430581E7
:1012E00023600023A2606360F0BC01F0B9B9000084
:1012F00070B50223002504460370C0E90255C0E919
:101300000455C564856180F8345000F0FFFF6368C0
:101310001B6823B129462046BDE87040184770BDC0
:10132000027880F850204368052202701B680BB1D8
:10133000042118477047000090F85020436802705D
:101340001B680BB1052118477047000070B590F875
:101350003430044613B1002380F8343004F14402E1
:10136000204601F0E7F863689B68B3B994F844300D
:1013700013F0600539D00021204601F035FB002133
:10138000204601F027FB63681B6813B10621204645
:101390009847062384F8343070BD204698470028CB
:1013A000E4D094F84B2094F84A3043EA0223E26BED
:1013B0009A4288BFE36394F94430E56B002B4FF009
:1013C000200380F20881002D00F0F780092284F8C4
:1013D000342083F311880021D4E90E232046FFF73F
:1013E00075FF002383F31188D6E794F8452003F0B6
:1013F0007F0343EA022340F20232934200F0CA80A4
:1014000021D8B3F5807F4DD00DD8012B44D0022BCD
:1014100000F09880002BAED104F14C02A2630222AE
:10142000E2632364BDE7B3F5817F00F0A080B3F5EC
:10143000407FA0D194F84630012B9CD1B4F84C30B9
:1014400043F0020337E0B3F5006F52D01CD8B3F578
:10145000A06F36D0A3F5C063012B8CD894F8492037
:10146000616894F848304E6894F8471043EA0223C4
:10147000204694F84620B04700283FF47CAF4368EC
:10148000A3630368E3631AE0B3F5106F36D040F648
:10149000024293427FF46FAF5B4BA3630223E3638B
:1014A0000023BEE794F84630012B7FF464AFB4F814
:1014B0004C3023F00203C4E90E55A4F84C302564E7
:1014C0006FE7B4F84430B3F5A06F0ED194F846300E
:1014D00084F84E30204600F071FF63681B6813B13A
:1014E000012120469847032323700023C4E90E33CB
:1014F00097E704F14F03A3630123C3E72378042B89
:1015000010D1202383F311882046FFF7C3FE85F313
:1015100011880321636884F84F5021701B680BB158
:101520002046984794F84630002BDED084F84F30A0
:101530000423237063681B68002BD6D00221204649
:101540009847D2E794F848301D0603F00F01204673
:101550000AD500F0E1FF012804D002287FF40BAF88
:101560002A4B9AE72A4B98E700F0C8FFF3E794F874
:101570004630002B7FF4FFAE94F8483013F00F0193
:10158000B3D01A06204602D501F042FAADE701F0C9
:1015900035FAAAE794F84630002B7FF4ECAE94F8C5
:1015A000483013F00F01A0D01B06204602D501F0F1
:1015B0001BFA9AE701F00EFA97E7142284F8342018
:1015C00083F311882B462A4629462046FFF76CFEF6
:1015D00085F31188E0E65DB1152284F8342083F3A9
:1015E00011880021D4E90E232046FFF75DFEF8E6BE
:1015F0000B2284F8342083F311882B462A4629468F
:101600002046FFF763FEE3E7143400080C340008BB
:101610001034000838B590F834300446002B42D01E
:10162000063BDAB20F2A38D80F2B36D8DFE803F0A2
:101630003B353508263635353535353535353B3B83
:1016400090F84B1090F84A20C36B42EA0122934273
:1016500014D2C268128AB3FBF2F502FB15356DB9DC
:10166000202383F311882B462A462946FFF72EFEB6
:1016700085F311880A2384F834300EE0142384F8AB
:101680003430202383F3118800231A46194620465C
:10169000FFF70AFE002383F3118838BD036C03B102
:1016A00098470023E7E70021204601F09DF900213B
:1016B000204601F08FF963681B6813B106212046AC
:1016C00098470623D7E7000010B590F83430142B64
:1016D000044629D017D8062B05D001D81BB110BD60
:1016E000093B022BFBD80021204601F07DF90021A7
:1016F000204601F06FF963681B6813B1062120468C
:101700009847062319E0152BE9D10B2380F83430D4
:10171000202383F3118800231A461946FFF7D6FDCC
:10172000002383F31188DAE7C3689B695B68002BA9
:10173000D5D1036C03B19847002384F83430CEE749
:10174000024B0022C3E900339A607047082400204E
:10175000002303748268054B1B6899689142FBD291
:101760005A68036042601060586070470824002087
:1017700008B5202383F31188037C032B05D0042BA9
:101780000DD02BB983F3118808BD436900221A607C
:101790004FF0FF334361FFF7DBFF0023F2E7D0E9AF
:1017A000003213605A60F3E7002303748268054B2C
:1017B0001B6899689142FBD85A68036042601060C8
:1017C0005860704708240020054B19690874186890
:1017D00002681A605360186101230374FEF794BD18
:1017E0000824002030B54B1C0B4D87B0044610D0A8
:1017F0002B690A4A01A800F061F92046FFF7E4FFCF
:10180000049B13B101A800F095F92B69586907B042
:1018100030BDFFF7D9FFF8E7082400207117000852
:1018200038B50C4D41612B6981689A689142044634
:1018300003D8BDE83840FFF78BBF1846FFF788FF95
:1018400001232C61014623742046BDE83840FEF791
:101850005BBD00BF08240020044B1A681B69906818
:101860009B68984294BF0020012070470824002004
:1018700010B5084C236820691A6822605460012260
:1018800023611A74FFF790FF01462069BDE81040FC
:10189000FEF73ABD08240020FFF7EABFFEE700008C
:1018A00010B5174CFFF74CFF00F0FAF815498022ED
:1018B000204600F081F8012344F8180C0374124B01
:1018C000124AD96821F4E0610904090C0A4310495D
:1018D000DA60CA6842F08072CA600E490A6842F053
:1018E00001020A601022DA77202283F822200023E6
:1018F00083F3118862B60848BDE8104000F07CB858
:10190000302400201834000800ED00E00003FA0540
:10191000F0ED00E0001000E0283400082DE9F84F59
:101920001F4C0027656904F11409B8464FF0804345
:10193000A9685A6A236AD61A8E421DD34FF0200A2C
:10194000AA68236AD5F80CB0134423622B684B4570
:10195000C3F80490A6EB02066361EF6001D101F0C9
:101960004BFA88F311882869D8478AF3118865698A
:10197000AB689E42E4D2D9E7616949450DD08868D9
:10198000226203449B1A8B60A868BDE8F84F0228C6
:101990002CBF1018901C01F035BABDE8F88F00BFBD
:1019A00008240020034B59685A68521A9042FBD809
:1019B000704700BF001000E0826002220282704780
:1019C0008368A3F17C0243F80C2C026943F83C2C99
:1019D000426943F8382C074A43F81C2CC26843F884
:1019E000102C022203F8082C002203F8072CA3F184
:1019F000180070472103000810B5202383F31188D5
:101A0000FFF7DEFF00210446FFF70AFF002383F300
:101A10001188204610BD0000024B1B6958610F2041
:101A2000FFF7D2BE08240020202383F31188FFF79C
:101A3000F3BF000008B50146202383F31188082076
:101A4000FFF7D0FE002383F3118808BD49B1064B90
:101A500042681B6918605A60136043600420FFF7F6
:101A6000C1BE4FF0FF307047082400200368984241
:101A700006D01A680260506059611846FFF768BEC8
:101A80007047000038B504460D462068844200D1F6
:101A900038BD036823605C604561FFF759FEF4E7D9
:101AA000054B03F11402C3E905224FF0FF31002278
:101AB000C3E90712704700BF08240020F8B5C0E949
:101AC00003234FF0804302295C6A194B1A4638BF42
:101AD000022152F8145F954206461F460AD1C3E917
:101AE00005001C62C0E9005581600819BDE8F84096
:101AF00001F07AB9186AAB68241A0C1902D32D6860
:101B0000E41A04E0A34202D9204401F07BF9AB6857
:101B1000A342F4D36B68736035601E606E60B4607E
:101B2000AB681C1B4FF0FF33AC60FB61F8BD00BF1E
:101B3000082400201B4902680B4610B453F8144FC8
:101B400084420FD041680A60026851609A424FF0A7
:101B50000001C16003D0936881680B4493605DF815
:101B6000044B704700209A424A615360E06003D101
:101B70005DF8044B01F040B99368A068034493609A
:101B80004FF08042086A526A111A8B42E7D9821AD2
:101B90001A44012A98BF8B1C5DF8044B184401F0CD
:101BA00031B900BF0824002000207047FEE7000084
:101BB000704700004FF0FF307047000002290CD042
:101BC000032904D00129074818BF00207047032AC1
:101BD00005D8054800EBC200704704487047002054
:101BE000704700BF0C35000808220020C0340008F0
:101BF00070B59AB001AE054608463146144600F06D
:101C000097F83046FFF778F8431C5B00C5E90034CD
:101C10002370032363700023C1B202341846DAB282
:101C2000914204F1020401D81AB070BDF25C04F8CC
:101C3000022C04F8010C0133F1E7000008B5202361
:101C400083F311880348FFF76BFA002383F31188AD
:101C500008BD00BFC025002007B5052917D8DFE85B
:101C600001F0191603191920202383F31188104A53
:101C700001900121FFF7F4FA01980E4A0221FFF7C3
:101C8000EFFA0D48FFF718FA002383F3118803B029
:101C90005DF804FB202383F311880748FFF7E2F97E
:101CA000F2E7202383F311880348FFF7F9F9EBE704
:101CB0006034000884340008C025002038B50C4D7D
:101CC0000C4C0D492A4604F10800FFF791FF05F17D
:101CD000CA0204F110000949FFF78AFF05F5CA722C
:101CE00004F118000649BDE83840FFF781BF00BF86
:101CF000882A002008220020403400084A340008C6
:101D00005534000870B5044608460D46FEF7F4FF4A
:101D1000C6B22046013403780BB9184670BD32466E
:101D20002946FEF7D1FF0028F3D10120F6E7000095
:101D30002DE9F84F05460C46FEF7DEFF2949C6B2ED
:101D40002846FFF7DFFF08B1023EF6B226492846D3
:101D5000FFF7D8FF08B11036F6B2632E0DD8DFF8C2
:101D60008490DFF884A0214FDFF888B0DFF8888006
:101D70002E7846B92670BDE8F88F29462046BDE882
:101D8000F84F01F0F9BA252E28D1072249462846F6
:101D9000FEF79AFF40B9D8F80030236098F8043075
:101DA000237107350534E3E7082251462846FEF73C
:101DB0008BFF98B90E4BA21C197809090232C95D34
:101DC00002F8041C13F8011B01F00F015B45C95D0B
:101DD00002F8031CF0D118340835C9E704F8016B88
:101DE0000135C5E72C350008553400083A350008A0
:101DF000107AFF1F1C7AFF1F34350008BFF34F8F86
:101E0000024AD368DB03FCD4704700BF003C0240A9
:101E100008B5094B1B7873B9FFF7F0FF074B1A6938
:101E2000002ABFBF064A5A6002F188325A601A6817
:101E300022F480621A6008BDE62C0020003C0240BB
:101E40002301674508B50B4B1B7893B9FFF7D6FF05
:101E5000094B1A6942F000421A611A6842F4805232
:101E60001A601A6822F480521A601A6842F480627A
:101E70001A6008BDE62C0020003C02400B28F0B59B
:101E800016D80C4A0C4C117879B90C4D26460C2307
:101E90004FF0006155F8047B46F8041B013B13F03A
:101EA000FF033944F6D10123137054F82000F0BD2C
:101EB0000020FCE7182D0020E82C00204C350008FD
:101EC000014B53F8200070474C3500080C20704738
:101ED0000B2810B5044601D9002010BDFFF7CEFF36
:101EE000064B53F824301844C21A0BB90120F4E70A
:101EF00012680132F0D1043BF6E700BF4C35000810
:101F00000B2810B5044621D8FFF778FFFFF780FFB4
:101F10000F4AF323D360C300DBB243F4007343F0F2
:101F200002031361136943F480331361FFF766FF03
:101F3000FFF7A4FF074B53F8241000F0D5F8FFF784
:101F400081FF2046BDE81040FFF7C2BF002010BD52
:101F5000003C02404C350008F8B512F0010315466C
:101F600042D18218B2F1016F53D22B4B1B6813F090
:101F700001034ED0294CFFF74BFFF323E360FFF73B
:101F80003DFF40F20127032D15D825F00105234C14
:101F90006E18401A40F20117B142236900EB0105A7
:101FA00024D123F001032361FFF74CFF0120F8BD8A
:101FB000043D0430E7E78307E7D1236923F4407346
:101FC000236123693B43236151F8046B0660BFF32F
:101FD0004F8FFFF713FF03689E42E9D0236923F078
:101FE00001032361FFF72EFF0020E0E723F4407395
:101FF000236123693B4323610B882B80BFF34F8F01
:10200000FFF7FCFE2D8831F8023BADB2AB42C3D0E6
:10201000E4E71846CBE700BF00380240003C02402E
:10202000084908B50B7828B11BB9FFF7F1FE012369
:102030000B7008BD002BFCD0BDE808400870FFF70E
:1020400001BF00BFE62C002010B50244064BD2B2FF
:10205000904200D110BD441C00B253F8200041F85A
:10206000040BE0B2F4E700BF502800400F4B30B53E
:102070001C6F240407D41C6F44F400741C671C6F8D
:1020800044F400441C670A4C236843F480732360C3
:102090000244084BD2B2904200D130BD441C00B281
:1020A00051F8045B43F82050E0B2F4E700380240F6
:1020B000007000405028004007B5012201A900200F
:1020C000FFF7C2FF019803B05DF804FB13B50446A7
:1020D000FFF7F2FFA04205D0012201A900200194E0
:1020E000FFF7C4FF02B010BD70470000034B1B6830
:1020F0009B0042BF024B01221A70704774380240A5
:10210000192D0020014B1878704700BF192D0020B1
:1021100070470000FEE70000084A094B09498B425E
:1021200004D3094A0021934205D3704752F8040BA7
:1021300043F8040BF3E743F8041BF4E7D036000838
:10214000942D0020942D0020942D002030B5D0E94E
:10215000154300229D6811464FF0FF3004EB4213F7
:1021600001329542C3F80019C3F81019C3F80809E1
:10217000C3F8001BC3F8101BC3F8080BEED24FF0D6
:102180000113C4F81C3830BD890141F02001016100
:1021900003699B06FCD41220FFF704BC1F4B03EB22
:1021A00080022DE9F043D2F80CC05D6DDCF81420FC
:1021B000461CD2F800E005EB063605EB40185168E6
:1021C00071450BD3D5F83428012303FA00F022EA35
:1021D0000000C5F834081846BDE8F083BCF810408C
:1021E000AEEB0103A34228BF2346D8F81849A4B296
:1021F000B3EB840F0FD89468A4F1040959F8047F55
:102200003760A4EB09071F44042FF7D81C440B4484
:1022100094605360D3E70020DEE700BF1C2D002050
:1022200010B5054C2046FEF7FDFF4FF0A043636557
:10223000024BA36510BD00BF1C2D0020A035000877
:1022400070B50378012B054650D12A4B446D984256
:102250001BD1294B5A6B42F080025A635A6D42F0EF
:1022600080025A655A6D5A6942F080025A615A6971
:1022700022F080025A610E2143205B6900F0D2FBFC
:102280001E4BE3601E4BC4F800380023C4F8003E28
:10229000C02323606E6D4FF40413A3633369002BD6
:1022A000FCDA012333610C20FFF77CFB3369DB0789
:1022B000FCD41220FFF776FB3369002BFCDA0026F2
:1022C000A6602846FFF742FF6B68C4F81068DB6819
:1022D000C4F81468C4F81C684BB90A4BA3614FF0EA
:1022E000FF336361A36843F00103A36070BD064B35
:1022F000F4E700BF1C2D00200038024040140040CD
:1023000003002002003C30C0083C30C0F8B5446DEA
:10231000054600212046FFF737FFA96D00234FF047
:1023200001128F68C4F834384FF00066C4F81C28D6
:102330004FF0FF3004EB431201339F42C2F80069B3
:10234000C2F8006BC2F80809C2F8080BF2D20B6899
:102350006A6DEB65636210231361166916F010064F
:10236000FBD11220FFF71EFBD4F8003823F4FE63E4
:10237000C4F80038A36943F4402343F01003A36179
:102380000923C4F81038C4F814380A4BEB604FF036
:10239000C043C4F8103B084BC4F8003BC4F81069B4
:1023A000C4F80039EB6D03F1100243F48013EA65C1
:1023B000A362F8BD7C35000840800010426D90F8A3
:1023C0004E10D2F8003823F4FE6343EA0113C2F83A
:1023D000003870472DE9F84300EB8108456DD8F8C7
:1023E0000C20166806F00306731E022B05EB411342
:1023F0000C460FFA81F94FEA41174FF00001C3F87C
:10240000101B04F110034FF0010198BFB60401FA4C
:1024100003F193698EBF344E06F1805606F50046EF
:10242000002B3CD0B2F812C004F158035B014CEA17
:10243000060C45F803C0D5F81C381943EB19C5F84C
:102440001C180021C3F8101953690127611EA74009
:1024500093B3138A928B9B08012A88BF5343C26DA2
:1024600003EB020C42EA034301F1400205EB820256
:10247000C0F85CC0214653602846FFF785FED8F8B7
:102480000C301B8A43EA8453483464011E432E51A6
:10249000D5F81C381F43C5F81C78BDE8F88305EB58
:1024A000491CDCF8003B23F40043CCF8003BD5F892
:1024B0001C3823EA0101C1E704F13F0305EB830364
:1024C0000A4A5A6005EB491921462846FFF75CFE87
:1024D000D9F8003923F40043C9F80039D5F81C387D
:1024E00023EA0707D7E700BF0080001000040002BE
:1024F000826D1268C265FFF729BE00005831436D36
:1025000049015B5813F4004004D013F4001F0CBFC2
:1025100002200120704700004831436D49015B589B
:1025200013F4004004D013F4001F0CBF022001205C
:102530007047000000EB8101CB68196A0B681360DB
:102540004B6853607047000000EB810330B5DD68D5
:10255000AA691368D36019B9402B84BF4023136064
:102560006B8A1468426D1C44013CB4FBF3F4634372
:10257000033323F0030302EB411043EAC44343F067
:10258000C043C0F8103B2B6803F00303012B09B2D2
:102590000ED1D2F8083802EB411013F4807FD0F846
:1025A000003B14BF43F0805343F00053C0F8003B9E
:1025B00002EB4112D2F8003B43F00443C2F8003B67
:1025C00030BD00002DE9F041244D6E6D06EB401347
:1025D0000446D3F8087BC3F8087B38070AD5D6F839
:1025E0001438190706D505EB84032146DB68284615
:1025F0005B689847FA071FD5D6F81438DB071BD558
:1026000005EB8403D968CCB98B69488A5E68B6FB50
:10261000F0F200FB12628AB91868DA6890420DD2B3
:10262000121AC3E90024202383F311880B482146A2
:10263000FFF78AFF84F31188BDE8F081012303FAD4
:1026400004F26B8923EA02036B81CB68002BF3D081
:1026500021460248BDE8F041184700BF1C2D00206C
:1026600000EB810370B5DD68436D6C692668E66038
:102670004A0156BB1A444FF40020C2F810092A68D8
:1026800002F00302012A0AB20ED1D3F8080803EBC4
:10269000421410F4807FD4F8000914BF40F0805039
:1026A00040F00050C4F8000903EB4212D2F80009D0
:1026B00040F00440C2F80009D3F83408012202FABD
:1026C00001F10143C3F8341870BD19B9402E84BF1D
:1026D0004020206020682E8A8419013CB4FBF6F467
:1026E00040EAC44040F000501A44C6E7F8B504463A
:1026F0001E48456D05EB4413D3F80869C3F8086913
:10270000F10717D5D5F81038DA0713D500EB840395
:10271000D9684B691F68DA68974218D2D21B002724
:102720001A605F60202383F311882146FFF798FF2A
:1027300087F31188330617D5D5F834280123A34031
:10274000134211D02046BDE8F840FFF727BD012312
:1027500003FA04F2038923EA020303818B68002B46
:10276000E8D021469847E5E7F8BD00BF1C2D0020C2
:102770002DE9F74F9648466D7569B3691D4015F40C
:1027800080587561044606D0FEF7B2FD03B0BDE87F
:10279000F04F00F0C5BB002D12DAD6F8003E8C4891
:1027A0009F071EBFD6F8003E23F00303C6F8003E85
:1027B000D6F8043823F00103C6F80438FEF7BCFD50
:1027C000280502D58248FEF7ABFDA9040CD5D6F842
:1027D000083813F0060FF36823F470530CBF43F46A
:1027E000105343F4A053F3602A0704D56368DB68F1
:1027F0000BB177489847EB0274D4AF0227D5D4F8D1
:102800005490DFF8CCB100274FF0010A09EB4712D2
:10281000D2F8003B03F44023B3F5802F11D1D2F856
:10282000003B002B0DDA62890AFA07F322EA030360
:10283000638104EB8703DB68DB6813B139465846D4
:102840009847A36D01379B68FFB29F42DED9E80627
:1028500017D5676D3A6AC2F30A1002F00F0302F44B
:10286000F012B2F5802F00F08880B2F5402F08D129
:1028700004EB83030022DB681B6A07F58057904254
:102880006DD12903D6F8184813D5E20302D50020EC
:10289000FFF798FEA30302D50120FFF793FE67031D
:1028A00002D50220FFF78EFE260302D50320FFF794
:1028B00089FE6D037FF56AAFE00702D50020FFF7C0
:1028C00015FFA10702D50120FFF710FF620702D50F
:1028D0000220FFF70BFF23077FF558AF0320FFF718
:1028E00005FF53E7636DDFF8E8B0019300274FF071
:1028F000010AA36D9B685FFA87F94B45FFF47DAF32
:10290000019B03EB4913D3F8002902F44022B2F5EE
:10291000802F22D1D3F80029002A1EDAD3F800290B
:1029200042F09042C3F80029D3F80029002AFBDBCB
:10293000606D4946FFF728FC22890AFA09F322EA6A
:102940000303238104EB8903DB689B6813B14946C9
:10295000584698474846FFF721FC0137C9E79107D9
:1029600008BFD7F80080072A98BF03F8018B02F14F
:10297000010298BF4FEA182881E7023304EB830273
:1029800007F580575268D2F818C0DCF80820DCE957
:10299000001CA1EB0C0C002188420AD104EB83043B
:1029A00063689B699A6802449A605A681044586048
:1029B00067E711F0030F08BFD7F800808C4588BF88
:1029C00002F8018B01F1010188BF4FEA1828E3E703
:1029D0001C2D0020436D03EB4111D1F8003B43F463
:1029E0000013C1F8003B7047436D03EB4111D1F870
:1029F000003943F40013C1F800397047436D03EB0D
:102A00004111D1F8003B23F40013C1F8003B70479B
:102A1000436D03EB4111D1F8003923F40013C1F8E1
:102A20000039704700F1604303F561430901C9B201
:102A300083F80013012200F01F039A4043099B0012
:102A400003F1604303F56143C3F880211A607047C6
:102A500030B5039C0172043304FB0325C0E906531F
:102A6000049B03630021059BC160C0E90000C0E92D
:102A70000422C0E90842C0E90A11436330BD0000E6
:102A8000416A0022C0E90411C0E90A22C2606FF065
:102A90000101FEF7F7BF0000D0E90432934201D1F3
:102AA000C2680AB9181D7047002070470369196091
:102AB000C2680132C260C2691344826903619342F1
:102AC00024BF436A03610021FEF7D0BF38B5044636
:102AD0000D46E3683BB16269131D1268A36213449B
:102AE000E362002007E0237A33B929462046FEF747
:102AF000ADFF0028EDDA38BD6FF00100FBE7000004
:102B0000C368C269013BC36043691344826943617E
:102B1000934224BF436A436100238362036B03B182
:102B20001847704770B52023044683F31188866ADE
:102B30003EB9FFF7CBFF054618B186F3118828464A
:102B400070BDA36AE26A13F8015BA362934202D3E9
:102B50002046FFF7D5FF002383F31188EFE700003D
:102B60002DE9F84F04460E4690469946202787F3F4
:102B700011880025AA46D4F828B0BBF1000F09D16E
:102B800049462046FFF7A2FF20B18BF31188284663
:102B9000BDE8F88FD4E90A12A8EB050B521A934549
:102BA00028BF9346BBF1400F1BD9334601F14002C9
:102BB00051F8040B43F8040B9142F9D1A36A403356
:102BC0004036A3624035D4E90A239A4202D3204614
:102BD000FFF796FF8AF311884545D8D287F311880D
:102BE000C9E730465A46FEF765F8A36A5B445E447F
:102BF000A3625D44E7E7000010B5029C0172043354
:102C000004FB0321C0E906130023C0E90A33039B38
:102C10000363049BC460C0E90000C0E90422C0E96A
:102C20000842436310BD0000026AC260426AC0E904
:102C300004220022C0E90A226FF00101FEF722BF40
:102C4000D0E904239A4201D1C26822B9184650F84B
:102C5000043B0B607047002070470000C368C269E6
:102C60000133C3604369134482694361934224BFC3
:102C7000436A43610021FEF7F9BE000038B50446FF
:102C80000D46E3683BB123691A1DA262E269134451
:102C9000E362002007E0237A33B929462046FEF795
:102CA000D5FE0028EDDA38BD6FF00100FBE700002B
:102CB00003691960C268013AC260C269134482693B
:102CC0000361934224BF436A036100238362036B61
:102CD00003B118477047000070B520230D46044625
:102CE000114683F31188866A2EB9FFF7C7FF10B12A
:102CF00086F3118870BDA36A1D70A36AE26A01336E
:102D00009342A36204D3E16920460439FFF7D0FF60
:102D1000002080F31188EDE72DE9F84F04460D46B9
:102D200091469A464FF0200888F311880026B34652
:102D3000A76A4FB951462046FFF7A0FF20B187F39D
:102D400011883046BDE8F88FD4E90A073A1AA9EB92
:102D50000607974228BF1746402F1BD905F14003AD
:102D600055F8042B40F8042B9D42F9D1A36A403357
:102D7000A3624036D4E90A239A4204D3E16920468B
:102D80000439FFF795FF8BF311884E45D9D288F3AC
:102D90001188CDE729463A46FDF78CFFA36A3B44EC
:102DA0003D44A3623E44E5E7D0E904239A4217D1AB
:102DB000C3689BB1836A8BB1043B9B1A0ED013602E
:102DC000C368013BC360C3691A44836902619A42C4
:102DD00024BF436A036100238362012318467047BE
:102DE0000023FBE700F0DEB84FF080430022586379
:102DF0001A610222DA6070474FF080430022DA60E5
:102E0000704700004FF08043586370474B68436041
:102E10008B688360CB68C3600B6943614B69036255
:102E20008B6943620B6803607047000008B5224B52
:102E300022481A6940F2FF110A431A611A6922F402
:102E4000FF7222F001021A611A691A6B0A431A63AF
:102E50001A6D0A431A651A4A1B6D1146FFF7D6FF11
:102E6000184802F11C01FFF7D1FF174802F13801A1
:102E7000FFF7CCFF154802F15401FFF7C7FF1448D4
:102E800002F17001FFF7C2FF124802F18C01FFF757
:102E9000BDFF114802F1A801FFF7B8FF0F4802F18A
:102EA000C401FFF7B3FF0E4802F1E001FFF7AEFFE8
:102EB000BDE8084000F0E0B80038024000000240E1
:102EC000AC3500080004024000080240000C02403B
:102ED000001002400014024000180240001C024092
:102EE0000020024008B500F037FAFEF7D9FCFFF7E2
:102EF000FDF8BDE80840FEF7E1BE000070470000A5
:102F0000064A536823F001035360EFF309836833E3
:102F100083F30988002383F31188704730EF00E0C2
:102F200010B5202383F31188104B5B6813F4006302
:102F300018D0F1EE103AEFF309844FF0807344F8A3
:102F40004C3C0B4BDB6844F8083CA4F1680383F36A
:102F50000988FEF781FC18B1064B44F8503C10BDBF
:102F6000054BFAE783F31188F9E700BF00ED00E0B5
:102F700030EF00E031030008340300084FF08043D5
:102F800010B51A69920708D500241C61202383F329
:102F90001188FEF7C3FC84F31188BDE81040FFF7E9
:102FA000BFBF0000104B1A6C42F001021A641A6E87
:102FB00042F001021A660D4A1B6E936843F001034A
:102FC00093604FF0804353229A624FF0FF32DA62EF
:102FD00000229A615A63DA605A6001225A6108211C
:102FE0001A601C20FFF71EBD00380240002004E0DC
:102FF0001F4B1A696FEAC2526FEAD2521A611A69FC
:10300000C2F308021A614FF0FF301A695A69586119
:1030100000215A6959615A691A6A62F080521A622B
:103020001A6A02F080521A621A6A5A6A58625A6A16
:1030300059625A6A1A6C42F080521A641A6E42F04F
:1030400080521A661A6E0B4A106840F48070106045
:10305000186F00F44070B0F5007F1EBF4FF4803051
:1030600018671967536823F40073536000F054B96C
:103070000038024000700040304B4FF080521A641C
:103080002F4A4FF4404111601A6842F001021A6061
:103090001A689207FCD59A6822F003029A60274BBF
:1030A00019469A6812F00C02FBD1186800F0F9007A
:1030B00018609A601A6842F480321A600B689B03A9
:1030C000FCD54B6F43F001034B671C4B5A6F9007C5
:1030D000FCD51C4A5A601A6842F080721A60184A7D
:1030E00053685904FCD5154B1A689201FCD5164A51
:1030F0009A60164B1A68164B9A42164B1BD1164A09
:103100001168164A914216D140F205121A600B4B13
:103110009A6842F002029A609A6802F00C02082A49
:10312000FAD15A6C42F480425A645A6E42F4804298
:103130005A665B6E704740F20572E7E7003802405E
:10314000007000401054400700948838002004E0CC
:1031500011640020003C024000ED00E041C20F413C
:10316000084A08B5516913680B4003F00103536125
:1031700023B1054A13680BB150689847BDE8084071
:10318000FFF7CEBE003C014088230020084A08B566
:10319000516913680B4003F00203536123B1054AE0
:1031A00093680BB1D0689847BDE80840FFF7B8BEF8
:1031B000003C014088230020084A08B55169136883
:1031C0000B4003F00403536123B1054A13690BB1AB
:1031D00050699847BDE80840FFF7A2BE003C014097
:1031E00088230020084A08B5516913680B4003F092
:1031F0000803536123B1054A93690BB1D06998471D
:10320000BDE80840FFF78CBE003C01408823002049
:10321000084A08B5516913680B4003F01003536165
:1032200023B1054A136A0BB1506A9847BDE80840BC
:10323000FFF776BE003C014088230020174B10B5F5
:103240005A691C68144004F478725A61A30604D5C4
:10325000134A936A0BB1D06A9847600604D5104AA6
:10326000136B0BB1506B9847210604D50C4A936B36
:103270000BB1D06B9847E20504D5094A136C0BB12A
:10328000506C9847A30504D5054A936C0BB1D06CDC
:103290009847BDE81040FFF743BE00BF003C014027
:1032A000882300201A4B10B55A691C68144004F496
:1032B0007C425A61620504D5164A136D0BB1506DFC
:1032C0009847230504D5134A936D0BB1D06D9847E9
:1032D000E00404D50F4A136E0BB1506E9847A10459
:1032E00004D50C4A936E0BB1D06E9847620404D596
:1032F000084A136F0BB1506F9847230404D5054A51
:10330000936F0BB1D06F9847BDE81040FFF708BE30
:10331000003C014088230020062108B50846FFF73D
:1033200081FB06210720FFF77DFB06210820FFF720
:1033300079FB06210920FFF775FB06210A20FFF71C
:1033400071FB06211720FFF76DFBBDE80840062141
:103350002820FFF767BB000008B5FFF749FEFDF71F
:10336000AFFDFDF75DFFFDF735FEFFF7C7FDBDE8DB
:103370000840FFF737BD0000034611F8012B03F8A2
:10338000012B002AF9D1704753544D3332463F3F49
:103390003F00000053544D333246343078005354CC
:1033A0004D3332463432780053544D333246343440
:1033B0003658580000000000883300083F00000025
:1033C00013040000943300083F00000019040000BB
:1033D0009E3300083F00000021040000A8330008CD
:1033E0003F00000000000000490F0008350F0008F2
:1033F000710F00085D0F0008690F0008550F0008E5
:10340000410F00082D0F0008D10F00080000000038
:1034100001000000000000006D61696E0000000006
:1034200069646C6500000000203400084824002016
:10343000C0250020010000009D18000800000000C9
:103440004172647550696C6F740025424F4152445B
:10345000252D424C002553455249414C2500000082
:1034600002000000000000006D110008D9110008E2
:1034700040004000582A0020682A00200200000076
:103480000000000003000000000000001D12000802
:103490000000000010000000782A0020000000005A
:1034A00001000000000000001C2D002001010200AE
:1034B000591C0008BD1B0008E51000083D1C000851
:1034C00043000000C834000809024300020100C0A4
:1034D0003209040000010202010005240010010568
:1034E00024010001042402020524060001070582CC
:1034F000030800FF09040100020A0000000705019B
:103500000240000007058102400000001200000098
:103510001435000812011001020000400912415741
:1035200000020102030100000403090425424F4187
:1035300052442500514D5756340030313233343522
:1035400036373839414243444546000000400000C8
:1035500000400000004000000040000000000100AA
:103560000000020000000200000002000000020053
:103570000000020000000200000002000000000045
:103580004D13000815160008C91600084000400039
:103590007C2D00207C2D0020010000008C2D0020BF
:1035A00080000000400100000300000004018002D0
:1035B00000000000AAAAAAAA04010000FFFF000060
:1035C0000000000000A00A0004000001000000004C
:1035D000AAAAAAAA04000001FFFF00000000000040
:1035E000000000000005044000000000AAAAAAAAEA
:1035F00000050000FFFD00000000000000000000CA
:103600001000000000000000AAAAAAAA0000000002
:10361000FFFF0000000000000000000000000000AC
:1036200000000000AAAAAAAA00000000FFFF0000F4
:10363000000000000000000000000000000000008A
:10364000AAAAAAAA00000000FFFF000000000000D4
:10365000000000000000000000000000AAAAAAAAC2
:1036600000000000FFFF000000000000000000005C
:1036700000000000000000000A0000000000000040
:103680000300000000000000000000000000000037
:10369000000000000000000000000000000000002A
:1036A0000000000000000000FF009600000000087D
:1036B00004000000283500080000000000000000A1
:1036C00000000000000000000000000000000000FA
:00000001FF
