:020000040800F2
:1000000000060020E1010008650E0008E50D00086B
:100010003D0E0008E50D0008110E0008E301000880
:10002000E3010008E3010008E3010008C92000081B
:10003000E3010008E3010008E3010008E301000810
:10004000E3010008E3010008E3010008E301000800
:10005000E3010008E301000891310008BD31000808
:10006000E93100081532000841320008E3010008B8
:10007000E3010008E3010008E3010008E3010008D0
:10008000E3010008E3010008E3010008E3010008C0
:10009000E3010008E3010008E30100086D320008F5
:1000A000E3010008E3010008E3010008E3010008A0
:1000B00005300008E3010008E3010008E30100083F
:1000C000E3010008E3010008E3010008E301000880
:1000D000E3010008E3010008E3010008E301000870
:1000E000D5320008E3010008E3010008E30100083D
:1000F000E3010008E3010008E3010008E301000850
:10010000E3010008E3010008E3010008E30100083F
:10011000E3010008E3010008E3010008E30100082F
:10012000E3010008E3010008E3010008E30100081F
:10013000E3010008E3010008E3010008E30100080F
:10014000E3010008E3010008E301000801280008BA
:10015000E3010008E3010008E3010008E3010008EF
:10016000E3010008E3010008E3010008E3010008DF
:10017000E3010008E3010008E3010008E3010008CF
:10018000E3010008E3010008E3010008E3010008BF
:10019000E3010008E3010008E3010008E3010008AF
:1001A000E3010008E3010008E3010008E30100089F
:1001B000E3010008E3010008E3010008E30100088F
:1001C000E3010008E3010008E3010008E30100087F
:1001D000E3010008E3010008E3010008E30100086F
:1001E00002E000F000F8FEE772B63A4880F30888B3
:1001F000394880F3098839484EF60851CEF200019B
:10020000086040F20000CCF200004EF63471CEF2ED
:1002100000010860BFF34F8FBFF36F8F40F2000003
:10022000C0F2F0004EF68851CEF200010860BFF334
:100230004F8FBFF36F8F4FF00000E1EE100A4EF6C4
:100240003C71CEF200010860062080F31488BFF3F1
:100250006F8F01F0B9FF01F095FF02F037FE4FF00C
:1002600055301F491B4A91423CBF41F8040BFAE745
:100270001C49194A91423CBF41F8040BFAE71A495C
:100280001A4A1B4B9A423EBF51F8040B42F8040B2A
:10029000F8E700201749184A91423CBF41F8040B87
:1002A000FAE701F073FF02F065FE144C144DAC4206
:1002B00003DA54F8041B8847F9E700F041F8114CC1
:1002C000114DAC4203DA54F8041B8847F9E701F0FA
:1002D0005BBF000000060020002200200000000894
:1002E0000000002000060020003700080022002047
:1002F0004022002040220020A42D0020E001000820
:10030000E0010008E0010008E00100082DE9F04FDD
:100310002DED108AC1F80CD0C3689D46BDEC108A43
:10032000BDE8F08F002383F311882846A047002002
:1003300001F0EAFAFEE701F07FFA00DFFEE70000D5
:1003400038B501F093FE054601F0B8FE0446D8B971
:100350000F4B9D421AD001339D4218BF044641F213
:10036000883504BF01240025002001F089FE0CB16E
:1003700000F056F800F00CFD00F086FB284600F077
:10038000A7F800F04DF8F9E70025EDE70546EBE7A3
:10039000010007B008B500F049FBA0F12003584266
:1003A000584108BD07B541F21203022101A8ADF87A
:1003B000043000F059FB03B05DF804FB10B52023B6
:1003C00083F311881248C3680BB101F023FB114A73
:1003D0000F4800234FF47A7101F0E0FA002383F311
:1003E00011880D4C236813B12368013B23606368B7
:1003F00013B16368013B6360084B1B7833B96368D2
:1004000023B9022000F036FC3223636010BD00BF28
:1004100040220020BD0300085C230020542200205D
:10042000254B264A10B51C461968013142D00433C9
:100430009342F9D16268224B9A423BD9214B9B6887
:1004400003F1006303F580339A4233D2002000F0B9
:1004500035FB1D4B0220187000F0FCFB1B4B1A6C87
:1004600000221A64196E1A66196E596C5A64596E14
:100470005A665A6E5A6942F080025A615A6922F0ED
:1004800080025A615A691A6942F000521A611A6967
:1004900022F000521A611B6972B64FF0E02320214E
:1004A000C3F8084DD4E9003281F311889D4683F3E7
:1004B0000888104710BD00BF000001082000010897
:1004C000FFFF0008002200205422002000380240D4
:1004D0002DE9F04F93B0A94B00902022FF210AA8EC
:1004E0009D6800F0FFFBA64A1378A3B9A548012137
:1004F000C3601170202383F31188C3680BB101F02E
:1005000089FAA14A9F4800234FF47A7101F046FA14
:10051000002383F31188009B9C4A03B113609C491C
:10052000009C00230B70536098469B461E469A46DB
:10053000012000F08FFB24B1944B1B68002B00F0CE
:100540001682002000F072FA0390039B002BF2DB6E
:10055000012000F06FFB039B213B162BE8D801A282
:1005600052F823F0C1050008E90500087D060008DF
:1005700031050008310500083105000811070008A1
:10058000E3080008FD0700085F0800088708000866
:10059000AD08000831050008BF0800083105000853
:1005A00031090008610600083105000875090008D6
:1005B000CD05000861060008310500085F08000845
:1005C0000220FFF7E7FE002840F0FB81009B02219C
:1005D000B8F1000F08BF1C4605A841F21233ADF870
:1005E000143000F041FAA3E74FF47A7000F01EFADD
:1005F000071EEBDB0220FFF7CDFE0028E6D0013F0F
:10060000052F00F2E081DFE807F0030A0D10133632
:1006100005230593042105A800F026FA17E05748A2
:100620000421F9E75B480421F6E75B480421F3E77E
:100630004FF01C09484600F043FA09F104090590FF
:10064000042105A800F010FAB9F12C0FF2D1012015
:1006500000FA07F747EA0B0B5FFA8BFB4FF0000A33
:1006600000F08CFB26B10BF00B030B2B08BF002412
:10067000FFF798FE5CE749480421CDE7002EA5D09E
:100680000BF00B030B2BA1D10220FFF783FE0746D3
:1006900000289BD001203E4E00F010FA022030705E
:1006A00000F0D8FA4FF000085FFA88F9484600F0E9
:1006B00015FA044690B1484600F020FA08F1010806
:1006C0000028F1D1B846044641F21213022105A8D0
:1006D000ADF814303E4600F0C7F929E701230220A7
:1006E000337000F0A7FA2546244B9B68AB4207D92C
:1006F000284600F0E5F9013040F068810435F3E761
:10070000234B00251D70214BB8465D603E46A7E790
:10071000002E3FF45BAF0BF00B030B2B7FF456AFB7
:100720001B4B0220187000F095FA322000F07EF981
:10073000B0F10009FFF64AAF19F003077FF446AFA6
:100740000E4A926809EB050393423FF63FAFB9F5B5
:10075000807F3FF73BAF124B0193B94522DD4FF449
:100760007A7000F063F90390039A002AFFF62EAF27
:10077000019B039A03F8012B0137EDE700220020CB
:100780005823002040220020BD0300085C230020E5
:100790005422002004220020082200200C220020E5
:1007A00058220020C820FFF7F5FD074600283FF437
:1007B0000DAF1F2D11D8C5F120024A450AAB25F017
:1007C000030028BF4A4683490192184400F064FAA6
:1007D000019A8048FF2100F085FA4FEAA9037D497C
:1007E0000193C9F38702284600F084FA06460028E0
:1007F0003FF46AAF019B05EB830531E70220FFF769
:10080000C9FD00283FF4E2AE00F0A2F900283FF451
:10081000DDAE0027B946704B9B68BB4218D91F2F2D
:1008200011D80A9B01330ED027F0030312AA1344F8
:1008300053F8203C05934846042205A900F014FB18
:1008400004378146E7E7384600F03AF90590F2E7C9
:10085000CDF81490042105A800F006F900E7002364
:10086000642104A8049300F0F5F800287FF4AEAEEC
:100870000220FFF78FFD00283FF4A8AE049800F097
:100880004FF90590E6E70023642104A8049300F0E3
:10089000E1F800287FF49AAE0220FFF77BFD0028E4
:1008A0003FF494AE049800F04BF9EAE70220FFF71A
:1008B00071FD00283FF48AAE00F05AF9E1E702200A
:1008C000FFF768FD00283FF481AE05A9142000F071
:1008D00055F904210746049004A800F0C5F83946EC
:1008E000B9E7322000F0A2F8071EFFF66FAEBB0793
:1008F0007FF46CAE384A926807EB0A0393423FF6E6
:1009000065AE0220FFF746FD00283FF45FAE27F0FA
:1009100003075744BA453FF4A3AE504600F0D0F861
:100920000421059005A800F09FF80AF1040AF1E7F8
:100930004FF47A70FFF72EFD00283FF447AE00F029
:1009400007F9002844D00A9B01330BD008220AA9DA
:10095000002000F0CFF900283AD02022FF210AA879
:1009600000F0C0F9FFF71EFD1C4800F0D3FF13B0E4
:10097000BDE8F08F002E3FF429AE0BF00B030B2BDC
:100980007FF424AE0023642105A8059300F062F8EB
:10099000074600287FF41AAE0220FFF7FBFC8146D1
:1009A00000283FF413AEFFF7FDFC41F2883000F061
:1009B000B1FF059800F014FA4E4600F0DFF93C460E
:1009C000B6E506464CE64FF0000AFFE5B8467BE682
:1009D000374679E65822002000220020A086010038
:1009E00070B50F4B1B780133DBB2012B0C4611D8CD
:1009F0000C4D29684FF47A730E6AA2FB033201464C
:100A000022462846B047844204D1074B00221A7080
:100A1000012070BD4FF4FA7000F07CFF0020F8E771
:100A200010220020502500209023002007B500232D
:100A3000024601210DF107008DF80730FFF7D0FFC6
:100A400020B19DF8070003B05DF804FB4FF0FF30C4
:100A5000F9E700000A4608B50421FFF7C1FF80F05E
:100A60000100C0B2404208BD30B4054C2368DD69C6
:100A7000044B0A46AC460146204630BC604700BFE6
:100A800050250020A086010070B501F0F5F9094E4F
:100A9000094D3080002428683388834208D901F04A
:100AA000E5F92B6804440133B4F5803F2B60F2D3A1
:100AB00070BD00BF922300206423002001F08ABA99
:100AC00000F1006000F580300068704700F10060C0
:100AD000920000F5803001F015BA0000054B1A684D
:100AE000054B1B889B1A834202D9104401F0BEB902
:100AF00000207047642300209223002038B5074D62
:100B000004462868204401F0B9F928B9286820442F
:100B1000BDE8384001F0CAB938BD00BF64230020E9
:100B200010F003030AD1B0F5047F05D200F10050A4
:100B3000A0F51040D0F80038184670470023FBE7B6
:100B400000F10050A0F51040D0F8100A70470000E6
:100B5000064991F8243033B10023086A81F8243023
:100B60000822FFF7B3BF0120704700BF68230020B1
:100B7000014B1868704700BF002004E070B52A4B95
:100B80001B68C3F30B0204461B0C62B140F2134016
:100B9000824230D040F2194082422ED040F22140B1
:100BA00082422CD10322214D0C2000FB02525568B9
:100BB00042F20102934224D0B3F5805F23D041F288
:100BC0000102934221D041F2030293421FD041F22D
:100BD0000702934214BF3F233123013C0C44013DE3
:100BE0000A46A24215D215F9016F501C9EB100F8B9
:100BF000016C0246F5E70122D5E70222D3E70C4D4E
:100C0000D6E73323E9E74123E7E75A23E5E759230A
:100C1000E3E7104605E02C258442157001D9901CAD
:100C20005370401A70BD00BF002004E0003400087B
:100C3000D4330008022804D1054B4FF080429A615A
:100C400070470128FCD1024B4FF00042F7E700BF8C
:100C500000080240022804D1054B4FF480429A61FB
:100C600070470128FCD1024B4FF40042F7E700BF68
:100C700000080240022805D1064A536983F48043E4
:100C8000536170470128FCD1024A536983F4004341
:100C9000F6E700BF0008024010B50023934203D0DE
:100CA000CC5CC4540133F9E710BD000010B5013825
:100CB00010F9013F3BB191F900409C4203D11AB1B8
:100CC0000131013AF4E71AB191F90020981A10BDE8
:100CD0001046FCE703460246D01A12F9011B002910
:100CE000FAD1704702440346934202D003F8011B35
:100CF000FAE770472DE9F8431F4D144695F8242074
:100D00000746884652BBDFF870909CB395F82430B4
:100D10002BB92022FF2148462F62FFF7E3FF95F809
:100D20002400C0F10802A24228BF2246D6B24146A2
:100D3000920005EB8000FFF7AFFF95F82430A41B6D
:100D40001E44F6B2082E17449044E4B285F824609D
:100D5000DBD1FFF7FDFE0028D7D108E02B6A03EBBB
:100D600082038342CFD0FFF7F3FE0028CBD10020CF
:100D7000BDE8F8830120FBE768230020024B1A78C6
:100D8000024B1A70704700BF9023002010220020F1
:100D900010B50F4C0F4800F0F7F821460D4800F051
:100DA0001FF924680C48626DD2F8043843F002033E
:100DB000C2F8043800F0AEFD0849204600F016FAEB
:100DC000626DD2F8043823F00203C2F8043810BD73
:100DD000F43400085025002040420F00FC34000885
:100DE0007047000000B59BB0EFF3098168226846A8
:100DF000FFF752FFEFF30583044B9A6BDA6A9A6AA6
:100E00009A6A9A6A9A6A9A6A9B6AFEE700ED00E01B
:100E100000B59BB0EFF3098168226846FFF73CFFFD
:100E2000EFF30583044B9A6B9A6A9A6A9A6A9A6AF4
:100E30009A6A9B6AFEE700BF00ED00E000B59BB038
:100E4000EFF3098168226846FFF726FFEFF3058379
:100E5000034B5A6B9A6A9A6A9A6A9A6A9B6AFEE785
:100E600000ED00E0FEE7000030B5094D0A44914274
:100E70000DD011F8013B5840082340F30004013B1A
:100E80002C4013F0FF0384EA5000F6D1EFE730BDA9
:100E90002083B8ED026843681143016003B118472D
:100EA0007047000013B5446BD4F894341A68117875
:100EB000042915D1217C022912D119791289012323
:100EC0008B4013420CD101A904F14C0001F004FF46
:100ED000D4F89444019B21790246206800F0CEF9B1
:100EE00002B010BD143001F087BE00004FF0FF3398
:100EF000143001F081BE00004C3001F059BF0000F9
:100F00004FF0FF334C3001F053BF0000143001F0BC
:100F100055BE00004FF0FF31143001F04FBE00000D
:100F20004C3001F025BF00004FF0FF324C3001F093
:100F30001FBF00000020704710B5D0F894341A6825
:100F400011780429044617D1017C022914D159795A
:100F5000528901238B4013420ED1143001F0E8FD79
:100F6000024648B1D4F894444FF480736179206804
:100F7000BDE8104000F070B910BD0000406BFFF7F5
:100F8000DBBF0000704700007FB5124B03600023F9
:100F90004360C0E90233012502260F4B0574044665
:100FA0000290019300F18402294600964FF4807369
:100FB000143001F099FD094B0294CDE9006304F56A
:100FC00023724FF48073294604F14C0001F060FE57
:100FD00004B070BD303400087D0F0008A50E000875
:100FE0000B68202282F311880A7903EB8202906158
:100FF0004A79093243F822008A7912B103EB82035D
:10100000986102230374C0F89414002383F31188B9
:101010007047000038B5037F044613B190F8543090
:10102000ABB9201D01250221FFF734FF04F11400A4
:1010300025776FF0010100F095FC84F8545004F11D
:101040004C006FF00101BDE8384000F08BBC38BDAA
:1010500010B5012104460430FFF71CFF002323775D
:1010600084F8543010BD000038B504460025143013
:1010700001F052FD04F14C00257701F021FE201D06
:1010800084F854500121FFF705FF2046BDE83840A1
:10109000FFF752BF90F8443003F06003202B07D1D4
:1010A00090F84520212A4FF0000303D81F2A06D8C4
:1010B00000207047222AFBD1C0E90E3303E0034A27
:1010C00082630722C263036401207047112200205B
:1010D00037B5D0F894341A681178042904461AD127
:1010E000017C022917D11979128901238B401342FF
:1010F00011D100F14C05284601F0A2FE58B101A91A
:10110000284601F0E9FDD4F89444019B2179024678
:10111000206800F0B3F803B030BD0000F0B500EB7C
:10112000810385B09E6904460D46FEB1202383F3FA
:10113000118804EB8507301D0821FFF7ABFEFB6823
:101140005B691B6806F14C001BB1019001F0D2FDF8
:10115000019803A901F0C0FD024648B1039B29464E
:10116000204600F08BF8002383F3118805B0F0BD12
:10117000FB685A691268002AF5D01B8A013B1340AC
:10118000F1D104F14402EAE7093138B550F82140C1
:10119000DCB1202383F31188D4F8942413685279A6
:1011A00003EB8203DB689B695D6845B1042160182D
:1011B000FFF770FE294604F1140001F0C3FC20463D
:1011C000FFF7BAFE002383F3118838BD7047000093
:1011D00001F070B8012303700023C0E90133C3613B
:1011E00083620362C36243620363704738B5044697
:1011F000202383F311880025C0E90355C0E9055574
:10120000416001F067F80223237085F3118838BD2F
:1012100070B500EB810305465069DA600E4614464E
:1012200018B110220021FFF75DFDA06918B110224E
:101230000021FFF757FD31462846BDE8704001F018
:1012400013B90000826802F0011282600022C0E936
:101250000422826101F094B9F0B400EB8104478963
:10126000E4680125A4698D403D4345812360002346
:10127000A2606360F0BC01F0AFB90000F0B400EB15
:1012800081040789E468012564698D403D43058137
:1012900023600023A2606360F0BC01F029BA000063
:1012A00070B50223002504460370C0E90255C0E969
:1012B0000455C564856180F8345001F071F86368A5
:1012C0001B6823B129462046BDE87040184770BD11
:1012D000037880F850300523037043681B6810B50D
:1012E00004460BB1042198470023A36010BD000001
:1012F00090F85020436802701B680BB10521184715
:101300007047000070B590F83430044613B10023E4
:1013100080F8343004F14402204601F053F9636848
:101320009B68B3B994F8443013F0600535D00021C0
:10133000204601F0A5FB0021204601F097FB6368E1
:101340001B6813B1062120469847062384F83430E1
:1013500070BD204698470028E4D0B4F84A30E26BCC
:101360009A4288BFE36394F94430E56B002B4FF059
:10137000200380F20381002D00F0F280092284F81E
:10138000342083F311880021D4E90E232046FFF78F
:1013900075FF002383F31188DAE794F8452003F002
:1013A0007F0343EA022340F20232934200F0C580F9
:1013B00021D8B3F5807F48D00DD8012B3FD0022B28
:1013C00000F09380002BB2D104F14C02A263022200
:1013D000E2632364C1E7B3F5817F00F09B80B3F53E
:1013E000407FA4D194F84630012BA0D1B4F84C3002
:1013F00043F0020332E0B3F5006F4DD017D8B3F5D8
:10140000A06F31D0A3F5C063012B90D8636894F826
:1014100046205E6894F84710B4F848302046B0473C
:10142000002884D04368A3630368E3631AE0B3F53C
:10143000106F36D040F6024293427FF478AF5C4B97
:10144000A3630223E3630023C3E794F84630012B30
:101450007FF46DAFB4F84C3023F00203C4E90E55AD
:10146000A4F84C30256478E7B4F84430B3F5A06FA5
:101470000ED194F8463084F84E30204600F0E8FF54
:1014800063681B6813B1012120469847032323702A
:101490000023C4E90E339CE704F14F03A363012347
:1014A000C3E72378042B10D1202383F3118820462F
:1014B000FFF7C8FE85F311880321636884F84F5055
:1014C00021701B680BB12046984794F84630002BDA
:1014D000DED084F84F300423237063681B68002B30
:1014E000D6D0022120469847D2E794F848301D060E
:1014F00003F00F0120460AD501F056F8012804D068
:1015000002287FF414AF2B4B9AE72B4B98E701F09E
:101510003DF8F3E794F84630002B7FF408AF94F8D9
:10152000483013F00F01B3D01A06204602D501F05F
:10153000BBFAADE701F0AEFAAAE794F84630002B0B
:101540007FF4F5AE94F8483013F00F01A0D01B06DD
:10155000204602D501F094FA9AE701F087FA97E75E
:10156000142284F8342083F311882B462A46294616
:101570002046FFF771FE85F31188E9E65DB115227B
:1015800084F8342083F311880021D4E90E23204607
:10159000FFF762FEFDE60B2284F8342083F3118806
:1015A0002B462A4629462046FFF768FEE3E700BFA0
:1015B00060340008583400085C34000838B590F8EE
:1015C00034300446002B3ED0063BDAB20F2A34D822
:1015D0000F2B32D8DFE803F03731310822323131B6
:1015E0003131313131313737C56BB0F84A309D4236
:1015F00014D2C3681B8AB5FBF3F203FB12556DB915
:10160000202383F311882B462A462946FFF736FE0E
:1016100085F311880A2384F834300EE0142384F80B
:101620003430202383F3118800231A4619462046BC
:10163000FFF712FE002383F3118838BD036C03B15A
:1016400098470023E7E70021204601F019FA00211E
:10165000204601F00BFA63681B6813B1062120468F
:1016600098470623D7E7000010B590F83430142BC4
:10167000044629D017D8062B05D001D81BB110BDC0
:10168000093B022BFBD80021204601F0F9F900218B
:10169000204601F0EBF963681B6813B10621204670
:1016A0009847062319E0152BE9D10B2380F8343035
:1016B000202383F3118800231A461946FFF7DEFD25
:1016C000002383F31188DAE7C3689B695B68002B0A
:1016D000D5D1036C03B19847002384F83430CEE7AA
:1016E000024B0022C3E900339A6070479423002024
:1016F000002303748268054B1B6899689142FBD2F2
:101700005A6803604260106058607047942300205C
:1017100008B5202383F31188037C032B05D0042B09
:101720000DD02BB983F3118808BD436900221A60DC
:101730004FF0FF334361FFF7DBFF0023F2E7D0E90F
:10174000003213605A60F3E7002303748268054B8C
:101750001B6899689142FBD85A6803604260106028
:101760005860704794230020054B19690874186865
:1017700002681A605360186101230374FEF7C6BD46
:101780009423002030B54B1C0B4D87B0044610D07D
:101790002B690A4A01A800F001F92046FFF7E4FF8F
:1017A000049B13B101A800F035F92B69586907B003
:1017B00030BDFFF7D9FFF8E7942300201117000888
:1017C00038B50C4D41612B6981689A689142044695
:1017D00003D8BDE83840FFF78BBF1846FFF7B4FFCA
:1017E00001232C61014623742046BDE83840FEF7F2
:1017F0008DBD00BF94230020044B1A681B699068BC
:101800009B68984294BF00200120704794230020D9
:1018100010B5084C236820691A68226054600122C0
:1018200023611A74FFF790FF01462069BDE810405C
:10183000FEF76CBD94230020FFF7EABFFEE700002F
:1018400010B50C4CFFF74CFF00F09AF80A498022C3
:10185000204600F021F8012344F8180C037400F02E
:1018600043FC002383F3118862B60448BDE81040AE
:1018700000F032B8BC23002064340008743400083F
:1018800000F002B9034A516853685B1A9842FBD8CA
:10189000704700BF001000E08260022202827047A1
:1018A0008368A3F17C0243F80C2C026943F83C2CBA
:1018B000426943F8382C074A43F81C2CC26843F8A5
:1018C000102C022203F8082C002203F8072CA3F1A5
:1018D000180070472503000810B5202383F31188F2
:1018E000FFF7DEFF00210446FFF76AFF002383F3C2
:1018F0001188204610BD0000024B1B6958610F2063
:10190000FFF732BF94230020202383F31188FFF7D1
:10191000F3BF000008B50146202383F31188082097
:10192000FFF730FF002383F3118808BD49B1064B50
:1019300042681B6918605A60136043600420FFF717
:1019400021BF4FF0FF307047942300200368984276
:1019500006D01A680260506059611846FFF7C8BE89
:101960007047000038B504460D462068844200D117
:1019700038BD036823605C604561FFF7B9FEF4E79A
:10198000054B03F11402C3E905224FF0FF31002299
:10199000C3E90712704700BF9423002070B51C4EA6
:1019A000C0E9032305460C4601F07CFA334653F8A0
:1019B000142F9A420DD13062C5E901242A600A2C05
:1019C0002CBF00190A30C6E90555BDE8704001F08A
:1019D00057BA316A431AE31838BF1C469368A342CA
:1019E00002D9081901F05AFA73699A6894420CD81E
:1019F0005A68AC602B606A6015609A685D60121B63
:101A00009A604FF0FF33F36170BD1B68A41AECE7D6
:101A10009423002038B51B4C636998420DD0D0E95F
:101A2000003213605A6000228168C2609A680A44DA
:101A30009A604FF0FF33E36138BD2246036842F8F5
:101A4000143F002193425A60C16003D1BDE8384081
:101A500001F01EBA9A688168256A0A449A6001F00A
:101A600021FA63699A68411B8A42E5D9AB181D1AAD
:101A7000092D206A98BF01F10A02BDE838401044E0
:101A800001F00CBA942300202DE9F041184C0027F6
:101A900004F11406656901F005FA236AAA68C11AFF
:101AA0008A4215D813442362D5E9003213605A6084
:101AB0006369D5F80C80EF60B34201D101F0E8F919
:101AC00087F311882869C047202383F31188E1E751
:101AD0006169B14209D013441B1ABDE8F0410A2BD9
:101AE0002CBFC0180A3001F0D9B9BDE8F08100BFA1
:101AF0009423002000207047FEE70000704700009C
:101B00004FF0FF307047000002290CD0032904D0A9
:101B10000129074818BF00207047032A05D8054847
:101B200000EBC2007047044870470020704700BFB8
:101B300058350008202200200C35000870B59AB0F6
:101B40000546084601A9144600F0C2F801A8FFF7AF
:101B5000C1F8431C5B00C5E9003400222370032355
:101B60006370C6B201AB02341046D1B28E4204F1AA
:101B7000020401D81AB070BD13F8011B04F8021C4E
:101B800004F8010C0132F0E708B5202383F3118833
:101B90000348FFF79DFA002383F3118808BD00BFB7
:101BA0005025002090F8443003F01F02012A07D18D
:101BB00090F845200B2A03D10023C0E90E3315E02D
:101BC00003F06003202B08D1B0F848302BB990F80F
:101BD0004520212A03D81F2A04D8FFF75BBA222AFE
:101BE000EBD0FAE7034A82630722C2630364012051
:101BF000704700BF1822002007B5052917D8DFE875
:101C000001F0191603191920202383F31188104AB3
:101C100001900121FFF7FCFA01980E4A0221FFF71B
:101C2000F7FA0D48FFF720FA002383F3118803B079
:101C30005DF804FB202383F311880748FFF7EAF9D6
:101C4000F2E7202383F311880348FFF701FAEBE75B
:101C5000AC340008D03400085025002038B50C4DB5
:101C60000C4C0D492A4604F10800FFF767FF05F107
:101C7000CA0204F110000949FFF760FF05F5CA72B6
:101C800004F118000649BDE83840FFF757BF00BF10
:101C9000182A0020202200208C34000896340008E6
:101CA000A134000870B5044608460D46FFF712F847
:101CB000C6B22046013403780BB9184670BD3246CF
:101CC0002946FEF7F3FF0028F3D10120F6E70000D4
:101CD0002DE9F04705460C46FEF7FCFF2C49C6B23D
:101CE0002846FFF7DFFF08B10836F6B22949284633
:101CF000FFF7D8FF08B11036F6B2632E0BD8DFF825
:101D00009080DFF89090244FDFF898A02E7846B9A5
:101D10002670BDE8F08729462046BDE8F04701F06F
:101D200051BB252E30D1072241462846FEF7BEFF83
:101D300080B91A4B224603F10C0153F8040B42F808
:101D4000040B8B42F9D119889B7811809370073569
:101D50000F34DBE7082249462846FEF7A7FF98B96B
:101D60000F4BA21C197809090232C95D02F8041C44
:101D700013F8011B01F00F015345C95D02F8031C64
:101D8000F0D118340835C1E704F8016B0135BDE71F
:101D900078350008A1340008903500088035000827
:101DA000107AFF1F1C7AFF1FBFF34F8F024AD368C0
:101DB000DB03FCD4704700BF003C024008B5094B70
:101DC0001B7873B9FFF7F0FF074B1A69002ABFBFF2
:101DD000064A5A6002F188325A601A6822F4806218
:101DE0001A6008BD762C0020003C024023016745A4
:101DF00008B50B4B1B7893B9FFF7D6FF094B1A694F
:101E000042F000421A611A6842F480521A601A685D
:101E100022F480521A601A6842F480621A6008BD87
:101E2000762C0020003C02400B28F0B516D80C4C54
:101E30000C4923787BB90C4D0E460C234FF0006201
:101E400055F8047B46F8042B013B13F0FF033A449A
:101E5000F6D10123237051F82000F0BD0020FCE7EB
:101E6000A82C0020782C0020A4350008014B53F842
:101E700020007047A43500080C2070470B2810B5CF
:101E8000044601D9002010BDFFF7CEFF064B53F8E2
:101E900024301844C21A0BB90120F4E71268013249
:101EA000F0D1043BF6E700BFA43500080B2810B5BD
:101EB000044621D8FFF778FFFFF780FF0F4AF3238E
:101EC000D360C300DBB243F4007343F00203136139
:101ED000136943F480331361FFF766FFFFF7A4FF34
:101EE000074B53F8241000F0D9F8FFF781FF204684
:101EF000BDE81040FFF7C2BF002010BD003C02400B
:101F0000A4350008F8B512F00103144642D1821836
:101F1000B2F1016F57D82D4B1B6813F0010352D05B
:101F20002B4DFFF74BFFF323EB60FFF73DFF40F234
:101F30000127032C15D824F001046618244C401AFC
:101F400040F20117B142236900EB010524D123F0CF
:101F500001032361FFF74CFF0120F8BD043C04306E
:101F6000E7E78307E7D12B6923F440732B612B69E3
:101F70003B432B6151F8046B0660BFF34F8FFFF7B3
:101F800013FF03689E42E9D02B6923F001032B6104
:101F9000FFF72EFF0020E0E723F44073236123695D
:101FA0003B4323610B882B80BFF34F8FFFF7FCFE71
:101FB0002D8831F8023BADB2AB42C3D0236923F088
:101FC00001032361E4E71846C7E700BF0038024079
:101FD000003C0240084908B50B7828B11BB9FFF74F
:101FE000EDFE01230B7008BD002BFCD0BDE80840BE
:101FF0000870FFF7FDBE00BF762C002010B502442C
:10200000064BD2B2904200D110BD441C00B253F82E
:10201000200041F8040BE0B2F4E700BF5028004074
:102020000F4B30B51C6F240407D41C6F44F40074AC
:102030001C671C6F44F400441C670A4C236843F47B
:10204000807323600244084BD2B2904200D130BD6D
:10205000441C00B251F8045B43F82050E0B2F4E7AE
:1020600000380240007000405028004007B50122AF
:1020700001A90020FFF7C2FF019803B05DF804FB3F
:1020800013B50446FFF7F2FFA04205D0012201A9D3
:1020900000200194FFF7C4FF02B010BD704700009C
:1020A000044BD3F874389B0042BF034B01221A70D3
:1020B000704700BF00300240A92C0020014B187867
:1020C000704700BFA92C0020EFF3098305494A6B34
:1020D00022F001024A63683383F30988002383F303
:1020E0001188704700EF00E0202080F3118862B66D
:1020F0000C4B0D4AD96821F4E0610904090C0A432C
:10210000DA60D3F8FC20094942F08072C3F8FC2061
:102110000A6842F001020A601022DA7783F822008E
:10212000704700BF00ED00E00003FA05001000E07A
:1021300010B5202383F311880E4B5B6813F4006302
:1021400014D0F1EE103AEFF30984683C4FF080733D
:10215000E361094BDB6B236684F30988FFF74CFBD3
:1021600010B1064BA36110BD054BFBE783F311884B
:10217000F9E700BF00ED00E000EF00E037030008E2
:102180003A03000870470000FEE700000A4B0B48C6
:102190000B4A90420BD30B4BDA1C121AC11E22F0D1
:1021A00003028B4238BF00220021FEF79BBD53F88B
:1021B000041B40F8041BECE740370008A42D002066
:1021C000A42D0020A42D00207047000070B5D0E998
:1021D00015439E6800224FF0FF3504EB4213510176
:1021E000D3F800090028BEBFD3F8000940F08040B2
:1021F000C3F80009D3F8000B0028BEBFD3F8000BCA
:1022000040F08040C3F8000B013263189642C3F8D7
:102210000859C3F8085BE0D24FF00113C4F81C382A
:1022200070BD00001D4B03EB80022DE9F043D2F896
:102230000CC05D6DDCF81420461CD2F800E005EB04
:10224000063605EB4018516871450AD3D5F8343885
:10225000012202FA00F023EA0000C5F83408BDE8C4
:10226000F083BCF81040AEEB0103A34228BF234625
:10227000D8F81849A4B2B3EB840FF0D89468A4F14D
:10228000040959F8047F3760A4EB09071F44042FA1
:10229000F7D81C440B4494605360D4E7AC2C002066
:1022A000890141F02001016103699B06FCD41220E1
:1022B000FFF7E8BA10B5054C2046FEF78BFF4FF04C
:1022C000A0436365024BA36510BD00BFAC2C00208A
:1022D000F835000870B50378012B054650D12A4B1C
:1022E000446D98421BD1294B5A6B42F080025A63CD
:1022F0005A6D42F080025A655A6D5A6942F0800266
:102300005A615A6922F080025A610E2143205B69AA
:1023100000F0D4FB1E4BE3601E4BC4F800380023D2
:10232000C4F8003EC02323606E6D4FF40413A36312
:102330003369002BFCDA012333610C20FFF7A2FA8A
:102340003369DB07FCD41220FFF79CFA3369002BBA
:10235000FCDA0026A6602846FFF738FF6B68C4F851
:102360001068DB68C4F81468C4F81C684BB90A4BE1
:10237000A3614FF0FF336361A36843F00103A360DF
:1023800070BD064BF4E700BFAC2C002000380240C3
:102390004014004003002002003C30C0083C30C024
:1023A000F8B5446D054600212046FFF779FFA96D79
:1023B00000234FF001128F68C4F834384FF00066E4
:1023C000C4F81C284FF0FF3004EB431201339F4246
:1023D000C2F80069C2F8006BC2F80809C2F8080B1D
:1023E000F2D20B686A6DEB656362102313611669A4
:1023F00016F01006FBD11220FFF744FAD4F800388B
:1024000023F4FE63C4F80038A36943F4402343F087
:102410001003A3610923C4F81038C4F814380A4B18
:10242000EB604FF0C043C4F8103B084BC4F8003BCE
:10243000C4F81069C4F80039EB6D03F1100243F4DD
:102440008013EA65A362F8BDD4350008408000100F
:10245000426D90F84E10D2F8003823F4FE6343EA40
:102460000113C2F8003870472DE9F84300EB8103EF
:10247000456DDA68166806F00306731E022B05EB3D
:1024800041130C4680460FFA81F94FEA41104FF094
:102490000001C3F8101B4FF0010104F1100398BFB5
:1024A000B60401FA03F391698EBF334E06F18056EC
:1024B00006F5004600293AD0578A04F1580149012F
:1024C00037436F50D5F81C180B43C5F81C382B1830
:1024D0000021C3F8101953690127611EA7409BB35F
:1024E000138A928B9B08012A88BF5343D8F85C203B
:1024F000981842EA034301F1400205EB8202C8F852
:102500005C00214653602846FFF7CAFE08EB8900AD
:10251000C3681B8A43EA8453483464011E432E5126
:10252000D5F81C381F43C5F81C78BDE8F88305EBC7
:102530004917D7F8001B21F40041C7F8001BD5F854
:102540001C1821EA0303C0E704F13F0305EB8303F2
:102550000A4A5A6028462146FFF7A2FE05EB4910B9
:10256000D0F8003923F40043C0F80039D5F81C38FE
:1025700023EA0707D7E700BF00800010000400022D
:10258000826D1268C265FFF721BE00005831436DAD
:1025900049015B5813F4004004D013F4001F0CBF32
:1025A00002200120704700004831436D49015B580B
:1025B00013F4004004D013F4001F0CBF02200120CC
:1025C0007047000000EB8101CB68196A0B6813604B
:1025D0004B6853607047000000EB810330B5DD6845
:1025E000AA691368D36019B9402B84BF40231360D4
:1025F0006B8A1468426D1C44013CB4FBF3F46343E2
:10260000033323F0030302EB411043EAC44343F0D6
:10261000C043C0F8103B2B6803F00303012B09B241
:102620000ED1D2F8083802EB411013F4807FD0F8B5
:10263000003B14BF43F0805343F00053C0F8003B0D
:1026400002EB4112D2F8003B43F00443C2F8003BD6
:1026500030BD00002DE9F041244D6E6D06EB4013B6
:102660000446D3F8087BC3F8087B38070AD5D6F8A8
:102670001438190706D505EB84032146DB68284684
:102680005B689847FA071FD5D6F81438DB071BD5C7
:1026900005EB8403D968CCB98B69488A5A68B2FBC8
:1026A000F0F600FB16228AB91868DA6890420DD25B
:1026B000121AC3E90024202383F311880B48214612
:1026C000FFF78AFF84F31188BDE8F081012303FA44
:1026D00004F26B8923EA02036B81CB68002BF3D0F1
:1026E00021460248BDE8F041184700BFAC2C00204D
:1026F00000EB810370B5DD68436D6C692668E660A8
:102700004A0156BB1A444FF40020C2F810092A6847
:1027100002F00302012A0AB20ED1D3F8080803EB33
:10272000421410F4807FD4F8000914BF40F08050A8
:1027300040F00050C4F8000903EB4212D2F800093F
:1027400040F00440C2F80009D3F83408012202FA2C
:1027500001F10143C3F8341870BD19B9402E84BF8C
:102760004020206020682E8A8419013CB4FBF6F4D6
:1027700040EAC44040F000501A44C6E7F8B50446A9
:102780001E48456D05EB4413D3F80869C3F8086982
:10279000F10717D5D5F81038DA0713D500EB840305
:1027A000D9684B691F68DA68974218D2D21B002794
:1027B0001A605F60202383F311882146FFF798FF9A
:1027C00087F31188330617D5D5F834280123A340A1
:1027D000134211D02046BDE8F840FFF723BD012386
:1027E00003FA04F2038923EA020303818B68002BB6
:1027F000E8D021469847E5E7F8BD00BFAC2C0020A3
:102800002DE9F74F984C666D7569B3691D4015F455
:102810008058756107D02046FEF742FD03B0BDE841
:10282000F04FFFF785BC002D12DAD6F8003E8E4837
:102830009F071EBFD6F8003E23F00303C6F8003EF4
:10284000D6F8043823F00103C6F80438FEF750FD2B
:10285000280505D58448FFF7B9FC8348FEF738FD05
:10286000A9040CD5D6F8083813F0060FF36823F442
:1028700070530CBF43F4105343F4A053F3602A0782
:1028800004D56368DB680BB177489847EB0274D4D2
:10289000AF0227D5D4F85490DFF8CCB100274FF021
:1028A000010A09EB4712D2F8003B03F44023B3F5C9
:1028B000802F11D1D2F8003B002B0DDA62890AFA81
:1028C00007F322EA0303638104EB8703DB68DB6819
:1028D00013B1394658469847A36D01379B68FFB23C
:1028E0009F42DED9E80617D5676D3A6AC2F30A102F
:1028F00002F00F0302F4F012B2F5802F00F088808E
:10290000B2F5402F08D104EB83030022DB681B6A79
:1029100007F5805790426DD12903D6F8184813D592
:10292000E20302D50020FFF795FEA30302D50120A4
:10293000FFF790FE670302D50220FFF78BFE260308
:1029400002D50320FFF786FE6D037FF567AFE00732
:1029500002D50020FFF712FFA10702D50120FFF7E3
:102960000DFF620702D50220FFF708FF23077FF55E
:1029700055AF0320FFF702FF50E7636DDFF8E8B0C3
:10298000019300274FF0010AA36D9B685FFA87F956
:1029900099453FF67DAF019B03EB4913D3F800291E
:1029A00002F44022B2F5802F22D1D3F80029002A68
:1029B0001EDAD3F8002942F09042C3F80029D3F878
:1029C0000029002AFBDB606D4946FFF769FC22897C
:1029D0000AFA09F322EA0303238104EB8903DB6883
:1029E0009B6813B14946584698474846FFF71AFC7A
:1029F0000137C9E7910708BFD7F80080072A98BFB9
:102A000003F8018B02F1010298BF4FEA182881E711
:102A1000023304EB830207F580575268D2F818C0DE
:102A2000DCF80820DCE9001CA1EB0C0C002188423A
:102A30000AD104EB830463689B699A6802449A6034
:102A40005A6802445A6067E711F0030F08BFD7F8CD
:102A500000808C4588BF02F8018B01F1010188BF1D
:102A60004FEA1828E3E700BFAC2C0020436D03EBCE
:102A70004111D1F8003B43F40013C1F8003B70470B
:102A8000436D03EB4111D1F8003943F40013C1F851
:102A900000397047436D03EB4111D1F8003B23F43B
:102AA0000013C1F8003B7047436D03EB4111D1F8AF
:102AB000003923F40013C1F80039704700F1604376
:102AC00003F561430901C9B283F80013012200F044
:102AD0001F039A4043099B0003F1604303F56143E0
:102AE000C3F880211A60704730B5039C017204332B
:102AF00004FB0325C0E90653049B03630021059BE7
:102B0000C160C0E90000C0E90422C0E90842C0E990
:102B10000A11436330BD0000416A0022C0E904117C
:102B2000C0E90A22C2606FF00101FEF71BBF00007E
:102B3000D0E90432934201D1C2680AB9181D704726
:102B40000020704703691960C2680132C260C2691F
:102B5000134482690361934224BF436A03610021E5
:102B6000FEF7F4BE38B504460D46E3683BB1626932
:102B7000131D1268A3621344E362002007E0237A66
:102B800033B929462046FEF7D1FE0028EDDA38BDDC
:102B90006FF00100FBE70000C368C269013BC3603E
:102BA0004369134482694361934224BF436A43618A
:102BB00000238362036B03B11847704770B520236D
:102BC000044683F31188866A3EB9FFF7CBFF0546BA
:102BD00018B186F31188284670BDA36AE26A13F81B
:102BE000015BA362934202D32046FFF7D5FF002387
:102BF00083F31188EFE700002DE9F84F04460E46F5
:102C0000174698464FF0200989F311880025AA46F7
:102C1000D4F828B0BBF1000F09D141462046FFF798
:102C2000A1FF20B18BF311882846BDE8F88FD4E9C5
:102C30000A12A7EB050B521A934528BF9346BBF126
:102C4000400F1BD9334601F1400251F8040B43F801
:102C5000040B9142F9D1A36A40334036A362403558
:102C6000D4E90A239A4202D32046FFF795FF8AF35C
:102C70001188BD42D8D289F31188C9E730465A4637
:102C8000FEF70AF8A36A5B445E44A3625D44E7E78B
:102C900010B5029C0172043304FB0321C0E9061342
:102CA0000023C0E90A33039B0363049BC460C0E9AB
:102CB0000000C0E90422C0E90842436310BD0000DF
:102CC000026AC260426AC0E904220022C0E90A2204
:102CD0006FF00101FEF746BED0E904239A4201D10C
:102CE000C26822B9184650F8043B0B6070470020B8
:102CF00070470000C368C2690133C360436913446D
:102D000082694361934224BF436A43610021FEF715
:102D10001DBE000038B504460D46E3683BB123698B
:102D20001A1DA262E2691344E362002007E0237ADD
:102D300033B929462046FEF7F9FD0028EDDA38BD03
:102D40006FF00100FBE7000003691960C268013AF7
:102D5000C260C269134482690361934224BF436A1B
:102D6000036100238362036B03B1184770470000BF
:102D700070B520230D460446114683F31188866AF8
:102D80002EB9FFF7C7FF10B186F3118870BDA36A93
:102D90001D70A36AE26A01339342A36204D3E1691E
:102DA00020460439FFF7D0FF002080F31188EDE7BB
:102DB0002DE9F84F04460D46904699464FF0200AFB
:102DC0008AF311880026B346A76A4FB949462046C0
:102DD000FFF7A0FF20B187F311883046BDE8F88FD8
:102DE000D4E90A073A1AA8EB0607974228BF174604
:102DF000402F1BD905F1400355F8042B40F8042B54
:102E00009D42F9D1A36A4033A3624036D4E90A2334
:102E10009A4204D3E16920460439FFF795FF8BF30A
:102E200011884645D9D28AF31188CDE729463A461A
:102E3000FDF732FFA36A3B443D44A3623E44E5E70D
:102E4000D0E904239A4217D1C3689BB1836A8BB13E
:102E5000043B9B1A0ED01360C368013BC360C36977
:102E60001A44836902619A4224BF436A03610023C2
:102E700083620123184670470023FBE700F088B8FF
:102E80004FF08043002258631A610222DA607047D3
:102E90004FF080430022DA60704700004FF080431B
:102EA000586370474FF08043586A70474B684360DF
:102EB0008B688360CB68C3600B6943614B690362B5
:102EC0008B6943620B6803607047000008B5264BAE
:102ED00026481A6940F2FF110A431A611A6922F45E
:102EE000FF7222F001021A611A691A6B0A431A630F
:102EF0001A6D0A431A651E4A1B6D1146FFF7D6FF6D
:102F000002F11C0100F58060FFF7D0FF02F13801EB
:102F100000F58060FFF7CAFF02F1540100F5806000
:102F2000FFF7C4FF02F1700100F58060FFF7BEFFFC
:102F300002F18C0100F58060FFF7B8FF02F1A801F3
:102F400000F58060FFF7B2FF02F1C40100F5806078
:102F5000FFF7ACFF02F1E00100F58060FFF7A6FF8C
:102F6000BDE8084000F09AB8003802400000024076
:102F70000436000808B500F007FAFEF761FCFFF719
:102F80008FF8BDE80840FEF769BE000070470000FA
:102F9000104B1A6C42F001021A641A6E42F00102E0
:102FA0001A660D4A1B6E936843F0010393604FF05D
:102FB000804353229A624FF0FF32DA6200229A6114
:102FC0005A63DA605A6001225A6108211A601C2093
:102FD000FFF774BD00380240002004E04FF080424B
:102FE00008B51169D3680B40D9B2C9439B07116179
:102FF00007D5202383F31188FEF742FC002383F3D7
:10300000118808BD08B5FFF7E9FFBDE80840FFF7E4
:103010008FB800001F4B1A696FEAC2526FEAD25292
:103020001A611A69C2F308021A614FF0FF301A6977
:103030005A69586100215A6959615A691A6A62F0DD
:1030400080521A621A6A02F080521A621A6A5A6A26
:1030500058625A6A59625A6A1A6C42F080521A646B
:103060001A6E42F080521A661A6E0B4A106840F4CB
:1030700080701060186F00F44070B0F5007F1EBFC4
:103080004FF4803018671967536823F40073536056
:1030900000F05AB90038024000700040334B4FF046
:1030A00080521A64324A4FF4404111601A6842F06B
:1030B00001021A601A689107FCD59A6822F003028F
:1030C0009A602A4B9A6812F00C02FBD1196801F041
:1030D000F90119609A601A6842F480321A601A681D
:1030E0009203FCD55A6F42F001025A671F4B5A6F88
:1030F0009007FCD51F4A5A601A6842F080721A6025
:103100001B4A53685904FCD5184B1A689201FCD528
:10311000194A9A60194B1A68194B9A42194B21D1D6
:10312000194A1168194A91421CD140F205121A60DD
:10313000144A136803F00F03052BFAD10B4B9A685E
:1031400042F002029A609A6802F00C02082AFAD150
:103150005A6C42F480425A645A6E42F480425A6673
:103160005B6E704740F20572E1E700BF0038024035
:10317000007000400854400700948838002004E0A4
:1031800011640020003C024000ED00E041C20F410C
:10319000084A08B5516913680B4003F001035361F5
:1031A00023B1054A13680BB150689847BDE8084041
:1031B000FEF7BEBF003C0140242D0020084A08B5A0
:1031C000516913680B4003F00203536123B1054AB0
:1031D00093680BB1D0689847BDE80840FEF7A8BFD8
:1031E000003C0140242D0020084A08B551691368AD
:1031F0000B4003F00403536123B1054A13690BB17B
:1032000050699847BDE80840FEF792BF003C014076
:10321000242D0020084A08B5516913680B4003F0BB
:103220000803536123B1054A93690BB1D0699847EC
:10323000BDE80840FEF77CBF003C0140242D002083
:10324000084A08B5516913680B4003F01003536135
:1032500023B1054A136A0BB1506A9847BDE808408C
:10326000FEF766BF003C0140242D0020174B10B52F
:103270005A691C68144004F478725A61A30604D594
:10328000134A936A0BB1D06A9847600604D5104A76
:10329000136B0BB1506B9847210604D50C4A936B06
:1032A0000BB1D06B9847E20504D5094A136C0BB1FA
:1032B000506C9847A30504D5054A936C0BB1D06CAC
:1032C0009847BDE81040FEF733BF00BF003C014007
:1032D000242D00201A4B10B55A691C68144004F4C0
:1032E0007C425A61620504D5164A136D0BB1506DCC
:1032F0009847230504D5134A936D0BB1D06D9847B9
:10330000E00404D50F4A136E0BB1506E9847A10428
:1033100004D50C4A936E0BB1D06E9847620404D565
:10332000084A136F0BB1506F9847230404D5054A20
:10333000936F0BB1D06F9847BDE81040FEF7F8BE11
:10334000003C0140242D0020062108B50846FFF767
:10335000B5FB06210720FFF7B1FB06210820FFF788
:10336000ADFB06210920FFF7A9FB06210A20FFF784
:10337000A5FB06211720FFF7A1FBBDE808400621A9
:103380002820FFF79BBB000008B5FFF743FE00F0C5
:103390000BF8FDF71DFFFDF7F5FDFFF7F7FDBDE8A5
:1033A0000840FFF76BBD00000023054A19460133B2
:1033B000102BC2E9001102F10802F8D1704700BFDA
:1033C000242D0020034611F8012B03F8012B002ABD
:1033D000F9D1704753544D3332463F3F3F00000010
:1033E00053544D3332463430780053544D333246C3
:1033F0003432780053544D33324634343658580002
:1034000000000000D43300083F0000001304000057
:10341000E03300083F00000019040000EA33000810
:103420003F00000021040000F43300083F000000CA
:1034300000000000010F0008ED0E0008290F000831
:10344000150F0008210F00080D0F0008F90E0008E5
:10345000E50E0008350F0008000000000100000024
:10346000000000006D61696E0000000069646C6519
:10347000000000006C340008D823002050250020F4
:10348000010000003D180008000000004172647552
:1034900050696C6F740025424F415244252D424CB7
:1034A000002553455249414C250000000200000010
:1034B000000000001D1100088911000840004000B4
:1034C000E8290020F8290020020000000000000088
:1034D0000300000000000000CD1100080000000003
:1034E00010000000082A0020000000000100000079
:1034F00000000000AC2C002001010200F91B0008B4
:10350000091B0008A51B0008891B000843000000D8
:103510001435000809024300020100C0320904000A
:103520000001020201000524001001052401000130
:10353000042402020524060001070582030800FF97
:1035400009040100020A0000000705010240000012
:1035500007058102400000001200000060350008ED
:10356000120110010200004009124157000201023D
:10357000030100000403090425424F415244250081
:10358000536B79737461727346343035444A490021
:103590003031323334353637383941424344454689
:1035A000000000000040000000400000004000005B
:1035B00000400000000001000000020000000200C6
:1035C00000000200000002000000020000000200F3
:1035D000000002000000000005130008BD150008EF
:1035E00069160008400040000C2D00200C2D002022
:1035F000010000001C2D00208000000040010000A0
:10360000030000000001804200000000AAAAAAAA4C
:1036100000010040FFFF00000000000000A00A00C1
:103620000000000100000000AAAAAAAA00000001F0
:10363000FFFF000000000000000000000004005038
:1036400000000000AAAAAAAA00040000FF3F000090
:10365000000000000000000000000000000000006A
:10366000AAAAAAAA00000000FFFF000000000000B4
:10367000000000000000000000000000AAAAAAAAA2
:1036800000000000FFFF000000000000000000003C
:103690000000000000000000AAAAAAAA0000000082
:1036A000FFFF00000000000000000000000000001C
:1036B00000000000AAAAAAAA00000000FFFF000064
:1036C00000000000000000000000000000000000FA
:1036D0000A000000000000000300000000000000DD
:1036E00000000000000000000000000000000000DA
:1036F00000000000000000000000000000000000CA
:10370000920000000000000000000F000000000018
:10371000FF0096000000000800960000000008006E
:1037200004000000743500080000000000000000E4
:103730000000000000000000000000000000000089
:00000001FF
